S01A000073697374656D5F616C61726D5F70696E74752E737265637A
S113000050C200006FC200006DC200006BC200004D
S113001069C2000067C2000065C2000063C200003C
S113002061C200005FC200005DC200005BC200004C
S113003059C2000057C200000C94890B53C200003F
S113004051C200004FC200004DC200004BC200006C
S113005049C2000047C2000045C2000043C200007C
S113006041C200003FC200003DC200003BC200008C
S113007039C2000037C2000035C2000033C200009C
S113008031C200002FC200002DC200002BC20000AC
S113009029C2000027C2000025C2000023C20000BC
S11300A021C200001FC200001DC200001BC20000CC
S11300B019C2000017C2000015C2000013C20000DC
S11300C011C200000FC200000DC200000BC20000EC
S11300D009C2000007C2000005C2000003C20000FC
S11300E001C20000FFC10000FDC10000FBC100000F
S11300F0F9C10000F7C10000F5C10000F3C1000020
S1130100F1C10000EFC10000EDC10000EBC100002F
S1130110E9C10000E7C10000E5C10000E3C100003F
S1130120E1C10000DFC10000DDC10000DBC100004F
S1130130D9C10000D7C10000D5C10000D3C100005F
S1130140D1C10000CFC10000CDC10000CBC100006F
S1130150C9C10000C7C10000C5C10000C3C100007F
S1130160C1C10000BFC10000BDC10000BBC100008F
S1130170B9C10000B7C10000B5C10000B3C100009F
S1130180B1C10000AFC10000ADC10000ABC10000AF
S1130190A9C10000A7C10000A5C10000A3C10000BF
S11301A0A1C100009FC100009DC100009BC10000CF
S11301B099C1000097C1000095C1000093C10000DF
S11301C091C100008FC100008DC100008BC10000EF
S11301D089C1000087C1000085C1000083C10000FF
S11301E081C100007FC100007DC100007BC100000F
S11301F079C1000077C1000075C10000501450148B
S113020050148614761483145014501486147614DF
S1130210000000000000002020202020002050507A
S113022050000000005050F850F850502078A07052
S113023028F020C0C810204098186090A040A890D2
S11302406860204000000000102040404020104022
S1130250201010102040005020F8205000002020D2
S1130260F820200000000000602040000000F8009A
S113027000000000000000606000081020408000C2
S1130280708898A8C888702060202020207070880A
S113029008102040F8F81020100888701030509092
S11302A0F81010F880F008088870304080F08888D2
S11302B070F80810204040407088887088887070FA
S11302C088887808106000606000606000006060EA
S11302D000602040081020402010080000F800F8BA
S11302E000008040201020408070880810200020EA
S11302F070880868A8A87070888888F88888F0884A
S113030088F08888F070888080808870E090888881
S11303108890E0F88080F08080F8F88080E0808029
S11303208070888080988870888888F88888887029
S1130330202020202070381010101090608890A089
S1130340C0A09088808080808080F888D8A8888821
S113035088888888C8A898888870888888888870D9
S1130360F08888F080808070888888A89068F088F9
S113037088F0A09088788080700808F0F820202009
S11303802020208888888888887088888888885071
S113039020888888A8A8D888888850205088888889
S11303A0885020202020F80810204080F838202091
S11303B02020203800804020100800E02020202049
S11303C020E020508800000000000000000000F839
S11303D040201000000000000070087888788080B9
S11303E0B0C88888F0000070808088700808689819
S11303F088887800007088F88070304840E0404079
S113040040000078887808308080B0C888888820C8
S11304100060202020701000301010906040404890
S113042050605048602020202020700000D0A8A8F0
S113043088880000B0C88888880000708888887020
S11304400000F088F08080000068987808080000B8
S1130450B0C8808080000070807008F04040E040A8
S11304604048300000888888986800008888885050
S11304702000008888A8A8500000885020508800D8
S11304800088887808700000F8102040F8102020B8
S11304904020201020202020202020402020102038
S11304A0204011241FBECFEFCDBFDFE5DEBF00E04B
S11304B00CBF10E2A0E0B0E2E0E2F7E300E00BBF23
S11304C002C007900D92AA3BB107D9F723E2AAEB29
S11304D0B0E201C01D92AC3BB207E1F70E94B41632
S11304E00C948E1B8DCD04C0615071098109910952
S11304F06115710581059105B9F70895BF92CF92F1
S1130500DF92EF92FF920F931F93CF93DF931F928B
S1130510CDB7DEB700E016E06894FF24F3F8F801E5
S1130520F68264E070E080E090E0DDDFF801F582BF
S113053064E070E080E090E0D6DF0F2EFBE2BF2E97
S1130540F02DB98280EA99E01ED4C12CD12C760119
S113055000E412E42FE030E043E0BE016F5F7F4F20
S113056080EA99E03FD400E616E0FF24F394F80112
S1130570F682B982BE016F5F7F4F80EA99E04CD466
S1130580F801F682E0EAF9E0818185FFFDCF80EA97
S11305908093A009E0EAF9E0818186FFFDCFE0EADB
S11305A0F9E080E481838081BE016F5F7F4F80EA40
S11305B099E048D48BE28983BE016F5F7F4F80EA64
S11305C099E02AD481E080936606E0EAF9E081812B
S11305D085FFFDCF86EA8093A009E0EAF9E08181F6
S11305E086FFFDCFE0EAF9E080E481838081BE01EB
S11305F06F5F7F4F80EA99E025D48BE28983BE0147
S11306006F5F7F4F80EA99E007D481E080936606AC
S1130610E0EAF9E0818185FFFDCF88EC8093A009B1
S1130620E0EAF9E0818186FFFDCFE0EAF9E080E4C9
S113063081838081BE016F5F7F4F80EA99E002D49D
S11306408BE28983BE016F5F7F4F80EA99E0E4D338
S113065081E080936606E0EAF9E0818185FFFDCFC1
S113066082EA8093A009E0EAF9E0818186FFFDCF68
S1130670E0EAF9E080E481838081BE016F5F7F4F0F
S113068080EA99E0DFD38BE28983BE016F5F7F4FFD
S113069080EA99E0C1D381E080936606E0EAF9E05C
S11306A0818185FFFDCF8FE28093A009E0EAF9E024
S11306B0818186FFFDCFE0EAF9E080E481838081D7
S11306C0BE016F5F7F4F80EA99E0BCD38BE28983E0
S11306D0BE016F5F7F4F80EA99E09ED381E08093F3
S11306E06606E0EAF9E0818185FFFDCF88EF80931B
S11306F0A009E0EAF9E0818186FFFDCFE0EAF9E0B4
S113070080E481838081BE016F5F7F4F80EA99E03E
S113071099D38BE28983BE016F5F7F4F80EA99E0B2
S11307207BD381E080936606E0EAF9E0818185FF6E
S1130730FDCF1092A009E0EAF9E0818186FFFDCFA8
S1130740E0EAF9E080E481838081BE016F5F7F4F3E
S113075080EA99E077D38BE28983BE016F5F7F4F94
S113076080EA99E059D381E080936606E0EAF9E0F3
S1130770818185FFFDCF81E28093A009E0EAF9E061
S1130780818186FFFDCFE0EAF9E080E48183808106
S1130790BE016F5F7F4F80EA99E054D38BE2898377
S11307A0BE016F5F7F4F80EA99E036D381E080938A
S11307B06606E0EAF9E0818185FFFDCF81E8809358
S11307C0A009E0EAF9E0818186FFFDCFE0EAF9E0E3
S11307D080E481838081BE016F5F7F4F80EA99E06E
S11307E031D38BE28983BE016F5F7F4F80EA99E04A
S11307F013D381E080936606E0EAF9E0818185FF06
S1130800FDCF81E28093A009E0EAF9E0818186FFCF
S1130810FDCFE0EAF9E080E481838081BE016F5F6F
S11308207F4F80EA99E00ED38BE28983BE016F5F2C
S11308307F4F80EA99E0F0D281E080936606E0EA97
S1130840F9E0818185FFFDCF8FEA8093A009E0EA7A
S1130850F9E0818186FFFDCFE0EAF9E080E481835D
S11308608081BE016F5F7F4F80EA99E0EBD20F90E9
S1130870DF91CF911F910F91FF90EF90DF90CF9078
S1130880BF900895CF93DF931F92CDB7DEB79FB784
S11308909983F8949981E82FF0E0E059FF4F60952F
S11308A08081682360839FBF0F90DF91CF9108956B
S11308B0FF920F931F93CF93DF931F92CDB7DEB7B1
S11308C0082FF62E142F1AD10F70006B8BE2898338
S11308D0BE016F5F7F4F80EA99E09ED281E08093F2
S11308E06606E0EAF9E0918195FFFDCF0093A00947
S11308F0E0EAF9E0818186FFFDCFE0EAF9E080E4F7
S113090081838081BE016F5F7F4F80EA99E09AD234
S11309100F2D0F7702950F7000618BE28983BE0162
S11309206F5F7F4F80EA99E077D281E0809366061B
S1130930E0EAF9E0818185FFFDCF0093A009E0EAB8
S1130940F9E0818186FFFDCFE0EAF9E080E481836C
S11309508081BE016F5F7F4F80EA99E073D20F2DD3
S11309600F708BE28983BE016F5F7F4F80EA99E04D
S113097053D281E080936606E0EAF9E0818185FF45
S1130980FDCF0093A009E0EAF9E0818186FFFDCF65
S1130990E0EAF9E080E481838081BE016F5F7F4FEC
S11309A080EA99E04FD28BE28983BE016F5F7F4F6B
S11309B080EA99E031D281E080936506E0EAF9E0CB
S11309C0818185FFFDCF1093A009E0EAF9E08181E0
S11309D086FFFDCFE0EAF9E080E48183808181E055
S11309E080936606BE016F5F7F4F80EA99E02AD24A
S11309F00F90DF91CF911F910F91FF9008950F9366
S1130A001F93CF93DF931F92CDB7DEB78AEB90E2AB
S1130A1070D074DD8BE28983BE016F5F7F4F80EA03
S1130A2099E0FAD181E080936606E0EAF9E08181F9
S1130A3085FFFDCF80E48093A009E0EAF9E081819D
S1130A4086FFFDCFE0EAF9E080E481838081BE0186
S1130A506F5F7F4F80EA99E0F5D100E00AC040E083
S1130A60612F802F25DF1F5F1038C9F70F5F043017
S1130A7011F010E0F4CF0F90DF91CF911F910F91FF
S1130A800895FF920F931F93CF93DF9388234CF124
S1130A90603238F5D42FC82FF62EF694F694F694D7
S1130AA070E088E0F89E60197109112481E090E0FB
S1130AB08C0102C0000F111F6A95E2F76C2F8F2D75
S1130AC02BD0D13021F028F0D23031F006C0802B69
S1130AD004C00095802301C08027482F6C2F8F2DE0
S1130AE0E7DEDF91CF911F910F91FF90089514C01D
S1130AF008958093BA229093BB2208952091BA223C
S1130B003091BB2290E8899F200D311D1124F901F9
S1130B10E60FF11D408308952091BA223091BB2243
S1130B2090E8899F200D311D1124F901E60FF11D74
S1130B3080810895FF920F931F93CF93DF93E42F47
S1130B40F0E0E80FF11DE138F1051CF0C0E84C2F8E
S1130B50481B442309F44AC0D62FD695D695D6957A
S1130B6070E098E0D99F601971091124E1E0F0E088
S1130B70DF0102C0AA0FBB1F6A95E2F7FA2E2130EB
S1130B8021F098F0223019F131C0C42F1FEF180F53
S1130B90012F0C0F602F8D2FAADF4F2D482B602FB4
S1130BA08D2F86DEC150A1F721C0C42F1FEF180F6F
S1130BB0FA2EF094012F0C0F602F8D2F98DF4F2DFC
S1130BC04823602F8D2F74DEC150A1F70FC0C42FAE
S1130BD01FEF180F012F0C0F602F8D2F88DF4F2D63
S1130BE04827602F8D2F64DEC150A1F7DF91CF918C
S1130BF01F910F91FF900895FF920F931F93CF932E
S1130C00DF93222369F0F42E182FC22FDFEFD60FC3
S1130C106D2F6C0F202F4F2D812F8CDFC150C1F70A
S1130C20DF91CF911F910F91FF900895AF92BF92E2
S1130C30CF92DF92EF92FF920F931F93CF93DF93A4
S1130C40C82FE62EB42E690100E0F9012481438106
S1130C506B2D8E2DD1DFF6018081811139C0838106
S1130C60282F269526952695877009F02F5FF60183
S1130C70A4808C2F90E03581831B91092A9D9001DB
S1130C801124829FA001839F500D929F500D112427
S1130C9001811281040F151FF601F380FF20A1F0DA
S1130CA0D0E0C0E08E2D8C0F9C2F977021F4F801BA
S1130CB0D4910F5F1F4FDD231CF441E06B2DE1DE67
S1130CC0DD0FCF5FFC12EECFB394AA94A110E4CF52
S1130CD0DF91CF911F910F91FF90EF90DF90CF9014
S1130CE0BF90AF900895DF92EF92FF920F931F93FE
S1130CF0CF93DF93D62E042F7901EC01162F89911F
S1130D008A3031F4F70184818F5F080F1D2D09C0EB
S1130D108D3039F09701402F612F88DFF7018381EF
S1130D20180F88818111EBCFDF91CF911F910F9123
S1130D30FF90EF90DF900895CF93DF93FC0120E0C4
S1130D4030E0C62FD0E0DE01022E02C0B595A79593
S1130D500A94E2F7A0FD508B2F5F3F4F3196283065
S1130D60310589F740FF0AC041FF03C0FC016583D8
S1130D7002C0FC016683FC01618302C0FC01628342
S1130D80DF91CF910895803A28E0920721F460E141
S1130D9083E078CD0895803B28E0920721F460E257
S1130DA083E070CD0895803A29E0920721F460E150
S1130DB084E068CD0895803B29E0920721F460E245
S1130DC084E060CD0895803A2AE0920721F460E13E
S1130DD085E058CD0895803A9B4019F460E186E09F
S1130DE051CD08950F931F93CF93DF9300D000D07C
S1130DF0CDB7DEB709831A832B833C834D831E82D0
S1130E00BE016F5F7F4F03D12696CDBFDEBFDF915A
S1130E10CF911F910F910895FB018081E82FE695F2
S1130E20E695E69540E2E49FF0011124FA5F8770AD
S1130E3021E030E0A90102C0440F551F8A95E2F772
S1130E4046830895FB018081E82FE695E695E695B3
S1130E5040E2E49FF0011124FA5F877021E030E062
S1130E60A90102C0440F551F8A95E2F745830895EE
S1130E7043E050E061E080EE97E05EDF43E050E065
S1130E8062E080EE97E058DF43E050E060E180E606
S1130E9096E052DF41E050E460E280E696E04CDF09
S1130EA040E05BE160E280E896E046DF40E05BE141
S1130EB062E080EA96E040DF40E05BE164E080EAE3
S1130EC096E03ADF43E050E062E080E696E034DF0B
S1130ED043E050E068E080E696E02EDF43E050E037
S1130EE068E080EA96E028DF43E050E061E080E6D5
S1130EF096E022DF43E050E068E080E096E01CDF0B
S1130F0041E050E060E180E896E016DF43E050E025
S1130F1062E080E696E010DF43E050E068E080E6BF
S1130F2096E00ADF40E050E064E080E696E004DF0B
S1130F3043E050E060E180EA96E0FEDE40E050E00D
S1130F4061E080E096E0F8DE40E050E064E080E0BC
S1130F5096E0F2DE40E050E062E080E296E0ECDE13
S1130F6043E050E068E080E496E0E6DE40E050E0F4
S1130F7064E080E496E0E0DE43E050E068E080E690
S1130F8096E0DADE40E050E064E080E696E0D4DE0D
S1130F9043E050E068E080E896E0CEDE40E050E0D8
S1130FA064E080E896E0C8CE0895CF92DF92EF9295
S1130FB0FF920F931F93CF93DF93EC01D901C801E4
S1130FC0B695A79597958795481759076A077B079C
S1130FD078F46A017B01CC0CDD1CEE1CFF1CC901FA
S1130FE0B801A70196010E9443172150310902C09C
S1130FF020E030E0832F8F708F832E83DF91CF9199
S11310001F910F91FF90EF90DF90CF900895DF92A2
S1131010EF92FF920F931F93CF93DF931F92CDB75D
S1131020DEB77C018B01009709F4B2C1803C9105C5
S113103021F460E180E026DCABC180E8E81681E0C1
S1131040F80621F462E080E01DDCA2C1E114E1E0D5
S1131050FE0621F461E080E015DC9AC1F0E8EF16A9
S1131060F3E0FF0621F461E081E00CDC91C130E99A
S1131070E31633E0F30621F461E082E003DC88C187
S1131080E11482E0F80621F462E081E0FBDB80C138
S1131090E0E4EE16E2E0FE0621F462E082E0F2DB38
S11310A077C1F0E2EF16F3E0FF0621F464E082E09A
S11310B0E9DB6EC1E11438E0F30621F461E083E07A
S11310C0E1DB66C1E11489E0F80621F461E084E023
S11310D0D9DB5EC1E114EAE0FE0621F461E085E0BB
S11310E0D1DB56C1E114FBE0FF0621F461E086E0A8
S11310F0C9DB4EC130E4E31638E0F30621F462E0C4
S113110083E0C0DB45C180E4E81689E0F80621F4F9
S113111062E084E0B7DB3CC1E0E4EE16EAE0FE0600
S113112021F462E085E0AEDB33C1F0E9EF16F8E0CC
S1131130FF0621F464E083E0A5DB2AC130E9E3166D
S113114039E0F30621F464E084E09CDB21C180E90A
S1131150E8168AE0F80621F464E085E093DB18C120
S1131160E0E9EE16EBE0FE0621F464E086E08ADBBB
S11311700FC1F0ECEF16F8E0FF0621F468E083E01D
S113118081DB06C130ECE31639E0F30621F468E0B4
S113119084E078DBFDC080EAE81688E0F80661F4B4
S11311A060E183E06FDBE0EAF8E084818F7E848392
S11311B0F801248122504CC0F0EAEF16F9E0FF0652
S11311C021F460E184E05EDBE3C030EAE3163AE058
S11311D0F30621F460E185E055DBDAC080EAE81625
S11311E08BE0F80621F460E186E04CDBD1C0E0EB53
S11311F0EE16E8E0FE0621F460E283E043DBC8C0BB
S1131200F0EBEF16F9E0FF0621F460E284E03ADB4C
S1131210BFC030E8E31634E0F30621F460E483E071
S113122031DBB6C080EAE81684E0F80621F460E415
S113123085E028DBADC0F70184818F7E8483FB01C8
S113124024812250C701F0EAEF16F8E0FF0649F4C2
S113125080914E0684FDA5C00F2EF1E1DF2EF02D06
S1131260A4C0803B38E0930791F0803AE9E09E0700
S113127049F430916E0634FD9BC00F2EF9E1DF2E48
S1131280F02D16C0803BF9E09F07F1F004C00F2E4B
S1131290F5E1DF2EF02D803A3AE0930749F480918E
S11312A08E0684FD8AC00F2EF1E2DF2EF02D15C0CC
S11312B0803A9B4091F48091AE0684FD0AC00F2EC3
S11312C0F9E2DF2EF02D09C00F2EFDE1DF2EF02D07
S11312D004C00F2EFDE2DF2EF02DED2DE695E695F0
S11312E0E69530E2E39FF0011124FA5F3D2D37705B
S11312F081E090E0032E02C0880F991F0A94E2F760
S11313008183223010F040E001C040E4DF015096B8
S1131310A30FB11D9FB79983F89439812C9127703D
S11313202C939C91942B9C933FBF8583F7018581DB
S1131330806C8583F80184818D7F813029F4F701E5
S113134085818260858304C0F70185818D7F8583D3
S1131350F8018581882329F0F701858184608583DC
S113136004C0F70185818B7F8583F8014081518119
S11313706281738100E814E82EE130E0C70115DED4
S1131380F7018481886084838481806184831AC0A6
S1131390F70184818F7E8483F80124812250C70160
S11313A060CF0F2EF5E1DF2EF02D80EA98E06ACFB2
S11313B00F2EFDE1DF2EF02D7BCF0F2EF5E2DF2E79
S11313C0F02D8BCF0F90DF91CF911F910F91FF9054
S11313D0EF90DF900895FC010396818392832FEFB1
S11313E03FEF23833483858396838783908710829A
S11313F00895FC01108611860895CF93DF939C0114
S1131400FB01DC011196CD91DC911297C283D38349
S11314108C819D81848395838C819D81DC011296CE
S11314206D937C9313976C837D8320873187F901B7
S113143080818F5F8083DF91CF910895CF93DF9375
S1131440EB01488159814F3F2FEF520721F4FC01F2
S1131450A781B0850DC0DC01139601C0DF0112968F
S1131460ED91FC9113972081318142175307B0F716
S11314701296ED91FC911397EA83FB83C483D58381
S1131480AC83BD831296CD93DC9313978887998799
S1131490FC0120812F5F2083DF91CF910895CF93AA
S11314A0DF93FC01A085B185C281D38184819581BC
S11314B08C839D83C481D581828193818A839B831C
S11314C011968D919C911297E817F90731F4848154
S11314D0958111968D939C931297108611868C9109
S11314E081508C93DF91CF9108950F931F938B01BB
S11314F071E1FC017083319762E26083319723E3E9
S11315002083012E000C220B330B3197008331977B
S113151010833197208331971082319720E82083FC
S113152031971082319722E02083319723E0208382
S1131530319724E02083319725E02083319726E0FA
S11315402083319727E02083319728E02083319747
S113155029E02083319720E12083319770833197EC
S113156022E12083319723E12083319724E12083F2
S1131570319725E12083319726E12083319727E1B4
S11315802083319728E12083319729E12083319703
S113159020E22083319721E22083319760833197C1
S11315A023E220833197408331975083319726E299
S11315B02083319727E22083319728E220833197D3
S11315C029E22083319720E32083319721E320838C
S11315D087971F910F910895F894E0E7F0E08381D5
S11315E08A7F8383E0E0F8E080E09AEF86A397A304
S11315F091E09683A0EAB0E012968C9112978160F4
S113160012968C9390837894A0911223B091132313
S11316100D900DBE0D900EBEFF91EF91DF91CF9115
S1131620BF91AF919F918F917F916F915F914F91F6
S11316303F912F911F910F91FF90EF90DF90CF90EA
S1131640BF90AF909F908F907F906F905F904F90DE
S11316503F902F901F900F900FBE0F90089581E040
S113166008950F920FB6F8940F921F9211242F929F
S11316703F924F925F926F927F928F929F92AF921E
S1131680BF92CF92DF92EF92FF920F931F932F930B
S11316903F934F935F936F937F938F939F93AF93F6
S11316A0BF93CF93DF93EF93FF93A0911223B09155
S11316B013230DB60D920EB60D9207D6A0911223E8
S11316C0B09113230D900DBE0D900EBEFF91EF91BE
S11316D0DF91CF91BF91AF919F918F917F916F9146
S11316E05F914F913F912F911F910F91FF90EF9038
S11316F0DF90CF90BF90AF909F908F907F906F902E
S11317005F904F903F902F901F900F900FBE0F90BF
S113171008950F920FB6F8940F921F9211242F92EE
S11317203F924F925F926F927F928F929F92AF926D
S1131730BF92CF92DF92EF92FF920F931F932F935A
S11317403F934F935F936F937F938F939F93AF9345
S1131750BF93CF93DF93EF93FF93A0911223B091A4
S113176013230DB60D920EB60D9244D48111ADD54E
S1131770A0911223B09113230D900DBE0D900EBEB7
S1131780FF91EF91DF91CF91BF91AF919F918F9195
S11317907F916F915F914F913F912F911F910F9185
S11317A0FF90EF90DF90CF90BF90AF909F908F907D
S11317B07F906F905F904F903F902F901F900F906D
S11317C00FBE0F901895CF93DF93EC0103D4CE0195
S11317D00E946D17EC01E1D4CE01DF91CF91089501
S11317E0CF93DF93009731F0EC01F4D3CE010E9444
S11317F00518D3D4DF91CF9108951F93CF93DF932E
S1131800EC01142F4C8D4423D9F1111116C050E072
S11318108C819D810E948E182C8D8C819D81820FDC
S1131820911D8C839D832A813B818217930740F10C
S1131830888199818C839D8323C050E08E819F8110
S11318400E948E188C8D90E09195819591092E813E
S11318503F81280F391F2E833F83488159812417E4
S1131860350730F42A813B81820F931F8E839F8337
S1131870123031F48A8D882319F08A8D81508A8F31
S11318808A8D8F5F8A8F80E0DF91CF911F910895B9
S1131890FC01448D4423A9F050E026813781240FB4
S11318A0351F26833783828193812817390720F0D7
S11318B08081918186839783CB01668177810C94A3
S11318C08E1808950F931F93CF93DF93EC010FB6F7
S11318D0F8940F928E8D1816ACF48989811105C085
S11318E011C08989811104C00DC08E010F5E1F4F84
S11318F0C8018CD581110CD68E8D81508E8F8E8D22
S113190018167CF38FEF8E8F0F900FBE0FB6F894DE
S11319100F928D8D1816ACF48885811105C011C005
S11319208885811104C00DC08E01085F1F4FC80156
S11319306DD58111EDD58D8D81508D8F8D8D1816BE
S11319407CF38FEF8D8F0F900FBEDF91CF911F919E
S11319500F910895CF93DF93EC010FB6F8940F9293
S1131960488159812C8D30E07B8D729FC001739F1B
S1131970900D1124FA01E80FF91FEA83FB831A8EF4
S11319804C835D83821B930B840F951F8E839F83EF
S11319908FEF8D8F8E8F61110AC08885882369F03F
S11319A0CE01089633D5813041F45BDE06C0CE010A
S11319B0089611DDCE0141960EDD0F900FBE81E039
S11319C0DF91CF9108950F931F93CF93DF93082F47
S11319D0162F6623A9F0869FC00111248096F3DE9A
S11319E0EC01009721F412C0C883D98303C04F9639
S11319F0888399830B8F1C8F61E0CE01ABDF06C017
S1131A008FE190E0E0DEEC01892B71F7CE01DF91EC
S1131A10CF911F910F910895AF92BF92CF92DF9211
S1131A20EF92FF920F931F93CF93DF93CDB7DEB75F
S1131A302597CDBFDEBF8C016B014C835D83A22E45
S1131A40B12C7C0188E0E80EF11C0FB6F8940F92DB
S1131A50F801928D838D981718F0F2E0AF1215C03B
S1131A604A2DB601C801C9DEF8019189992339F0DC
S1131A70C8014196CBD4813021F4F3DD02C0811139
S1131A80F0DD0F900FBE81E046C08C819D81892BD3
S1131A9021F40F900FBE80E03EC0B11005C0CE010E
S1131AA00196FAD4BB24B3940F900FBE93D20FB611
S1131AB0F8940F92F801858D8F3F09F4158EF80183
S1131AC0868D8F3F09F4168E0F900FBEBE016C5F9A
S1131AD07F4FCE010196EBD4811119C00FB6F89453
S1131AE00F92F801928D0F900FBE838D98130BC047
S1131AF06C817D81C70156D4C801E4DE4ED38111C7
S1131B00A4CFAFDDA2CFC801DDDE47D39ECFC8018D
S1131B10D9DE43D380E02596CDBFDEBFDF91CF91E0
S1131B201F910F91FF90EF90DF90CF90BF90AF90F7
S1131B3008950F931F93CF93DF93FA01DC015A9614
S1131B405C915A975B963C91531710F02230D9F46C
S1131B50422F8F01EC0151DE8E8D8F3F79F48989FC
S1131B60882399F0CE01419651D4882381F0011540
S1131B70110579F081E0F80180830CC08E8D8F5FB0
S1131B808E8F81E007C080E005C081E003C081E062
S1131B9001C081E0DF91CF911F910F910895AF9221
S1131BA0BF92CF92DF92EF92FF920F931F93CF9346
S1131BB0DF93CDB7DEB72597CDBFDEBF8C016B01B8
S1131BC04C835D83A22EB12C7C0181E1E80EF11CD3
S1131BD00FB6F8940F92F801828D882321F1E680E4
S1131BE0F780B601C80154DEA1100EC0F801828D41
S1131BF08150828F8085882391F0C801089606D48D
S1131C00813069F42EDD0BC0F801E682F782818908
S1131C10882329F0C8014196F9D3811122DD0F9060
S1131C200FBE81E045C08C819D81892B21F40F90EA
S1131C300FBE80E03DC0B11005C0CE0101962CD48A
S1131C40BB24B3940F900FBEC5D10FB6F8940F9276
S1131C50F801858D8F3F09F4158EF801868D8F3F2D
S1131C6009F4168E0F900FBEBE016C5F7F4FCE013C
S1131C7001961DD4811118C00FB6F8940F92F80183
S1131C80828D0F900FBE81110BC06C817D81C701C5
S1131C9089D3C80117DE81D281119ACFE2DC98CFB3
S1131CA0C80110DE7AD294CFC8010CDE76D280E06F
S1131CB02596CDBFDEBFDF91CF911F910F91FF908D
S1131CC0EF90DF90CF90BF90AF900895CF93DF93C4
S1131CD0EC010FB6F8940F928D8D8F3F09F41D8E91
S1131CE08E8D8F3F09F41E8E0F900FBE8A8D811149
S1131CF003C0CE01419670D3CE01E4DDDF91CF91D4
S1131D000895C5EED2E288818230F0F3AADCFBCFDD
S1131D10CF93DF93EC01E0911223F091132382839C
S1131D2093838091C3229091C422C817D90760F489
S1131D3060911223709113238091CF229091D0222D
S1131D406E5F7F4F7BDB16C060911223709113236B
S1131D508091D1229091D2226E5F7F4F6FDB809170
S1131D600D2090910E20C817D90720F4C0930D20A0
S1131D70D0930E20DF91CF9108954F925F926F928E
S1131D807F928F929F92AF92BF92CF92DF92EF9207
S1131D90FF920F931F93CF93DF934C01EB015A01F2
S1131DA02901C114D10431F4CA010DDD6C01892B60
S1131DB009F4D2C086E290E006DD3C01009779F098
S1131DC0FC01C78AD08EF1E0AF1AB108CA0CDB1C43
S1131DD08881F301818F8881811104C013C0C601F9
S1131DE0FFDCBAC0D3015A96FE0131969E01285FEA
S1131DF03F4FEF0181918D938881882319F02E172D
S1131E003F07B9F7F30110A2102F053008F014E0D2
S1131E10F301168BE3012296CE01EBDAC3010C9693
S1131E20E8DAF3016086718685E090E0811B910910
S1131E3084879587628A738A11A212A213A214A2BC
S1131E4015A2A201B401C60150DBF3018083918382
S1131E50E114F10419F0F701608271820FB6F8946D
S1131E600F928091C5228F5F8093C52280911223A7
S1131E7090911323892B91F560921223709213236E
S1131E808091C5228130C9F50F2EF5EEEF2EF2E2D6
S1131E90FF2EF02D0F2EF2E1CF2EF3E2DF2EF02DE8
S1131EA0C70199DAF9E0EF0EF11CEC14FD04C1F757
S1131EB08CED92E290DA83ED92E28DDA86EC92E296
S1131EC08ADA8CED92E28093D1229093D22283ED30
S1131ED092E28093CF229093D0220FC08091C122AE
S1131EE081110BC0E0911223F09113238689081706
S1131EF020F060921223709213238091BD228F5F91
S1131F008093BD22F30186899091C222981710F420
S1131F108093C22290E09C01220F331F220F331FB3
S1131F20220F331F820F931FBE018B519D4D65DA23
S1131F300F900FBE8091C122882351F0E0911223AB
S1131F40F09113238689801728F48BDB81E005C088
S1131F5081E003C081E001C08FEFDF91CF911F9139
S1131F600F91FF90EF90DF90CF90BF90AF909F9034
S1131F708F907F906F905F904F900895AF92BF9233
S1131F80CF92DF92EF92FF920F93A12CB12CC12C30
S1131F90D12CE12CF12C00E020E030E045E550E0CC
S1131FA06FE070E281E89EE0E8DE813059F419D3F5
S1131FB0813041F4F8948093C1221092C32210928C
S1131FC0C4220ADB0F91FF90EF90DF90CF90BF9077
S1131FD0AF9008958091BC228F5F8093BC220895B6
S1131FE00FB6F8940F928091C3229091C4220F905F
S1131FF00FBE0895DF92EF92FF920F931F93CF933A
S1132000DF938091BC228111B3C08091C32290914F
S1132010C42201968093C3229093C422E090C322E9
S1132020F090C422E114F10499F58091D1229091A9
S1132030D2222091CF223091D0222093D1223093EA
S1132040D2228093CF229093D0228091BE228F5FA0
S11320508093BE22E091D122F091D222808181111D
S113206007C08FEF9FEF80930D2090930E2010C038
S1132070E091D122F091D2220580F681E02D0680F4
S1132080F781E02D8281938180930D2090930E201F
S113209080910D2090910E20E816F90610F4D12CB1
S11320A04FC0D12CE091D122F091D22280818111B4
S11320B007C08FEF9FEF80930D2090930E2040C0B8
S11320C0E091D122F091D2220580F681E02DC681E3
S11320D0D7818A819B81E816F90628F480930D2024
S11320E090930E202DC08E010E5F1F4FC801D7D9CB
S11320F08C899D89892B19F0CE010C96D0D98E89B3
S11321009091C222981710F48093C22290E09C010F
S1132110220F331F220F331F220F331F820F931FEF
S1132120B8018B519D4D69D9E0911223F09113238D
S11321309E898689981708F4B5CFDD24D394B2CF4D
S1132140E0911223F0911323868990E0FC01EE0FB5
S1132150FF1FEE0FFF1FEE0FFF1F8E0F9F1FFC01CF
S1132160EB51FD4D8081823048F0DD24D39406C0CC
S11321708091C0228F5F8093C022D12C8091BF2296
S1132180882311F0DD24D3948D2DDF91CF911F91FD
S11321900F91FF90EF90DF900895DF92EF92FF92FE
S11321A00F931F93CF93DF930FB6F8940F92809100
S11321B0BC2281508093BC228091BC2281115DC0DD
S11321C08091C522811130C05BC0D7011596ED9175
S11321D0FC911697C681D781CE010C9660D98E01E9
S11321E00E5F1F4FC8015BD98E899091C222981748
S11321F010F48093C22290E09C01220F331F220F1F
S1132200331F220F331F820F931FB8018B519D4D33
S1132210F4D8E0911223F09113239E8986899817AC
S113222058F0D092BF2208C00F2EF6ECEF2EF2E247
S1132230FF2EF02DDD24D394F70180818111C5CFC9
S11322408091C022882391F08091C022882371F06C
S1132250C1E0D0DE8111C093BF228091C0228150A1
S11322608093C0228091C0228111F3CF8091BF223C
S1132270813029F4F6D981E003C080E001C080E018
S11322800F900FBEDF91CF911F910F91FF90EF90B0
S1132290DF900895CF93DF93EC01892B91F09ADEC0
S11322A08091C3229091C422C80FD91F8091122318
S11322B0909113230296F3D8CE012ADD6EDF8111AB
S11322C001C0CFD9DF91CF9108958091BC2288239A
S11322D021F081E08093BF2208951092BF22809163
S11322E0C22290E0FC01EE0FFF1FEE0FFF1FEE0F66
S11322F0FF1F8E0F9F1FFC01EB51FD4D808181114B
S113230017C08091C22281508093C2228091C22240
S113231090E0FC01EE0FFF1FEE0FFF1FEE0FFF1FFB
S11323208E0F9F1FFC01EB51FD4D8081882349F3E3
S11323308091C22290E09C01220F331F220F331F91
S1132340220F331F280F391FD901AB51BD4D1196F0
S1132350ED91FC9112970280F381E02D1196ED939B
S1132360FC93129728513D4DE217F30729F422817B
S11323703381FD0121833283FC01EE0FFF1FEE0F39
S1132380FF1FEE0FFF1F8E0F9F1FFC01EB51FD4D32
S11323900180F281E02D86819781809312239093AE
S11323A013230895CF93DF93EB016091122370916F
S11323B01323645F7F4F42D880911223909113239B
S11323C002966DD88091C3229091C4228C0F9D1FD8
S11323D09FDCDF91CF910895CF93DF93EB01609160
S11323E0122370911323645F7F4F07D880911223C7
S11323F090911323029653D88091C3229091C422C2
S11324008C0F9D1F85DCDF91CF9108950F931F934F
S1132410CF93DF93DC011596ED91FC911697C6815D
S1132420D7818E01045F1F4FC80139D88091BC2227
S113243081111BC00A501109C80131D88E899091AD
S1132440C222981710F48093C22290E09C01220FBC
S1132450331F220F331F220F331F820F931FB80124
S11324608B519D4D0E94FD0905C0B80186EC92E296
S11324700E94FD09E0911223F09113239E8986891D
S1132480891720F481E08093BF2201C080E0DF91AE
S1132490CF911F910F9108952091BE22FC012083BA
S11324A02091C3223091C422218332830895CF9393
S11324B0DF93FC010FB6F8940F922091C322309160
S11324C0C4228091BE229081981729F08181928143
S11324D028173907A8F4A181B281EB0148815981F9
S11324E0C9018A1B9B0B8417950760F4CF01A21BBB
S11324F0B30B4A0F5B1F48835983CEDF80E003C0D0
S113250081E001C081E00F900FBEDF91CF9108956B
S113251081E08093BF2208958091C122882331F005
S11325208091BC22882321F080E0089581E0089501
S113253082E00895FC016283738380879187461744
S1132540570790F0421B530B84859585481759070C
S1132550E0F4BF016E5F7F4F80911823909119239F
S11325600E941E0A80E008954217530718F4621768
S1132570730768F4BF016E5F7F4F80911A239091B7
S11325801B230E941E0A80E0089581E0089581E0E3
S113259008950FB6F8940F92809116239091172303
S11325A0892BE1F485E293E20E94EB098CE193E24A
S11325B00E94EB0985E293E280931A2390931B23F4
S11325C08CE193E2809318239093192340E065E013
S11325D08AE0F9D980931623909317230F900FBEA6
S11325E00895AF92BF92CF92DF92EF92FF920F9332
S11325F0D0DF8091162390911723892B89F0A12C89
S1132600B12CC12CD12CE12CF12C03E020E030E0E2
S113261045E550E064E170E289EC93E1AEDB01C092
S113262080E00F91FF90EF90DF90CF90BF90AF903C
S113263008950F931F93CF93DF93CDB7DEB72597FC
S1132640CDBFDEBFE0911623F0911723309751F1EF
S1132650D90169834A835B838C839D836630D4F478
S11326605BDF823059F420E0A801BE016F5F7F4F29
S11326708091162390911723CFD915C020E040E014
S113268050E0BE016F5F7F4F809116239091172316
S1132690C3D909C020E0AD01BE016F5F7F4FCF01F8
S11326A048DA01C080E02596CDBFDEBFDF91CF912F
S11326B01F910F910895AF92BF92CF92DF92EF9244
S11326C0FF920F931F93CF93DF936C0189DC7C01FE
S11326D08091142390911523E816F90608F047C059
S11326E02FC00580F681E02DA080B180C681D781FE
S11326F08E010E5F1F4FC8010E944F0AE989FA89B3
S1132700CE0119958E858130D9F48C859D858A0DED
S11327109B1DA816B90660F48A839B83C887D98752
S1132720B80180911A2390911B230E941E0A08C0AD
S113273000E010E020E030E0A50160E0CE0179DFA8
S1132740E0911A23F0911B2380818111CACF8091DB
S113275018239091192380931A2390931B23E093B9
S11327601823F093192381E0F601808302C0F60157
S11327701082E0921423F0921523C701DF91CF91C8
S11327801F910F91FF90EF90DF90CF90BF90AF908B
S11327900895CF93DF9300D000D0CDB7DEB7CE013C
S11327A001965C01E82EFB2CE0911A23F0911B2387
S11327B08081882309F4B7C00580F681E02DC080AC
S11327C0D18008DCC50177DF8C018981811143C088
S11327D00C151D0590F1E1DCE0911A23F0911B2307
S11327E00580F681E02D86809780C40102960E94C0
S11327F04F0AD4011E968C911E978130A1F41C9629
S11328006D917C911D976C0D7D1D9601A801C401ED
S113281091DE813041F400E010E020E030E0A601D8
S113282060E0C40106DFD4015196ED91FC9152970A
S1132830C40119956BC0C12CD12CB601601B710B5E
S1132840809116239091172341DAA7DC81115EC091
S11328500E94310B5BC0A1DC59C0898188230CF430
S113286055C0CC80DD80F60182859385892B21F0CB
S1132870C60102960E944F0ACE0106961CDFAC01E7
S11328808981082E000C990BAA0BBB0B8A30910589
S113289008F03CC0FC018827E250FF4F8F4F15C35E
S11328A02A813B81D6011C966D917C911D97620F04
S11328B0731FC6013FDE813049F5D6015196ED9173
S11328C0FC915297C6011995F60186858130F1F481
S11328D04A815B8184859585480F591F00E010E08B
S11328E020E030E060E0C601A4DE10C06A817B8194
S11328F0D6011C966D937C931D97640F751F9A01E6
S1132900C60118DE03C0C6010E94F00B20E040E0BF
S113291050E06E2D7F2D80911623909117233FD97F
S113292081119BCF41CF56DBC501C5DE8C01898166
S1132930882309F480CF8FCF04C0615071098109C5
S113294091096115710581059105B9F708950E94F2
S1132950FF0480E1809385060F2EFFE3EF2EF0E263
S1132960FF2EF02D6894552457F8C4E3D3E209E40C
S113297010E20F2EFBE28F2EF0E29F2EF02D0F2E91
S1132980F0E3AF2EF0E2BF2EF02D0F2EFCE1CF2EA0
S1132990F0E2DF2EF02D0F2EF2E26F2EF0E27F2E0A
S11329A0F02D20E04FEF5FEF60E070E08091B62300
S11329B09091B723F4D8813009F049C026E030E281
S11329C048E060E086E390E20E947306809133233E
S11329D0811103C0862D972D02C08C2D9D2D26E0DC
S11329E030E248E062E30E94730680913223811151
S11329F003C08A2D9B2D02C0882D992D9F938F9300
S1132A00FF92EF921F925F92DF93CF93AAD326E0B7
S1132A1030E240E160E0CE010E94730680912F23F2
S1132A20909130239F938F931F930F931F925F92E4
S1132A30DF93CF9396D326E030E248E160E0CE0105
S1132A400E9473068DB79EB740968DBF9EBF82E3EA
S1132A5090E020DCA6CFC0E0D8E00F2EF5E4EF2E06
S1132A60FF24F394F02D0BE410E080912E238823AF
S1132A7069F0E8A6F9A68CED95E00CDC08A719A787
S1132A8010922E2310922F231092302382E390E091
S1132A9001DCEBCF1092A7088CE08093A60810927B
S1132AA0A30883E08093A50888E18093A40808958F
S1132AB0E1EAF8E080818823ECF76BE07AE180E0DA
S1132AC090E03ADF8091A0080895CF92DF92EF92D0
S1132AD0FF920F931F93CF93DF936C018C01C0E09F
S1132AE0D0E07B0181E0E81AF108E2DF8A3019F0D6
S1132AF0CE15DF0524F0CC0DDD1D188205C021960E
S1132B00F80181938F01F1CFDF91CF911F910F9144
S1132B10FF90EF90DF90CF900895E0E4F6E080819D
S1132B2081608083E0E0F8E024E0208393E19183F6
S1132B3048E853E146A357A34BE450E040A751A70C
S1132B40E0E6F6E0808181608083E0E0F9E02083C4
S1132B50918388EE93E086A397A310A611A6089507
S1132B6010922809109229098BE490E08093280898
S1132B7090932908E0EEF7E081E0858382E0858385
S1132B8010922F23109230230895CF93DF93CDB763
S1132B90DEB7C058D109CDBFDEBF6894FF24F7F873
S1132BA08E010F5F1F4FEE24E394F8018F2D1192D5
S1132BB08A95E9F760E870E0C80187DF67E570E2AD
S1132BC0C801B5D2892B31F0E0922E231092312323
S1132BD0C7DF08C064E670E2C801A9D2892B11F0EE
S1132BE010922E2326E030E240E260E0C8010E9409
S1132BF0730682E390E04EDBD8CFBB24B39400E0AD
S1132C0019E00F2EF4EFCF2EDD24D394F02DC0EE77
S1132C10D7E06894AA24A1F80F2EF0E2EF2EF3E097
S1132C20FF2EF02D20E04FEF5FEF60E070E0809129
S1132C30B4239091B5230E94CF0D8130C1F5B09299
S1132C40312310922F231092302380913123882333
S1132C5049F180913323882329F180912F23909186
S1132C6030230A9734F4F801C0A6D1A6BE82AE82FE
S1132C7005C0F801E0A6F1A6BF82AF8280912F23A0
S1132C8090913023019680932F239093302382E3F5
S1132C9090E000DB80913123882321F0809133235D
S1132CA08111DBCF5DDF10922F231092302382E35A
S1132CB090E0F0DAB7CFC0EAD6E011E0888581FD74
S1132CC018C0809133238127809333238091332349
S1132CD0811101C045DF20E040E050E060E070E099
S1132CE08091B6239091B7230E940C0D84E690E066
S1132CF0D1DA888582FD11C01092312331DF20E0C2
S1132D0040E050E060E070E08091B6239091B723FA
S1132D100E940C0D84E690E0BDDA82E390E0BADA1A
S1132D20CDCF809188068095817080933223089559
S1132D30809133238823A1F0F4DF80913223811121
S1132D400FC080912E2381110BC020E040E050E0A1
S1132D5060E070E08091B4239091B5230E940C0D43
S1132D6082E390E097DAE4CFAF92BF92CF92DF9202
S1132D70EF92FF920F93CF93DF930E94380787E07F
S1132D808093A2000E94FF04C0E8D6E080E18D8316
S1132D9026E030E240E060E082E790E20E947306C1
S1132DA043E060E081E00E94E30C8093B4239093BD
S1132DB0B52343E060E081E00E94E30C8093B623F6
S1132DC09093B72367DEA9DEE0EAF6E086E082832B
S1132DD082E0818B828B81E08A8388E1888BA12CBD
S1132DE0B12CC12CD12CE12CF12C04E020E030E0FA
S1132DF048EE53E06AE770E28BE596E10E94BD0E6F
S1132E0003E020E030E048EE53E065E870E288E952
S1132E1096E10E94BD0E02E020E030E048EE53E06F
S1132E206FE870E28DEF95E10E94BD0E20E030E086
S1132E3048EE53E06CE970E28BE295E10E94BD0E2E
S1132E4001E020E030E048EE53E069EA70E285EC0E
S1132E5095E10E94BD0E00E020E030E048EE53E032
S1132E6062EB70E287EA94E10E94BD0E87D880E0AD
S1132E7090E0DF91CF910F91FF90EF90DF90CF9092
S1132E80BF90AF900895A1E21A2EAA1BBB1BFD01AF
S1132E900DC0AA1FBB1FEE1FFF1FA217B307E40735
S1132EA0F50720F0A21BB30BE40BF50B661F771F8D
S1132EB0881F991F1A9469F760957095809590956D
S1132EC09B01AC01BD01CF010895EE0FFF1F881FC8
S1132ED08BBF0790F691E02D19940F931F93CF9316
S1132EE0DF938230910510F482E090E0E091BA2300
S1132EF0F091BB2320E030E0A0E0B0E0309719F17E
S1132F00408151810281138148175907C8F0841701
S1132F10950769F4109731F012960C931297139653
S1132F201C9327C00093BA231093BB2322C02115FE
S1132F30310519F04217530718F49A01BD01EF0146
S1132F40DF01F801DBCF21153105F9F0281B390B1E
S1132F502430310580F48A819B816115710521F04B
S1132F60FB018283938304C08093BA239093BB2391
S1132F70FE01329644C0FE01E20FF31F8193919348
S1132F8022503109288339833AC02091B8233091E3
S1132F90B923232B41F42091022030910320209364
S1132FA0B8233093B92320910020309101202115BA
S1132FB0310541F42DB73EB74091042050910520CE
S1132FC0241B350BE091B823F091B923E217F307E2
S1132FD0A0F42E1B3F0B2817390778F0AC014E5F85
S1132FE05F4F2417350748F04E0F5F1F4093B823F7
S1132FF05093B9238193919302C0E0E0F0E0CF01B4
S1133000DF91CF911F910F910895CF93DF93009794
S113301009F481C0FC01329712821382A091BA2371
S1133020B091BB23109781F420813181820F931FCB
S11330302091B8233091B9232817390751F5E0932B
S1133040B823F093B92367C0ED0120E030E0CE1738
S1133050DF0740F44A815B819E0141155105F1F07F
S1133060EA01F5CFC283D38340815181840F951F38
S1133070C817D90759F488819981840F951F02963E
S1133080808391838A819B81828393832115310577
S113309029F4E093BA23F093BB233DC0E901EA830A
S11330A0FB8349915991C40FD51FEC17FD0761F4B7
S11330B080819181840F951F0296E9018883998309
S11330C0828193818A839B83E0E0F0E012968D9164
S11330D09C911397009719F0FD01DC01F7CF8D91B6
S11330E09C9111979D012E5F3F4F820F931F20915A
S11330F0B8233091B9232817390769F4309729F494
S11331001092BA231092BB2302C012821382A0939E
S1133110B823B093B923DF91CF910895FB01DC016B
S113312002C001900D9241505040D8F70895FB0120
S113313051915523A9F0BF01DC014D91451741116F
S1133140E1F759F4CD010190002049F04D9140156B
S11331504111C9F3FB014111EFCF81E090E00197E8
S113316008950F931F93CF93DF93CDB7DEB72E97B8
S1133170CDBFDEBF0E891F89888D998D26E02C83F3
S113318009831A8397FF02C080E090E801978D833A
S11331909E83AE01445E5F4F6A8D7B8DCE010196A6
S11331A016D04D815E8157FD0AC02F8138854217A4
S11331B053070CF49A01F801E20FF31F10822E96C4
S11331C0CDBFDEBFDF91CF911F910F9108952F9254
S11331D03F924F925F926F927F928F929F92AF92A3
S11331E0BF92CF92DF92EF92FF920F931F93CF93F0
S11331F0DF93CDB7DEB72B97CDBFDEBF6C017B016C
S11332008A01FC0116821782838181FFBFC1CE012E
S113321001963C01F6019381F70193FD859193FF9B
S113322081917F01882309F4ADC1853239F493FD7E
S1133230859193FF81917F01853221F4B60190E05D
S1133240D3D1E8CF912C212C312CFFE1F315D8F008
S11332508B3279F038F4803279F08332A1F4232D63
S113326020611DC08D3261F0803369F4232D21600B
S113327016C0832D8260382EE32DE4603E2E2AC0D2
S1133280F32DF8601DC037FC2DC020ED280F2A3027
S113329040F08E32B9F436FC75C1232D2064322EF1
S11332A019C036FE06C08AE0989E200D1124922E85
S11332B011C0EAE02E9E200D1124222EF32DF0627F
S11332C03F2E08C08C3621F4832D8068382E02C02E
S11332D0883641F4F70193FD859193FF81917F0135
S11332E08111B3CF982F9F7D9554933028F40C5FB0
S11332F01F4F9FE399830DC0833631F0833771F0FC
S1133300833509F055C020C0F801808189830E5FA0
S11333101F4F88248394912C530112C02801F2E09A
S11333204F0E511CF801A080B18036FE03C0692DF8
S113333070E002C06FEF7FEFC5014BD14C018201F9
S1133340F32DFF773F2E15C0280122E0420E511CB9
S1133350F801A080B18036FE03C0692D70E002C080
S11333606FEF7FEFC5012AD14C01F32DF0683F2E9A
S1133370820133FC19C0822D90E088169906A0F4CE
S1133380B60180E290E030D12A94F5CFF50137FC04
S1133390859137FE81915F01B60190E025D121101E
S11333A02A9421E0821A91088114910479F7E1C0EA
S11333B0843611F0893639F5F80137FE07C060818B
S11333C07181828193810C5F1F4F08C0608171817C
S11333D0072E000C880B990B0E5F1F4FF32DFF7601
S11333E03F2E97FF09C090958095709561957F4F0A
S11333F08F4F9F4FF0683F2E2AE030E0A30130D179
S1133400882E861844C0853731F4232D2F7EB22EA2
S11334102AE030E025C0932D997FB92E8F36C1F074
S113342018F4883579F0AEC0803719F0883721F068
S1133430A9C0E92FE061BE2EB4FE0DC0FB2DF460DF
S1133440BF2E09C034FE0AC0292F2660B22E06C042
S113345028E030E005C020E130E002C020E132E0A5
S1133460F801B7FE07C060817181828193810C5F8E
S11334701F4F06C06081718180E090E00E5F1F4F96
S1133480A301EED0882E8618FB2DFF773F2E36FE43
S11334900DC0232D2E7FA22E891458F434FE0BC0A8
S11334A032FC09C0832D8E7EA82E05C0B82CA32C17
S11334B003C0B82C01C0B92CA4FE0FC0FE01E80D56
S11334C0F11D8081803321F49A2D997EA92E09C0A3
S11334D0A2FE06C0B394B39404C08A2D867809F082
S11334E0B394A3FC10C0A0FE06C0B21480F4280C50
S11334F0922C9B180DC0B21458F4B60180E290E0EF
S113350073D0B394F8CFB21418F42B1802C0982CCB
S1133510212CA4FE0FC0B60180E390E065D0A2FE8A
S113352016C0A1FC03C088E790E002C088E590E0E3
S1133530B6010CC08A2D867851F0A1FE02C08BE240
S113354001C080E2A7FC8DE2B60190E04DD0891461
S113355030F4B60180E390E047D09A94F8CF8A948F
S1133560F301E80DF11D8081B60190E03DD081109A
S1133570F6CF222009F44ECEB60180E290E034D09A
S11335802A94F7CFF6018681978102C08FEF9FEFCF
S11335902B96CDBFDEBFDF91CF911F910F91FF908E
S11335A0EF90DF90CF90BF90AF909F908F907F90DF
S11335B06F905F904F903F902F900895FC0105907D
S11335C0615070400110D8F7809590958E0F9F1F21
S11335D00895FC016150704001900110D8F7809566
S11335E090958E0F9F1F08950F931F93CF93DF9392
S11335F0FB01238121FD03C08FEF9FEF2CC022FF2D
S113360016C046815781248135814217530744F4FB
S1133610A081B1819D012F5F3F4F208331838C9323
S1133620268137812F5F3F4F2683378314C08B0158
S1133630EC01FB010084F185E02D1995892BE1F65D
S1133640D80116968D919C911797019616968D9395
S11336509C931797CE01DF91CF911F910F910895FD
S1133660FA01AA27283051F1203181F1E8946F93AF
S11336706E7F6E5F7F4F8F4F9F4FAF4FB1E03ED055
S1133680B4E03CD0670F781F891F9A1FA11D680FF3
S1133690791F8A1F911DA11D6A0F711D811D911D26
S11336A0A11D20D009F468943F912AE0269F11249B
S11336B03019305D3193DEF6CF010895462F4770FF
S11336C0405D4193B3E00FD0C9F7F6CF462F4F705A
S11336D0405D4A3318F0495D31FD4052419302D0B8
S11336E0A9F7EACFB4E0A69597958795779567955E
S11336F0BA95C9F700976105710508959B01AC015E
S11337000A2E06945795479537952795BA95C9F784
S1133710620F731F841F951FA01D0895F894FFCF97
S11337200000BC2320000010020607207DFFFF4993
S1133730444C4500546D722053766300416B7469A8
S113374066004E6F6E616B7469660042756B610052
S113375054757475700053697374656D3A20005024
S1133760696E74753A20257300436F756E746572C3
S11337703A2025303264004143434553533A2054A0
S1133780525545004143434553533A2046414C5317
S113379045005369736E616D2B00507573684275F3
S11337A074746F6E00436865636B446F6F7200419D
S11337B06C61726D436F6E74726F6C0053657276D8
S11337C06F436F6E74726F6C005541525454617341
S10D37D06B00446973706C617900AA
S9030000FC
