S01A000073697374656D5F616C61726D5F70696E74752E737265637A
S113000050C200006FC200006DC200006BC200004D
S113001069C2000067C2000065C2000063C200003C
S113002061C200005FC200005DC200005BC200004C
S113003059C2000057C200000C94BD0D53C2000009
S113004051C200004FC200004DC200004BC200006C
S113005049C2000047C2000045C2000043C200007C
S113006041C200003FC200003DC200003BC200008C
S113007039C2000037C2000035C2000033C200009C
S113008031C200002FC200002DC200002BC20000AC
S113009029C2000027C2000025C2000023C20000BC
S11300A021C200001FC200001DC200001BC20000CC
S11300B019C2000017C2000015C2000013C20000DC
S11300C011C200000FC200000DC200000BC20000EC
S11300D009C2000007C2000005C2000003C20000FC
S11300E001C20000FFC10000FDC10000FBC100000F
S11300F0F9C10000F7C10000F5C10000F3C1000020
S1130100F1C10000EFC10000EDC10000EBC100002F
S1130110E9C10000E7C10000E5C10000E3C100003F
S1130120E1C10000DFC10000DDC10000DBC100004F
S1130130D9C10000D7C10000D5C10000D3C100005F
S1130140D1C10000CFC10000CDC10000CBC100006F
S1130150C9C10000C7C10000C5C10000C3C100007F
S1130160C1C10000BFC10000BDC10000BBC100008F
S1130170B9C10000B7C10000B5C10000B3C100009F
S1130180B1C10000AFC10000ADC10000ABC10000AF
S1130190A9C10000A7C10000A5C10000A3C10000BF
S11301A0A1C100009FC100009DC100009BC10000CF
S11301B099C1000097C1000095C1000093C10000DF
S11301C091C100008FC100008DC100008BC10000EF
S11301D089C1000087C1000085C1000083C10000FF
S11301E081C100007FC100007DC100007BC100000F
S11301F079C1000077C1000075C100009017901705
S11302009017C617B617C31790179017C617B617C7
S1130210000000000000002020202020002050507A
S113022050000000005050F850F850502078A07052
S113023028F020C0C810204098186090A040A890D2
S11302406860204000000000102040404020104022
S1130250201010102040005020F8205000002020D2
S1130260F820200000000000602040000000F8009A
S113027000000000000000606000081020408000C2
S1130280708898A8C888702060202020207070880A
S113029008102040F8F81020100888701030509092
S11302A0F81010F880F008088870304080F08888D2
S11302B070F80810204040407088887088887070FA
S11302C088887808106000606000606000006060EA
S11302D000602040081020402010080000F800F8BA
S11302E000008040201020408070880810200020EA
S11302F070880868A8A87070888888F88888F0884A
S113030088F08888F070888080808870E090888881
S11303108890E0F88080F08080F8F88080E0808029
S11303208070888080988870888888F88888887029
S1130330202020202070381010101090608890A089
S1130340C0A09088808080808080F888D8A8888821
S113035088888888C8A898888870888888888870D9
S1130360F08888F080808070888888A89068F088F9
S113037088F0A09088788080700808F0F820202009
S11303802020208888888888887088888888885071
S113039020888888A8A8D888888850205088888889
S11303A0885020202020F80810204080F838202091
S11303B02020203800804020100800E02020202049
S11303C020E020508800000000000000000000F839
S11303D040201000000000000070087888788080B9
S11303E0B0C88888F0000070808088700808689819
S11303F088887800007088F88070304840E0404079
S113040040000078887808308080B0C888888820C8
S11304100060202020701000301010906040404890
S113042050605048602020202020700000D0A8A8F0
S113043088880000B0C88888880000708888887020
S11304400000F088F08080000068987808080000B8
S1130450B0C8808080000070807008F04040E040A8
S11304604048300000888888986800008888885050
S11304702000008888A8A8500000885020508800D8
S11304800088887808700000F8102040F8102020B8
S11304904020201020202020202020402020102038
S11304A0204011241FBECFEFCDBFDFE5DEBF00E04B
S11304B00CBF11E2A0E0B0E2EAE4F0E400E00BBF1C
S11304C002C007900D92AE3BB107D9F724E2AEEB20
S11304D0B1E201C01D92A93CB207E1F70E94531B8F
S11304E00C9423208DCD04C06150710981099109B8
S11304F06115710581059105B9F70895BF92CF92F1
S1130500DF92EF92FF920F931F93CF93DF931F928B
S1130510CDB7DEB700E016E06894FF24F3F8F801E5
S1130520F68264E070E080E090E0DDDFF801F582BF
S113053064E070E080E090E0D6DF0F2EFBE2BF2E97
S1130540F02DB98280EA99E02ED4C12CD12C760109
S113055000E412E42FE030E043E0BE016F5F7F4F20
S113056080EA99E04FD400E616E0FF24F394F80102
S1130570F682B982BE016F5F7F4F80EA99E05CD456
S1130580F801F682E0EAF9E0818185FFFDCF80EA97
S11305908093A009E0EAF9E0818186FFFDCFE0EADB
S11305A0F9E080E481838081BE016F5F7F4F80EA40
S11305B099E058D48BE28983BE016F5F7F4F80EA54
S11305C099E03AD481E080936606E0EAF9E081811B
S11305D085FFFDCF86EA8093A009E0EAF9E08181F6
S11305E086FFFDCFE0EAF9E080E481838081BE01EB
S11305F06F5F7F4F80EA99E035D48BE28983BE0137
S11306006F5F7F4F80EA99E017D481E0809366069C
S1130610E0EAF9E0818185FFFDCF88EC8093A009B1
S1130620E0EAF9E0818186FFFDCFE0EAF9E080E4C9
S113063081838081BE016F5F7F4F80EA99E012D48D
S11306408BE28983BE016F5F7F4F80EA99E0F4D328
S113065081E080936606E0EAF9E0818185FFFDCFC1
S113066082EA8093A009E0EAF9E0818186FFFDCF68
S1130670E0EAF9E080E481838081BE016F5F7F4F0F
S113068080EA99E0EFD38BE28983BE016F5F7F4FED
S113069080EA99E0D1D381E080936606E0EAF9E04C
S11306A0818185FFFDCF8FE28093A009E0EAF9E024
S11306B0818186FFFDCFE0EAF9E080E481838081D7
S11306C0BE016F5F7F4F80EA99E0CCD38BE28983D0
S11306D0BE016F5F7F4F80EA99E0AED381E08093E3
S11306E06606E0EAF9E0818185FFFDCF88EF80931B
S11306F0A009E0EAF9E0818186FFFDCFE0EAF9E0B4
S113070080E481838081BE016F5F7F4F80EA99E03E
S1130710A9D38BE28983BE016F5F7F4F80EA99E0A2
S11307208BD381E080936606E0EAF9E0818185FF5E
S1130730FDCF1092A009E0EAF9E0818186FFFDCFA8
S1130740E0EAF9E080E481838081BE016F5F7F4F3E
S113075080EA99E087D38BE28983BE016F5F7F4F84
S113076080EA99E069D381E080936606E0EAF9E0E3
S1130770818185FFFDCF81E28093A009E0EAF9E061
S1130780818186FFFDCFE0EAF9E080E48183808106
S1130790BE016F5F7F4F80EA99E064D38BE2898367
S11307A0BE016F5F7F4F80EA99E046D381E080937A
S11307B06606E0EAF9E0818185FFFDCF81E8809358
S11307C0A009E0EAF9E0818186FFFDCFE0EAF9E0E3
S11307D080E481838081BE016F5F7F4F80EA99E06E
S11307E041D38BE28983BE016F5F7F4F80EA99E03A
S11307F023D381E080936606E0EAF9E0818185FFF6
S1130800FDCF81E28093A009E0EAF9E0818186FFCF
S1130810FDCFE0EAF9E080E481838081BE016F5F6F
S11308207F4F80EA99E01ED38BE28983BE016F5F1C
S11308307F4F80EA99E000D381E080936606E0EA86
S1130840F9E0818185FFFDCF8FEA8093A009E0EA7A
S1130850F9E0818186FFFDCFE0EAF9E080E481835D
S11308608081BE016F5F7F4F80EA99E0FBD20F90D9
S1130870DF91CF911F910F91FF90EF90DF90CF9078
S1130880BF9008958FEF80937000809371008093E0
S1130890720080937300809374008093750080933A
S11308A076000895CF93DF931F92CDB7DEB79FB73D
S11308B09983F8949981E82FF0E0E059FF4F60950F
S11308C08081682360839FBF0F90DF91CF9108954B
S11308D0FF920F931F93CF93DF931F92CDB7DEB791
S11308E0082FF62E142F1AD10F70006B8BE2898318
S11308F0BE016F5F7F4F80EA99E09ED281E08093D2
S11309006606E0EAF9E0918195FFFDCF0093A00926
S1130910E0EAF9E0818186FFFDCFE0EAF9E080E4D6
S113092081838081BE016F5F7F4F80EA99E09AD214
S11309300F2D0F7702950F7000618BE28983BE0142
S11309406F5F7F4F80EA99E077D281E080936606FB
S1130950E0EAF9E0818185FFFDCF0093A009E0EA98
S1130960F9E0818186FFFDCFE0EAF9E080E481834C
S11309708081BE016F5F7F4F80EA99E073D20F2DB3
S11309800F708BE28983BE016F5F7F4F80EA99E02D
S113099053D281E080936606E0EAF9E0818185FF25
S11309A0FDCF0093A009E0EAF9E0818186FFFDCF45
S11309B0E0EAF9E080E481838081BE016F5F7F4FCC
S11309C080EA99E04FD28BE28983BE016F5F7F4F4B
S11309D080EA99E031D281E080936506E0EAF9E0AB
S11309E0818185FFFDCF1093A009E0EAF9E08181C0
S11309F086FFFDCFE0EAF9E080E48183808181E035
S1130A0080936606BE016F5F7F4F80EA99E02AD229
S1130A100F90DF91CF911F910F91FF9008950F9345
S1130A201F93CF93DF931F92CDB7DEB78EEB91E286
S1130A3070D064DD8BE28983BE016F5F7F4F80EAF3
S1130A4099E0FAD181E080936606E0EAF9E08181D9
S1130A5085FFFDCF80E48093A009E0EAF9E081817D
S1130A6086FFFDCFE0EAF9E080E481838081BE0166
S1130A706F5F7F4F80EA99E0F5D100E00AC040E063
S1130A80612F802F25DF1F5F1038C9F70F5F0430F7
S1130A9011F010E0F4CF0F90DF91CF911F910F91DF
S1130AA00895FF920F931F93CF93DF9388234CF104
S1130AB0603238F5D42FC82FF62EF694F694F694B7
S1130AC070E088E0F89E60197109112481E090E0DB
S1130AD08C0102C0000F111F6A95E2F76C2F8F2D55
S1130AE02BD0D13021F028F0D23031F006C0802B49
S1130AF004C00095802301C08027482F6C2F8F2DC0
S1130B00E7DEDF91CF911F910F91FF90089514C0FC
S1130B1008958093BE239093BF2308952091BE230C
S1130B203091BF2390E8899F200D311D1124F901D4
S1130B30E60FF11D408308952091BE233091BF2319
S1130B4090E8899F200D311D1124F901E60FF11D54
S1130B5080810895FF920F931F93CF93DF93E42F27
S1130B60F0E0E80FF11DE138F1051CF0C0E84C2F6E
S1130B70481B442309F44AC0D62FD695D695D6955A
S1130B8070E098E0D99F601971091124E1E0F0E068
S1130B90DF0102C0AA0FBB1F6A95E2F7FA2E2130CB
S1130BA021F098F0223019F131C0C42F1FEF180F33
S1130BB0012F0C0F602F8D2FAADF4F2D482B602F94
S1130BC08D2F86DEC150A1F721C0C42F1FEF180F4F
S1130BD0FA2EF094012F0C0F602F8D2F98DF4F2DDC
S1130BE04823602F8D2F74DEC150A1F70FC0C42F8E
S1130BF01FEF180F012F0C0F602F8D2F88DF4F2D43
S1130C004827602F8D2F64DEC150A1F7DF91CF916B
S1130C101F910F91FF900895FF920F931F93CF930D
S1130C20DF93222369F0F42E182FC22FDFEFD60FA3
S1130C306D2F6C0F202F4F2D812F8CDFC150C1F7EA
S1130C40DF91CF911F910F91FF900895AF92BF92C2
S1130C50CF92DF92EF92FF920F931F93CF93DF9384
S1130C60C82FE62EB42E690100E0F90124814381E6
S1130C706B2D8E2DD1DFF6018081811139C08381E6
S1130C80282F269526952695877009F02F5FF60163
S1130C90A4808C2F90E03581831B91092A9D9001BB
S1130CA01124829FA001839F500D929F500D112407
S1130CB001811281040F151FF601F380FF20A1F0BA
S1130CC0D0E0C0E08E2D8C0F9C2F977021F4F8019A
S1130CD0D4910F5F1F4FDD231CF441E06B2DE1DE47
S1130CE0DD0FCF5FFC12EECFB394AA94A110E4CF32
S1130CF0DF91CF911F910F91FF90EF90DF90CF90F4
S1130D00BF90AF900895DF92EF92FF920F931F93DD
S1130D10CF93DF93D62E042F7901EC01162F8991FE
S1130D208A3031F4F70184818F5F080F1D2D09C0CB
S1130D308D3039F09701402F612F88DFF7018381CF
S1130D40180F88818111EBCFDF91CF911F910F9103
S1130D50FF90EF90DF900895CF93DF93FC0120E0A4
S1130D6030E0C62FD0E0DE01022E02C0B595A79573
S1130D700A94E2F7A0FD508B2F5F3F4F3196283045
S1130D80310589F740FF0AC041FF03C0FC016583B8
S1130D9002C0FC016683FC01618302C0FC01628322
S1130DA0DF91CF910895803A28E0920721F460E121
S1130DB083E078CD0895803B28E0920721F460E237
S1130DC083E070CD0895803A29E0920721F460E130
S1130DD084E068CD0895803B29E0920721F460E225
S1130DE084E060CD0895803A2AE0920721F460E11E
S1130DF085E058CD0895803A9B4019F460E186E07F
S1130E0051CD08950F931F93CF93DF9300D000D05B
S1130E10CDB7DEB709831A832B833C834D831E82AF
S1130E20BE016F5F7F4F27D32696CDBFDEBFDF9114
S1130E30CF911F910F910895FB018081E82FE695D2
S1130E40E695E69540E2E49FF0011124FA5F87708D
S1130E5021E030E0A90102C0440F551F8A95E2F752
S1130E6046830895FB018081E82FE695E695E69593
S1130E7040E2E49FF0011124FA5F877021E030E042
S1130E80A90102C0440F551F8A95E2F745830895CE
S1130E9043E050E061E080EE97E05EDF43E050E045
S1130EA062E080EE97E058DF43E050E060E180E6E6
S1130EB096E052DF41E050E460E280E696E04CDFE9
S1130EC040E05BE160E280E896E046DF40E05BE121
S1130ED062E080EA96E040DF40E05BE164E080EAC3
S1130EE096E03ADF43E050E062E080E696E034DFEB
S1130EF043E050E068E080E696E02EDF43E050E017
S1130F0068E080EA96E028DF43E050E061E080E6B4
S1130F1096E022DF43E050E068E080E096E01CDFEA
S1130F2041E050E060E180E896E016DF43E050E005
S1130F3062E080E696E010DF43E050E068E080E69F
S1130F4096E00ADF40E050E064E080E696E004DFEB
S1130F5043E050E060E180EA96E0FEDE40E050E0ED
S1130F6061E080E096E0F8DE40E050E064E080E09C
S1130F7096E0F2DE40E050E062E080E296E0ECDEF3
S1130F8043E050E068E080E496E0E6DE40E050E0D4
S1130F9064E080E496E0E0DE43E050E068E080E670
S1130FA096E0DADE40E050E064E080E696E0D4DEED
S1130FB043E050E068E080E896E0CEDE40E050E0B8
S1130FC064E080E896E0C8CE08954F925F926F92F5
S1130FD07F928F929F92AF92BF92EF92FF920F9364
S1130FE01F93CF937C014A015B0128013901FC0165
S1130FF0848182FF16C0D901C801689412F8B6959D
S1131000A795979587951694D1F7B901A801032E52
S113101036E176956795579547953A95D1F7302DF2
S113102015C0D901C801689413F8B695A79597958A
S113103087951694D1F7B901A801032E37E1769567
S11310406795579547953A95D1F7302D88159905A9
S1131050AA05BB0508F4A6C084169506A606B7061D
S113106008F4A2C0F701848182FD04C0880C991C95
S1131070AA1CBB1CC301B201A50194010E94CF1B91
S11310802F3F31054105510508F490C08FEF90E0E2
S1131090A0E0B0E0C9EF05C0281739074A075B078D
S11310A058F0880F991FAA1FBB1FCD3F0CF4816015
S11310B0CF5FC73089F74FC0CC230CF04CC0D501AB
S11310C0C401880F991FAA1FBB1F880F991FAA1F4D
S11310D0BB1F880F991FAA1FBB1F481A590A6A0A07
S11310E07B0ACE3FF4F48DEF9FEF8C1B9109C7FD73
S11310F0939504C0440C551C661C771C8A95D2F742
S1131100D501C401B695A79597958795BC01CD01E6
S1131110640D751D861D971DA50194010E94CF1BAA
S113112037C083E08C0FA501940104C0220F331F44
S1131130441F551F8A95D2F7DA01C901B695A795C0
S113114097958795BC01CD01640D751D861D971D6E
S11311500E94CF1B1DC083E08C0FA501940104C025
S1131160220F331F441F551F8A95D2F7DA01C90194
S1131170B695A79597958795BC01CD01640D751D0E
S1131180861D971D0E94CF1B215031094109510929
S1131190832F8F70C295C07FC82BF701C783268326
S11311A081E018C080E016C080E014C0D501C401FD
S11311B0880F991FAA1FBB1F880F991FAA1FBB1F47
S11311C0880F991FAA1FBB1F481A590A6A0A7B0A6B
S11311D0C9EF89CFCF911F910F91FF90EF90BF90EE
S11311E0AF909F908F907F906F905F904F900895F5
S11311F00F931F93CF93DF93EC018B01009709F4B6
S1131200E6C0803C910521F460E180E04BDBDFC067
S1131210C03881E0D80721F462E080E043DBD7C026
S1131220C115E1E0DE0721F461E080E03BDBCFC0E3
S1131230C038F3E0DF0721F461E081E033DBC7C0AD
S1131240C03983E0D80721F461E082E02BDBBFC022
S1131250C115E2E0DE0721F462E081E023DBB7C0E0
S1131260C034F2E0DF0721F462E082E01BDBAFC0B0
S1131270C03283E0D80721F464E082E013DBA7C026
S1131280C115E8E0DE0721F461E083E00BDB9FC0D9
S1131290C115F9E0DF0721F461E084E003DB97C0C6
S11312A0C1158AE0D80721F461E085E0FBDA8FC03C
S11312B0C115EBE0DE0721F461E086E0F3DA87C0D4
S11312C0C034F8E0DF0721F462E083E0EBDA7FC0AA
S11312D0C03489E0D80721F462E084E0E3DA77C01F
S11312E0C034EAE0DE0721F462E085E0DBDA6FC0B7
S11312F0C039F8E0DF0721F464E083E0D3DA67C0A3
S1131300C03989E0D80721F464E084E0CBDA5FC017
S1131310C039EAE0DE0721F464E085E0C3DA57C0AF
S1131320C039FBE0DF0721F464E086E0BBDA4FC09C
S1131330C03C88E0D80721F468E083E0B3DA47C012
S1131340C03CE9E0DE0721F468E084E0ABDA3FC0AA
S1131350C03AF8E0DF0721F460E183E0A3DA37C0A4
S1131360C03A89E0D80721F460E184E09BDA2FC019
S1131370C03AEAE0DE0721F460E185E093DA27C0B1
S1131380C03AFBE0DF0721F460E186E08BDA1FC09E
S1131390C03B88E0D80721F460E283E083DA17C019
S11313A0C03BE9E0DE0721F460E284E07BDA0FC0B1
S11313B0C038F4E0DF0721F460E483E073DA07C0A7
S11313C0C03A84E0D80719F460E485E06BDA8D81D3
S11313D08F738D83F80195818481892B9681911176
S11313E098E0892B8D83F80140815181628173815A
S11313F000E814E82EE130E0CE01E7DD9C8198603E
S11314009C839C8190619C83DF91CF911F910F916C
S11314100895CF92DF92EF92FF920F931F93CF9391
S1131420DF93EC01D901C801B695A79597958795E7
S1131430481759076A077B0778F46A017B01CC0CCB
S1131440DD1CEE1CFF1CC901B801A70196010E9416
S1131450CF1B2150310902C020E030E0832F8F7070
S11314608F832E83DF91CF911F910F91FF90EF9087
S1131470DF90CF900895DF92EF92FF920F931F9326
S1131480CF93DF931F92CDB7DEB77C018B0100971A
S113149009F4B2C1803C910521F460E180E002DAF4
S11314A0ABC180E8E81681E0F80621F462E080E050
S11314B0F9D9A2C1E114E1E0FE0621F461E080E083
S11314C0F1D99AC1F0E8EF16F3E0FF0621F461E0E8
S11314D081E0E8D991C130E9E31633E0F30621F461
S11314E061E082E0DFD988C1E11482E0F80621F4EA
S11314F062E081E0D7D980C1E0E4EE16E2E0FE06C6
S113150021F462E082E0CED977C1F0E2EF16F3E095
S1131510FF0621F464E082E0C5D96EC1E11438E02D
S1131520F30621F461E083E0BDD966C1E11489E0EA
S1131530F80621F461E084E0B5D95EC1E114EAE083
S1131540FE0621F461E085E0ADD956C1E114FBE06B
S1131550FF0621F461E086E0A5D94EC130E4E3162C
S113156038E0F30621F462E083E09CD945C180E4CD
S1131570E81689E0F80621F462E084E093D93CC1DE
S1131580E0E4EE16EAE0FE0621F462E085E08AD9A2
S113159033C1F0E9EF16F8E0FF0621F464E083E0DC
S11315A081D92AC130E9E31639E0F30621F464E075
S11315B084E078D921C180E9E8168AE0F80621F4AC
S11315C064E085E06FD918C1E0E9EE16EBE0FE06B1
S11315D021F464E086E066D90FC1F0ECEF16F8E080
S11315E0FF0621F468E083E05DD906C130ECE31620
S11315F039E0F30621F468E084E054D9FDC080EAC0
S1131600E81688E0F80661F460E183E04BD9E0EA8B
S1131610F8E084818F7E8483F801248122504CC0B9
S1131620F0EAEF16F9E0FF0621F460E184E03AD92C
S1131630E3C030EAE3163AE0F30621F460E185E022
S113164031D9DAC080EAE8168BE0F80621F460E1CB
S113165086E028D9D1C0E0EBEE16E8E0FE0621F4DE
S113166060E283E01FD9C8C0F0EBEF16F9E0FF0693
S113167021F460E284E016D9BFC030E8E31634E018
S1131680F30621F460E483E00DD9B6C080EAE816DD
S113169084E0F80621F460E485E004D9ADC0F701E4
S11316A084818F7E8483FB0124812250C701F0EA68
S11316B0EF16F8E0FF0649F480914E0684FDA5C0BC
S11316C00F2EF1E1DF2EF02DA4C0803B38E093070C
S11316D091F0803AE9E09E0749F430916E0634FDBA
S11316E09BC00F2EF9E1DF2EF02D16C0803BF9E0F0
S11316F09F07F1F004C00F2EF5E1DF2EF02D803AA4
S11317003AE0930749F480918E0684FD8AC00F2E37
S1131710F1E2DF2EF02D15C0803A9B4091F48091C8
S1131720AE0684FD0AC00F2EF9E2DF2EF02D09C0AB
S11317300F2EFDE1DF2EF02D04C00F2EFDE2DF2E73
S1131740F02DED2DE695E695E69530E2E39FF00168
S11317501124FA5F3D2D377081E090E0032E02C022
S1131760880F991F0A94E2F78183223010F040E039
S113177001C040E4DF015096A30FB11D9FB79983C8
S1131780F89439812C9127702C939C91942B9C93E1
S11317903FBF8583F7018581806C8583F80184814F
S11317A08D7F813029F4F70185818260858304C0AF
S11317B0F70185818D7F8583F8018581882329F050
S11317C0F70185818460858304C0F70185818B7F5F
S11317D08583F801408151816281738100E814E8B6
S11317E02EE130E0C70115DEF7018481886084832F
S11317F08481806184831AC0F70184818F7E84830D
S1131800F80124812250C70160CF0F2EF5E1DF2EAD
S1131810F02D80EA98E06ACF0F2EFDE1DF2EF02D47
S11318207BCF0F2EF5E2DF2EF02D8BCF0F90DF91C3
S1131830CF911F910F91FF90EF90DF900895FC01DD
S11318400396818392832FEF3FEF23833483858331
S113185096838783908710820895FC0110861186F1
S11318600895CF93DF939C01FB01DC011196CD9188
S1131870DC911297C283D3838C819D818483958369
S11318808C819D81DC0112966D937C9313976C83FC
S11318907D8320873187F90180818F5F8083DF9189
S11318A0CF910895CF93DF93EB01488159814F3F46
S11318B02FEF520721F4FC01A781B0850DC0DC0194
S11318C0139601C0DF011296ED91FC9113972081CC
S11318D0318142175307B0F71296ED91FC9113979B
S11318E0EA83FB83C483D583AC83BD831296CD93F3
S11318F0DC93139788879987FC0120812F5F2083CD
S1131900DF91CF910895CF93DF93FC01A085B1853A
S1131910C281D381848195818C839D83C481D58147
S1131920828193818A839B8311968D919C911297D6
S1131930E817F90731F48481958111968D939C936E
S11319401297108611868C9181508C93DF91CF91E0
S113195008950F931F938B0171E1FC0170833197FC
S113196062E26083319723E32083012E000C220B73
S1131970330B31970083319710833197208331974C
S11319801082319720E8208331971082319722E02A
S11319902083319723E02083319724E020833197FB
S11319A025E02083319726E02083319727E02083A8
S11319B0319728E02083319729E02083319720E173
S11319C0208331977083319722E12083319723E17B
S11319D02083319724E12083319725E120833197B7
S11319E026E12083319727E12083319728E1208362
S11319F0319729E12083319720E22083319721E236
S1131A00208331976083319723E220833197408389
S1131A1031975083319726E22083319727E2208340
S1131A20319728E22083319729E22083319720E3FC
S1131A302083319721E3208387971F910F91089585
S1131A40F894E0E7F0E083818A7F8383E0E0F8E0C4
S1131A5080E09AEF86A397A391E09683A0EAB0E092
S1131A6012968C911297816012968C93908378943D
S1131A70A0911624B09117240D900DBE0D900EBEAA
S1131A80FF91EF91DF91CF91BF91AF919F918F9192
S1131A907F916F915F914F913F912F911F910F9182
S1131AA0FF90EF90DF90CF90BF90AF909F908F907A
S1131AB07F906F905F904F903F902F901F900F906A
S1131AC00FBE0F90089581E008950F920FB6F89419
S1131AD00F921F9211242F923F924F925F926F9216
S1131AE07F928F929F92AF92BF92CF92DF92EF92AA
S1131AF0FF920F931F932F933F934F935F936F9393
S1131B007F938F939F93AF93BF93CF93DF93EF9381
S1131B10FF93A0911624B09117240DB60D920EB622
S1131B200D925AD6A0911624B09117240D900DBE93
S1131B300D900EBEFF91EF91DF91CF91BF91AF91C8
S1131B409F918F917F916F915F914F913F912F91D1
S1131B501F910F91FF90EF90DF90CF90BF90AF90C7
S1131B609F908F907F906F905F904F903F902F90B9
S1131B701F900F900FBE0F9008950F920FB6F89418
S1131B800F921F9211242F923F924F925F926F9265
S1131B907F928F929F92AF92BF92CF92DF92EF92F9
S1131BA0FF920F931F932F933F934F935F936F93E2
S1131BB07F938F939F93AF93BF93CF93DF93EF93D1
S1131BC0FF93A0911624B09117240DB60D920EB672
S1131BD00D9297D4811100D6A0911624B0911724A8
S1131BE00D900DBE0D900EBEFF91EF91DF91CF9140
S1131BF0BF91AF919F918F917F916F915F914F9121
S1131C003F912F911F910F91FF90EF90DF90CF9014
S1131C10BF90AF909F908F907F906F905F904F9008
S1131C203F902F901F900F900FBE0F901895CF9359
S1131C30DF93EC0156D4CE010E94F91BEC0134D59C
S1131C40CE01DF91CF910895CF93DF93009731F0C8
S1131C50EC0147D4CE010E94911C26D5DF91CF918F
S1131C6008951F93CF93DF93EC01142F4C8D4111F2
S1131C700BC088819981892B09F044C08A819B819A
S1131C8047D71A821B8245C0111117C050E08C81BE
S1131C909D810E941A1D2C8D8C819D81820F911D26
S1131CA08C839D832A813B818217930768F1888105
S1131CB099818C839D8380E02CC050E08E819F812C
S1131CC00E941A1D8C8D90E09195819591092E8129
S1131CD03F81280F391F2E833F8348815981241760
S1131CE0350730F42A813B81820F931F8E839F83B3
S1131CF0123061F48A8D882359F08A8D81508A8F3D
S1131D0080E007C080E005C080E003C080E001C03F
S1131D1080E09A8D9F5F9A8FDF91CF911F910895F4
S1131D20FC01448D4423A9F050E026813781240F1F
S1131D30351F26833783828193812817390720F042
S1131D408081918186839783CB01668177810C940E
S1131D501A1D08950F931F93CF93DF93EC010FB6D1
S1131D60F8940F928E8D1816ACF48989811105C0F0
S1131D7011C08989811104C00DC08E010F5E1F4FEF
S1131D80C801CED5811150D68E8D81508E8F8E8D07
S1131D9018167CF38FEF8E8F0F900FBE0FB6F8944A
S1131DA00F928D8D1816ACF48885811105C011C071
S1131DB08885811104C00DC08E01085F1F4FC801C2
S1131DC0AFD5811131D68D8D81508D8F8D8D1816A3
S1131DD07CF38FEF8D8F0F900FBEDF91CF911F910A
S1131DE00F910895CF93DF93EC010FB6F8940F92FF
S1131DF0488159812C8D30E07B8D729FC001739F87
S1131E00900D1124FA01E80FF91FEA83FB831A8E5F
S1131E104C835D83821B930B840F951F8E839F835A
S1131E208FEF8D8F8E8F61110AC08885882369F0AA
S1131E30CE01089675D5813041F447DE06C0CE0147
S1131E400896FDDCCE014196FADC0F900FBE81E0CE
S1131E50DF91CF9108950F931F93CF93DF93082FB2
S1131E60162F6623A9F0869FC00111248096DFDE19
S1131E70EC01009721F412C0C883D98303C04F96A4
S1131E80888399830B8F1C8F61E0CE01ABDF06C082
S1131E908FE190E0CCDEEC01892B71F7CE01DF916C
S1131EA0CF911F910F910895AF92BF92CF92DF927D
S1131EB0EF92FF920F931F93CF93DF93CDB7DEB7CB
S1131EC02597CDBFDEBF8C016B014C835D83A22EB1
S1131ED0B12C7C0188E0E80EF11C0FB6F8940F9247
S1131EE0F801928D838D981718F0F2E0AF1215C0A7
S1131EF04A2DB601C801B5DEF8019189992339F05C
S1131F00C80141960DD5813021F4DFDD02C0811175
S1131F10DCDD0F900FBE81E046C08C819D81892B52
S1131F2021F40F900FBE80E03EC0B11005C0CE0179
S1131F3001963ED5BB24B3940F900FBED2D20FB6F8
S1131F40F8940F92F801858D8F3F09F4158EF801EE
S1131F50868D8F3F09F4168E0F900FBEBE016C5F05
S1131F607F4FCE0101962FD5811119C00FB6F89479
S1131F700F92F801928D0F900FBE838D98130BC0B2
S1131F806C817D81C70195D4C801E4DE8DD38111B4
S1131F90A4CF9BDDA2CFC801DDDE86D39ECFC801CE
S1131FA0D9DE82D380E02596CDBFDEBFDF91CF910D
S1131FB01F910F91FF90EF90DF90CF90BF90AF9063
S1131FC00895CF93DF938FE190E031DEEC01892B0C
S1131FD0E1F01A821B82188219821C821D821E82E1
S1131FE01F821A8E81E08B8F1C8E8FEF8D8F8E8FC8
S1131FF0CE01089624DCCE01419621DC20E040E0AD
S113200050E060E070E0CE014FDFCE01DF91CF9170
S113201008950F931F93CF93DF93FA01DC015A962F
S11320205C915A975B963C91531710F02230D9F487
S1132030422F8F01EC0115DE8E8D8F3F79F4898953
S1132040882399F0CE0141966BD4882381F0011541
S1132050110579F081E0F80180830CC08E8D8F5FCB
S11320608E8F81E007C080E005C081E003C081E07D
S113207001C081E0DF91CF911F910F910895AF923C
S1132080BF92CF92DF92EF92FF920F931F93CF9361
S1132090DF93CDB7DEB72597CDBFDEBF8C016B01D3
S11320A04C835D83A22EB12C7C0181E1E80EF11CEE
S11320B00FB6F8940F92F801828D882369F1E680B7
S11320C0F780B601C8012CDEA11017C0F801828D7B
S11320D08150828F80819181892B21F459D5F80117
S11320E082839383F8018085882391F0C801089640
S11320F017D4813069F4E9DC0BC0F801E682F78279
S11321008189882329F0C80141960AD48111DDDC34
S11321100F900FBE81E051C08C819D81892B21F4E9
S11321200F900FBE80E049C0B11005C0CE010196EA
S11321303FD4BB24B3940F900FBED3D10FB6F89401
S11321400F92F801858D8F3F09F4158EF801868D65
S11321508F3F09F4168E0F900FBEBE016C5F7F4F48
S1132160CE01019630D4811124C00FB6F8940F9299
S1132170F801828D0F900FBE811117C0808191816B
S1132180892B41F40FB6F8940F92828193815ED427
S11321900F900FBE6C817D81C7018BD3C801DADD3E
S11321A083D2811185CF91DC83CFC801D3DD7CD26A
S11321B07FCFC801CFDD78D280E02596CDBFDEBFCA
S11321C0DF91CF911F910F91FF90EF90DF90CF900F
S11321D0BF90AF900895CF93DF93EC010FB6F894BE
S11321E00F928D8D8F3F09F41D8E8E8D8F3F09F4D4
S11321F01E8E0F900FBE8A8D811103C0CE014196B1
S113220073D3CE01A7DDDF91CF910895C9EED3E258
S113221088818230F0F359DCFBCFCF93DF93EC015C
S1132220E0911624F0911724828393838091C7232D
S11322309091C823C817D90760F46091162470914F
S113224017248091D3239091D4236E5F7F4F2ADB90
S113225016C060911624709117248091D523909113
S1132260D6236E5F7F4F1EDB80910D2090910E2050
S1132270C817D90720F4C0930D20D0930E20DF9106
S1132280CF9108954F925F926F927F928F929F9217
S1132290AF92BF92CF92DF92EF92FF920F931F9370
S11322A0CF93DF934C01EB015A012901C114D104EE
S11322B031F4CA01BCDC6C01892B09F4D4C088E276
S11322C090E0B5DC3C01009779F0FC01C78AD08E20
S11322D0F1E0AF1AB108CA0CDB1C8881F301818FCD
S11322E08881811104C013C0C601AEDCBCC0D30117
S11322F05A96FE0131969E01285F3F4FEF0181916E
S11323008D938881882319F02E173F07B9F7F301BD
S113231010A2102F053008F014E0F301168B11A35E
S113232012A2E3012296CE0198DAC3010C9695DA43
S1132330F3016086718685E090E0811B91098487B2
S11323409587628A738A13A214A215A216A217A2F1
S1132350A201B401C601FDDAF30180839183E11483
S1132360F10419F0F701608271820FB6F8940F92AC
S11323708091C9238F5F8093C92380911624909103
S11323801724892B91F5609216247092172480915A
S1132390C9238130C9F50F2EF9EEEF2EF3E2FF2E9B
S11323A0F02D0F2EF6E1CF2EF4E2DF2EF02DC70133
S11323B046DAF9E0EF0EF11CEC14FD04C1F780EEEF
S11323C093E23DDA87ED93E23ADA8AEC93E237DA84
S11323D080EE93E28093D5239093D62387ED93E206
S11323E08093D3239093D4230FC08091C52381116C
S11323F00BC0E0911624F09117248689081720F069
S113240060921624709217248091C1238F5F809369
S1132410C123F30186899091C623981710F4809301
S1132420C62390E09C01220F331F220F331F220F7B
S1132430331F820F931FBE0187519C4D12DA0F90F8
S11324400FBE8091C523882351F0E0911624F091AA
S113245017248689801728F438DB81E005C081E0E1
S113246003C081E001C08FEFDF91CF911F910F91E5
S1132470FF90EF90DF90CF90BF90AF909F908F90A0
S11324807F906F905F904F900895AF92BF92CF92DC
S1132490DF92EF92FF920F93A12CB12CC12CD12C7F
S11324A0E12CF12C00E020E030E045E550E066E16D
S11324B070E286E091E1E6DE813059F4D2D38130D6
S11324C041F4F8948093C5231092C7231092C82333
S11324D0B7DA0F91FF90EF90DF90CF90BF90AF905D
S11324E008958091C0238F5F8093C02308950FB611
S11324F0F8940F928091C7239091C8230F900FBE38
S11325000895DF92EF92FF920F931F93CF93DF937F
S11325108091C0238111B3C08091C7239091C823B7
S113252001968093C7239093C823E090C723F0902B
S1132530C823E114F10499F58091D5239091D62311
S11325402091D3233091D4232093D5233093D623C1
S11325508093D3239093D4238091C2238F5F80935D
S1132560C223E091D523F091D6238081811107C045
S11325708FEF9FEF80930D2090930E2010C0E09179
S1132580D523F091D6230580F681E02D0680F781CE
S1132590E02D8281938180930D2090930E20809171
S11325A00D2090910E20E816F90610F4D12C4FC09E
S11325B0D12CE091D523F091D6238081811107C0DD
S11325C08FEF9FEF80930D2090930E2040C0E091F9
S11325D0D523F091D6230580F681E02DC681D781DD
S11325E08A819B81E816F90628F480930D20909344
S11325F00E202DC08E010E5F1F4FC80184D98C8917
S11326009D89892B19F0CE010C967DD98E899091E4
S1132610C623981710F48093C62390E09C01220FE0
S1132620331F220F331F220F331F820F931FB80152
S113263087519C4D16D9E0911624F09117249E8958
S11326408689981708F4B5CFDD24D394B2CFE091EE
S11326501624F0911724868990E0FC01EE0FFF1FE9
S1132660EE0FFF1FEE0FFF1F8E0F9F1FFC01E751A0
S1132670FC4D8081823048F0DD24D39406C08091E3
S1132680C4238F5F8093C423D12C8091C3238823D8
S113269011F0DD24D3948D2DDF91CF911F910F91F3
S11326A0FF90EF90DF900895DF92EF92FF920F93E7
S11326B01F93CF93DF930FB6F8940F928091C023AA
S11326C081508093C0238091C02381115DC080918B
S11326D0C923811130C05BC0D7011596ED91FC91DF
S11326E01697C681D781CE010C960DD98E010E5F47
S11326F01F4FC80108D98E899091C623981710F4EA
S11327008093C62390E09C01220F331F220F331FB6
S1132710220F331F820F931FB80187519C4DA1D8FC
S1132720E0911624F09117249E898689981758F011
S1132730D092C32308C00F2EFAECEF2EF3E2FF2E43
S1132740F02DDD24D394F70180818111C5CF8091D0
S1132750C423882391F08091C423882371F0C1E0BD
S1132760D0DE8111C093C3238091C4238150809310
S1132770C4238091C4238111F3CF8091C32381307A
S113278029F4A3D981E003C080E001C080E00F9068
S11327900FBEDF91CF911F910F91FF90EF90DF90CB
S11327A00895CF93DF93EC01892B91F09ADE809109
S11327B0C7239091C823C80FD91F809116249091E4
S11327C017240296A0D8CE0128DD6EDF811101C046
S11327D07CD9DF91CF9108958091C023882321F083
S11327E081E08093C32308951092C3238091C6236C
S11327F090E0FC01EE0FFF1FEE0FFF1FEE0FFF1F17
S11328008E0F9F1FFC01E751FC4D8081811117C081
S11328108091C62381508093C6238091C62390E083
S1132820FC01EE0FFF1FEE0FFF1FEE0FFF1F8E0FB9
S11328309F1FFC01E751FC4D8081882349F380915F
S1132840C62390E09C01220F331F220F331F220F57
S1132850331F280F391FD901A751BC4D1196ED9193
S1132860FC9112970280F381E02D1196ED93FC9375
S1132870129724513C4DE217F30729F42281338146
S1132880FD0121833283FC01EE0FFF1FEE0FFF1FBA
S1132890EE0FFF1F8E0F9F1FFC01E751FC4D0180BF
S11328A0F281E02D868197818093162490931724DA
S11328B00895CF93DF93EB01609116247091172450
S11328C0645F7F4F0E94520C8091162490911724CC
S11328D0029619D88091C7239091C8238C0F9D1F0D
S11328E09CDCDF91CF910895CF93DF93EB0160914E
S11328F0162470911724645F7F4F0E94310C8091DD
S113290016249091172402960E94830C8091C72369
S11329109091C8238C0F9D1F80DCDF91CF91089587
S11329200F931F93CF93DF93DC011596ED91FC91E8
S11329301697C681D7818E01045F1F4FC8010E947C
S1132940830C8091C02381111CC00A501109C80155
S11329500E94830C8E899091C623981710F480935B
S1132960C62390E09C01220F331F220F331F220F36
S1132970331F820F931FB80187519C4D0E94310C65
S113298005C0B8018AEC93E20E94310CE091162450
S1132990F09117249E898689891720F481E0809319
S11329A0C32301C080E0DF91CF911F910F9108955F
S11329B02091C223FC0120832091C7233091C82396
S11329C0218332830895CF93DF93FC010FB6F894EB
S11329D00F922091C7233091C8238091C223908104
S11329E0981729F08181928128173907A8F4A181C9
S11329F0B281EB0148815981C9018A1B9B0B841761
S1132A00950760F4CF01A21BB30B4A0F5B1F4883E9
S1132A105983CEDF80E003C081E001C081E00F90E4
S1132A200FBEDF91CF91089581E08093C323089571
S1132A308091C523882331F08091C023882321F01D
S1132A4080E0089581E0089582E008950F931F9334
S1132A50CF93DF93FC01892B09F455C02689A091FB
S1132A601624B091172456968C91281708F04BC061
S1132A7084859585992364F0A0911624B091172438
S1132A8056963C9185E090E0831B91098487958755
S1132A9030E0C901880F991F880F991F880F991F6B
S1132AA0280F391F27513C4D828593858217930740
S1132AB019F58F01EF012296CE010E94830CE0915B
S1132AC01624F09117248689F801868B9091C623E9
S1132AD0981710F48093C62390E09C01220F331FB3
S1132AE0220F331F220F331F820F931FBE01875102
S1132AF09C4D0E94310C07C0A0911624B09117245C
S1132B0056968C91868BDF91CF911F910F910895EA
S1132B100F931F93CF93DF93FC01892B79F182A14B
S1132B20815082A3268991A1291751F181112AC0CC
S1132B30EF018F010E5F1F4FC8010E94830C89A112
S1132B408E8B25E030E0281B31092C873D8790913E
S1132B50C623981710F48093C62390E09C01220F9B
S1132B60331F220F331F220F331F820F931FB8010D
S1132B7087519C4D0E94310C81E005C080E003C068
S1132B8080E001C080E0DF91CF911F910F91089503
S1132B908091162490911724892B39F0E091162402
S1132BA0F091172482A18F5F82A3809116249091C3
S1132BB017240895FC0162837383808791874617E5
S1132BC0570790F0421B530B848595854817590786
S1132BD0E0F4BF016E5F7F4F80911C2490911D240F
S1132BE00E94520C80E008954217530718F46217AC
S1132BF0730768F4BF016E5F7F4F80911E2490912C
S1132C001F240E94520C80E0089581E0089581E021
S1132C1008950FB6F8940F9280911A2490911B2472
S1132C20892BE1F489E294E20E941F0C80E294E291
S1132C300E941F0C89E294E280931E2490931F2427
S1132C4080E294E280931C2490931D2440E065E08C
S1132C508AE001D980931A2490931B240F900FBE0D
S1132C600895AF92BF92CF92DF92EF92FF920F93AB
S1132C70D0DF80911A2490911B24892B89F0A12CF8
S1132C80B12CC12CD12CE12CF12C03E020E030E05C
S1132C9045E550E06BE170E289E097E1F3DA01C0C9
S1132CA080E00F91FF90EF90DF90CF90BF90AF90B6
S1132CB008950F931F93CF93DF93CDB7DEB7259776
S1132CC0CDBFDEBFE0911A24F0911B24309751F15F
S1132CD0D90169834A835B838C839D836630D4F4F2
S1132CE0A7DE823059F420E0A801BE016F5F7F4F58
S1132CF080911A2490911B24D7D815C020E040E07D
S1132D0050E0BE016F5F7F4F80911A2490911B2485
S1132D10CBD809C020E0AD01BE016F5F7F4FCF016A
S1132D2078D901C080E02596CDBFDEBFDF91CF9179
S1132D301F910F910895AF92BF92CF92DF92EF92BD
S1132D40FF920F931F93CF93DF936C01D0DB7C0131
S1132D508091182490911924E816F90608F047C0C8
S1132D602FC00580F681E02DA080B180C681D78177
S1132D708E010E5F1F4FC8010E94830CE989FA89F6
S1132D80CE0119958E858130D9F48C859D858A0D67
S1132D909B1DA816B90660F48A839B83C887D987CC
S1132DA0B80180911E2490911F240E94520C08C0E7
S1132DB000E010E020E030E0A50160E0CE0179DF22
S1132DC0E0911E24F0911F2480818111CACF80914B
S1132DD01C2490911D2480931E2490931F24E0931F
S1132DE01C24F0931D2481E0F601808302C0F601C7
S1132DF01082E0921824F0921924C701DF91CF9138
S1132E001F910F91FF90EF90DF90CF90BF90AF9004
S1132E100895CF93DF9300D000D0CDB7DEB7CE01B5
S1132E2001965C01E82EFB2CE0911E24F0911F24F6
S1132E308081882309F4B7C00580F681E02DC08025
S1132E40D1804FDBC50177DF8C018981811143C0BB
S1132E500C151D0590F128DCE0911E24F0911F242F
S1132E600580F681E02D86809780C40102960E9439
S1132E70830CD4011E968C911E978130A1F41C966C
S1132E806D917C911D976C0D7D1D9601A801C40167
S1132E9091DE813041F400E010E020E030E0A60152
S1132EA060E0C40106DFD4015196ED91FC91529784
S1132EB0C40119956BC0C12CD12CB601601B710BD8
S1132EC080911A2490911B2486D9EEDB81115EC077
S1132ED00E94650D5BC0E8DB59C0898188230CF42E
S1132EE055C0CC80DD80F60182859385892B21F045
S1132EF0C60102960E94830CCE0106961CDFAC012B
S1132F008981082E000C990BAA0BBB0B8A30910502
S1132F1008F03CC0FC018827E250FF4F8F4F61C48A
S1132F202A813B81D6011C966D917C911D97620F7D
S1132F30731FC6013FDE813049F5D6015196ED91EC
S1132F40FC915297C6011995F60186858130F1F4FA
S1132F504A815B8184859585480F591F00E010E004
S1132F6020E030E060E0C601A4DE10C06A817B810D
S1132F70D6011C966D937C931D97640F751F9A015F
S1132F80C60118DE03C0C6010E94240E20E040E002
S1132F9050E06E2D7F2D80911A2490911B246FD8C0
S1132FA081119BCF41CF9DDAC501C5DE8C0189819A
S1132FB0882309F480CF8FCFCF93DF93CDB7DEB7CB
S1132FC02A97CDBFDEBF20E042E350E0BE016F5F31
S1132FD07F4F8091BB249091BC2451D88130D1F58E
S1132FE020E04BE350E060E070E08091BD249091DC
S1132FF0BE2445D8813071F5809136248823F9F0B8
S113300063E270E2CE0101961ED5892B49F426E0D5
S113301030E248E160E088E290E20E9483060FC05B
S11330206AE370E2CE0101960ED5892B41F426E0C5
S113303030E248E160E080E490E20E94830620E010
S113304040E050E060E070E08091BD249091BE24A7
S11330500E94540F82E390E0A4DBB5CFCF93DF93BB
S11330601F92CDB7DEB7E0E8F6E081E0828388E125
S1133070808B26E030E240E160E086E690E20E9448
S11330808306312C00E816E00F2EF8E7CF2EF0E28D
S1133090DF2EF02D6894222427F80F2EF7E3EF2E6D
S11330A0F4E2FF2EF02D0F2EF2E86F2EF0E27F2EC9
S11330B0F02D0F2EF2E58F2EF0E29F2EF02D0F2E25
S11330C0FCE5AF2EF0E2BF2EF02DF801508420E095
S11330D04BE350E060E070E08091BD249091BE2409
S11330E00E943F10813009F06CC020E04BE350E0B7
S11330F060E070E08091B9249091BA240E943F105E
S1133100813009F053C080913624882309F443C0E8
S113311044244394852D817050FE412C341004C006
S1133120909134249923B9F110923424811103C06D
S11331308A2D9B2D02C0882D992D9F938F93DF920A
S1133140CF921F922F92FF92EF92A0D426E030E20A
S113315040E160E0C7010E948306498220E042E327
S113316050E0BE016F5F7F4F8091B7249091B824E7
S11331700E94540FCDBFDEBF813061F489811F925C
S11331808F937F926F926FD40F900F900F900F9048
S1133190342C01C0342C20E040E050E060E070E0CA
S11331A08091B9249091BA240E94540F20E040E009
S11331B050E060E070E08091BD249091BE240E94B4
S11331C0540F82E390E0EDDA80CF1092A7088CE0F0
S11331D08093A6081092A30883E08093A50888E151
S11331E08093A4080895E1EAF8E080818823ECF74D
S11331F08091A0080895CF92DF92EF92FF920F93EF
S11332001F93CF93DF936C01161617063CF4FC0151
S1133210860F971F1192E817F907E1F77B0181E008
S1133220E81AF1081E141F0484F48601C0E0D0E0FB
S1133230DADF8A3061F08D3051F02196F801819304
S11332408F01CE15DF05A4F302C0C0E0D0E0F60183
S1133250EC0FFD1F1082CE01DF91CF911F910F91D2
S1133260FF90EF90DF90CF900895CF93DF93CDB789
S1133270DEB76497CDBFDEBF88E0809345068093B8
S1133280410684E080934606809342069EDF6FE009
S113329070E280EA98E00E94F80808E910E26AE027
S11332A070E0CE010196A7DF63E270E2CE010196E1
S11332B0CAD3892B39F06AE370E2CE010196C3D3F5
S11332C0892BC9F4BE016F5F7F4FCE010B96C4D327
S11332D020E042E350E0BE01655F7F4F8091BB2454
S11332E09091BC240E94540F813029F41F930F93B2
S11332F0BAD30F900F9082E390E053DAD0CFE0E49A
S1133300F6E0808181608083E0E0F8E082E0808301
S113331086E1818388EE93E086A397A310A611A685
S11333200895CF93DF931F92CDB7DEB726E030E246
S113333048E160E08CEA90E20E948306E0DF5524D5
S113334053940F2EF1EECF2EF0E2DF2EF02D689481
S1133350332437F807E314E2A12C6894BB24B3F8B0
S11333600F2EF0E28F2EF3E09F2EF02D0F2EF0EEB5
S1133370EF2EF7E0FF2EF02D6894442441F80F2E31
S1133380F4EF6F2E77247394F02D20E042E350E0A5
S1133390BE016F5F7F4F8091B7249091B8240E9443
S11333A03F10813009F041C020E04BE350E060E081
S11333B070E08091BD249091BE240E943F10813022
S11333C0A1F580913624882371F08981882359F0EE
S11333D026E030E240E060E081EC90E20E94830667
S11333E05092352417C080913524882349F026E073
S11333F030E240E060E081EC90E20E9483060AC083
S113340026E030E240E060E081ED90E20E94830635
S11334101092352420E040E050E060E070E08091BC
S1133420BD249091BE240E94540F20E04BE350E051
S113343060E070E08091BD249091BE240E943F1012
S11334408130E9F580913524882371F1809132240B
S1133450909133240A973CF4F50160A671A6F70114
S11334605682468206C0F50180A691A6F7015782CE
S113347047828091322490913324019680933224A0
S1133480909333249F938F93DF92CF921F923F9216
S11334901F930F93FBD226E030E248E160E0C801BD
S11334A00E948306CDBFDEBF20E040E050E060E034
S11334B070E08091BD249091BE240E94540F82E359
S11334C090E06FD962CF1092280810922908E0EE9C
S11334D0F7E081E0858382E08583109232241092A4
S11334E03324089526E030E240E060E088EF90E283
S11334F00E94830626E030E248E060E08AE091E240
S11335000E94830626E030E240E160E086E690E235
S11335100E94830626E030E248E160E08CE191E21B
S11335200C9483060895E0EAF6E086E0828382E064
S1133530818B828B26E030E248E060E086E591E210
S11335400E948306C0EAD6E0DD24D3940F2EFEE267
S1133550EF2EF1E2FF2EF02D00E411E2888581FDCB
S11335605AC020E04FEF5FEF60E070E08091BD242F
S11335709091BE240E943F10813009F048C020E0A1
S11335804BE350E060E070E08091B9249091BA245C
S11335900E943F10813081F5809136248D258093DF
S11335A03624D0923424811103C0802F912F02C07D
S11335B08E2D9F2D26E030E248E060E00E948306D5
S11335C080913624811105C07EDF8CDF1092352472
S11335D008C026E030E240E060E081ED90E20E9425
S11335E0830620E040E050E060E070E08091B92480
S11335F09091BA240E94540F20E040E050E060E033
S113360070E08091BD249091BE240E94540F82E307
S113361090E0C7D844C0888582FD41C020E04FEFC8
S11336205FEF60E070E08091BD249091BE240E9421
S11336303F108130A1F520E04FEF5FEF60E070E0D4
S11336408091B9249091BA240E943F108130E1F412
S113365080913624882369F0D09234241092352442
S113366032DF26E030E248E160E08CE191E20E9442
S1133670830620E040E050E060E070E08091B924EF
S11336809091BA240E94540F20E040E050E060E0A2
S113369070E08091BD249091BE240E94540F82E377
S11336A090E07FD85BCFAF92BF92CF92DF92EF9240
S11336B0FF920F930E9448070E94420487E0809380
S11336C0A2000E940F0580E18093850626E030E287
S11336D040E060E087E691E20E94830681E00E9478
S11336E0E10F8093BD249093BE2440E061E08AE022
S11336F00E942B0F8093B7249093B82440E06AE093
S11337008AE00E942B0F8093BB249093BC24A12CAD
S1133710B12CC12CD12CE12CF12C03E020E030E0C1
S113372048EE53E06FE671E283E99AE10E944211A8
S113373002E020E030E048EE53E06AE771E28EE216
S113374098E10E94421101E020E030E048EE53E0AD
S113375064E871E281E999E10E94421120E030E0DD
S113376048EE53E061E971E285E399E10E94421178
S113377002E020E030E048EE53E067EA71E28CEDCD
S113378097E10E9442110E94451280E090E00F915F
S1133790FF90EF90DF90CF90BF90AF900895A1E29B
S11337A01A2EAA1BBB1BFD010DC0AA1FBB1FEE1FB7
S11337B0FF1FA217B307E407F50720F0A21BB30B02
S11337C0E40BF50B661F771F881F991F1A9469F77E
S11337D060957095809590959B01AC01BD01CF01DA
S11337E00895EE0FFF1F881F8BBF0790F691E02D01
S11337F019940F931F93CF93DF938230910510F4A4
S113380082E090E0E091C124F091C22420E030E015
S1133810A0E0B0E0309719F1408151810281138119
S113382048175907C8F08417950769F4109731F0C1
S113383012960C93129713961C9327C00093C124DD
S11338401093C22422C02115310519F042175307E1
S113385018F49A01BD01EF01DF01F801DBCF211556
S11338603105F9F0281B390B2430310580F48A81A5
S11338709B816115710521F0FB018283938304C050
S11338808093C1249093C224FE01329644C0FE0169
S1133890E20FF31F819391932250310928833983D6
S11338A03AC02091BF243091C024232B41F42091AD
S11338B00220309103202093BF243093C024209110
S11338C00020309101202115310541F42DB73EB778
S11338D04091042050910520241B350BE091BF2416
S11338E0F091C024E217F307A0F42E1B3F0B281716
S11338F0390778F0AC014E5F5F4F2417350748F065
S11339004E0F5F1F4093BF245093C0248193919323
S113391002C0E0E0F0E0CF01DF91CF911F910F9161
S11339200895CF93DF93009709F481C0FC01329787
S113393012821382A091C124B091C224109781F401
S113394020813181820F931F2091BF243091C024A4
S11339502817390751F5E093BF24F093C02467C0BA
S1133960ED0120E030E0CE17DF0740F44A815B81AF
S11339709E0141155105F1F0EA01F5CFC283D383CD
S113398040815181840F951FC817D90759F4888144
S11339909981840F951F0296808391838A819B81EC
S11339A0828393832115310529F4E093C124F09394
S11339B0C2243DC0E901EA83FB8349915991C40FB4
S11339C0D51FEC17FD0761F480819181840F951F49
S11339D00296E90188839983828193818A839B83F8
S11339E0E0E0F0E012968D919C911397009719F006
S11339F0FD01DC01F7CF8D919C9111979D012E5F04
S1133A003F4F820F931F2091BF243091C024281769
S1133A10390769F4309729F41092C1241092C22412
S1133A2002C012821382A093BF24B093C024DF91FA
S1133A30CF910895FB01DC0102C001900D92415029
S1133A405040D8F70895FB01DC018D910190801955
S1133A500110D9F3990B0895FB01DC0101900D923B
S1133A600020E1F70895CF93DF93CDB7DEB7AE0121
S1133A704A5F5F4FFA0161917191AF018091C52452
S1133A809091C62439D0DF91CF9108950F931F935D
S1133A90CF93DF93CDB7DEB72E97CDBFDEBF0E89B0
S1133AA01F89888D998D26E02C8309831A8397FFBB
S1133AB002C080E090E801978D839E83AE01445E4E
S1133AC05F4F6A8D7B8DCE01019616D04D815E814C
S1133AD057FD0AC02F813885421753070CF49A0109
S1133AE0F801E20FF31F10822E96CDBFDEBFDF91E7
S1133AF0CF911F910F9108952F923F924F925F9211
S1133B006F927F928F929F92AF92BF92CF92DF92E9
S1133B10EF92FF920F931F93CF93DF93CDB7DEB74E
S1133B202B97CDBFDEBF6C017B018A01FC0116829D
S1133B301782838181FFBFC1CE0101963C01F6014A
S1133B409381F70193FD859193FF81917F018823F0
S1133B5009F4ADC1853239F493FD859193FF8191C8
S1133B607F01853221F4B60190E0D3D1E8CF912CC6
S1133B70212C312CFFE1F315D8F08B3279F038F495
S1133B80803279F08332A1F4232D20611DC08D325F
S1133B9061F0803369F4232D216016C0832D826087
S1133BA0382EE32DE4603E2E2AC0F32DF8601DC0AC
S1133BB037FC2DC020ED280F2A3040F08E32B9F4A6
S1133BC036FC75C1232D2064322E19C036FE06C082
S1133BD08AE0989E200D1124922E11C0EAE02E9EB8
S1133BE0200D1124222EF32DF0623F2E08C08C36B6
S1133BF021F4832D8068382E02C0883641F4F70101
S1133C0093FD859193FF81917F018111B3CF982F0B
S1133C109F7D9554933028F40C5F1F4F9FE3998345
S1133C200DC0833631F0833771F0833509F055C008
S1133C3020C0F801808189830E5F1F4F88248394FC
S1133C40912C530112C02801F2E04F0E511CF801CF
S1133C50A080B18036FE03C0692D70E002C06FEF12
S1133C607FEFC5014BD14C018201F32DFF773F2E2D
S1133C7015C0280122E0420E511CF801A080B18039
S1133C8036FE03C0692D70E002C06FEF7FEFC501FF
S1133C902AD14C01F32DF0683F2E820133FC19C068
S1133CA0822D90E088169906A0F4B60180E290E097
S1133CB030D12A94F5CFF50137FC859137FE8191F7
S1133CC05F01B60190E025D121102A9421E0821AE7
S1133CD091088114910479F7E1C0843611F0893692
S1133CE039F5F80137FE07C06081718182819381C3
S1133CF00C5F1F4F08C060817181072E000C880B78
S1133D00990B0E5F1F4FF32DFF763F2E97FF09C0CF
S1133D1090958095709561957F4F8F4F9F4FF06878
S1133D203F2E2AE030E0A30130D1882E861844C00B
S1133D30853731F4232D2F7EB22E2AE030E025C0C2
S1133D40932D997FB92E8F36C1F018F4883579F008
S1133D50AEC0803719F0883721F0A9C0E92FE0619F
S1133D60BE2EB4FE0DC0FB2DF460BF2E09C034FE80
S1133D700AC0292F2660B22E06C028E030E005C014
S1133D8020E130E002C020E132E0F801B7FE07C0D4
S1133D9060817181828193810C5F1F4F06C06081B5
S1133DA0718180E090E00E5F1F4FA301EED0882E5A
S1133DB08618FB2DFF773F2E36FE0DC0232D2E7F58
S1133DC0A22E891458F434FE0BC032FC09C0832D92
S1133DD08E7EA82E05C0B82CA32C03C0B82C01C01D
S1133DE0B92CA4FE0FC0FE01E80DF11D80818033C3
S1133DF021F49A2D997EA92E09C0A2FE06C0B3947F
S1133E00B39404C08A2D867809F0B394A3FC10C03F
S1133E10A0FE06C0B21480F4280C922C9B180DC08E
S1133E20B21458F4B60180E290E073D0B394F8CFA2
S1133E30B21418F42B1802C0982C212CA4FE0FC025
S1133E40B60180E390E065D0A2FE16C0A1FC03C0D9
S1133E5088E790E002C088E590E0B6010CC08A2DA6
S1133E60867851F0A1FE02C08BE201C080E2A7FC7B
S1133E708DE2B60190E04DD0891430F4B60180E3B0
S1133E8090E047D09A94F8CF8A94F301E80DF11D9D
S1133E908081B60190E03DD08110F6CF222009F454
S1133EA04ECEB60180E290E034D02A94F7CFF601EA
S1133EB08681978102C08FEF9FEF2B96CDBFDEBF27
S1133EC0DF91CF911F910F91FF90EF90DF90CF90F2
S1133ED0BF90AF909F908F907F906F905F904F9026
S1133EE03F902F900895FC0105906150704001109F
S1133EF0D8F7809590958E0F9F1F0895FC0161500F
S1133F00704001900110D8F7809590958E0F9F1FF7
S1133F1008950F931F93CF93DF93FB01238121FD1A
S1133F2003C08FEF9FEF2CC022FF16C0468157813C
S1133F30248135814217530744F4A081B1819D0146
S1133F402F5F3F4F208331838C93268137812F5FEE
S1133F503F4F2683378314C08B01EC01FB0100849F
S1133F60F185E02D1995892BE1F6D80116968D91EE
S1133F709C911797019616968D939C931797CE0153
S1133F80DF91CF911F910F910895FA01AA2728304C
S1133F9051F1203181F1E8946F936E7F6E5F7F4F12
S1133FA08F4F9F4FAF4FB1E03ED0B4E03CD0670F8E
S1133FB0781F891F9A1FA11D680F791F8A1F911DE1
S1133FC0A11D6A0F711D811D911DA11D20D009F431
S1133FD068943F912AE0269F11243019305D319373
S1133FE0DEF6CF010895462F4770405D4193B3E05C
S1133FF00FD0C9F7F6CF462F4F70405D4A3318F003
S1134000495D31FD4052419302D0A9F7EACFB4E0B3
S1134010A6959795879577956795BA95C9F700976B
S11340206105710508959B01AC010A2E069457950C
S1134030479537952795BA95C9F7620F731F841F63
S10D4040951FA01D0895F894FFCF0A
S113404A0000C92420000010020607207DFFFF801B
S113405A25000003000049444C4500546D72205366
S113406A7663005452554500416B7365733A204494
S113407A69626572696B616E200046414C53450062
S113408A416B7365733A204469746F6C616B2020C9
S113409A200054657262756B612020005465727445
S11340AA75747570200050696E74753A202D20203D
S11340BA202020202020200050696E74753A202583
S11340CA730053656E743A20446F6F72207374617F
S11340DA7475733D25640A0053656E743A2041630E
S11340EA63657373205374617475730057616B74D9
S11340FA753A202D20202020202020202020202036
S113410A00416C61726D3A20416B7469662020200B
S113411A00416C61726D3A204E6F6E616B74696610
S113412A0057616B74753A202530326420202020B0
S113413A20202020202020005369736E616D2B20DB
S113414A2020202020202020200053697374656DCC
S113415A3A204E6F6E616B746966200057616B7406
S113416A753A202D20202020202020202000536969
S113417A7374656D3A20416B7469662020202000AF
S113418A53697374656D3A204E6F6E616B74696618
S113419A20202020200053697374656D3A204E6FE5
S11341AA6E616B746966005369736E616D2B00509E
S11341BA757368427574746F6E00436865636B4403
S11341CA6F6F7200416C61726D436F6E74726F6CC3
S11341DA005265636569766520416363657373207C
S11341EA53746174757300436F6E74726F6C2041FB
S11141FA6363657373205374617475730000FE
S9030000FC
