:1000000050C200006FC200006DC200006BC2000051
:1000100069C2000067C2000065C2000063C2000040
:1000200061C200005FC200005DC200005BC2000050
:1000300059C2000057C200000C94BD0D53C200000D
:1000400051C200004FC200004DC200004BC2000070
:1000500049C2000047C2000045C2000043C2000080
:1000600041C200003FC200003DC200003BC2000090
:1000700039C2000037C2000035C2000033C20000A0
:1000800031C200002FC200002DC200002BC20000B0
:1000900029C2000027C2000025C2000023C20000C0
:1000A00021C200001FC200001DC200001BC20000D0
:1000B00019C2000017C2000015C2000013C20000E0
:1000C00011C200000FC200000DC200000BC20000F0
:1000D00009C2000007C2000005C2000003C2000000
:1000E00001C20000FFC10000FDC10000FBC1000013
:1000F000F9C10000F7C10000F5C10000F3C1000024
:10010000F1C10000EFC10000EDC10000EBC1000033
:10011000E9C10000E7C10000E5C10000E3C1000043
:10012000E1C10000DFC10000DDC10000DBC1000053
:10013000D9C10000D7C10000D5C10000D3C1000063
:10014000D1C10000CFC10000CDC10000CBC1000073
:10015000C9C10000C7C10000C5C10000C3C1000083
:10016000C1C10000BFC10000BDC10000BBC1000093
:10017000B9C10000B7C10000B5C10000B3C10000A3
:10018000B1C10000AFC10000ADC10000ABC10000B3
:10019000A9C10000A7C10000A5C10000A3C10000C3
:1001A000A1C100009FC100009DC100009BC10000D3
:1001B00099C1000097C1000095C1000093C10000E3
:1001C00091C100008FC100008DC100008BC10000F3
:1001D00089C1000087C1000085C1000083C1000003
:1001E00081C100007FC100007DC100007BC1000013
:1001F00079C1000077C1000075C100009017901709
:100200009017C617B617C31790179017C617B617CB
:10021000000000000000002020202020002050507E
:1002200050000000005050F850F850502078A07056
:1002300028F020C0C810204098186090A040A890D6
:100240006860204000000000102040404020104026
:10025000201010102040005020F8205000002020D6
:10026000F820200000000000602040000000F8009E
:1002700000000000000000606000081020408000C6
:10028000708898A8C888702060202020207070880E
:1002900008102040F8F81020100888701030509096
:1002A000F81010F880F008088870304080F08888D6
:1002B00070F80810204040407088887088887070FE
:1002C00088887808106000606000606000006060EE
:1002D00000602040081020402010080000F800F8BE
:1002E00000008040201020408070880810200020EE
:1002F00070880868A8A87070888888F88888F0884E
:1003000088F08888F070888080808870E090888885
:100310008890E0F88080F08080F8F88080E080802D
:100320008070888080988870888888F8888888702D
:10033000202020202070381010101090608890A08D
:10034000C0A09088808080808080F888D8A8888825
:1003500088888888C8A898888870888888888870DD
:10036000F08888F080808070888888A89068F088FD
:1003700088F0A09088788080700808F0F82020200D
:100380002020208888888888887088888888885075
:1003900020888888A8A8D88888885020508888888D
:1003A000885020202020F80810204080F838202095
:1003B0002020203800804020100800E0202020204D
:1003C00020E020508800000000000000000000F83D
:1003D00040201000000000000070087888788080BD
:1003E000B0C88888F000007080808870080868981D
:1003F00088887800007088F88070304840E040407D
:1004000040000078887808308080B0C888888820CC
:100410000060202020701000301010906040404894
:1004200050605048602020202020700000D0A8A8F4
:1004300088880000B0C88888880000708888887024
:100440000000F088F08080000068987808080000BC
:10045000B0C8808080000070807008F04040E040AC
:100460004048300000888888986800008888885054
:100470002000008888A8A8500000885020508800DC
:100480000088887808700000F8102040F8102020BC
:10049000402020102020202020202040202010203C
:1004A000204011241FBECFEFCDBFDFE5DEBF00E04F
:1004B0000CBF12E2A0E0B0E2E6EFF4E400E00BBF14
:1004C00002C007900D92A030B107D9F725E2A0E055
:1004D000B2E201C01D92AE30B207E1F70E94861D64
:1004E0000C9479228DCD04C0615071098109910964
:1004F0006115710581059105B9F70895BF92CF92F5
:10050000DF92EF92FF920F931F93CF93DF931F928F
:10051000CDB7DEB700E016E06894FF24F3F8F801E9
:10052000F68264E070E080E090E0DDDFF801F582C3
:1005300064E070E080E090E0D6DF0F2EFBE2BF2E9B
:10054000F02DB98280EA99E02ED4C12CD12C76010D
:1005500000E412E42FE030E043E0BE016F5F7F4F24
:1005600080EA99E04FD400E616E0FF24F394F80106
:10057000F682B982BE016F5F7F4F80EA99E05CD45A
:10058000F801F682E0EAF9E0818185FFFDCF80EA9B
:100590008093A009E0EAF9E0818186FFFDCFE0EADF
:1005A000F9E080E481838081BE016F5F7F4F80EA44
:1005B00099E058D48BE28983BE016F5F7F4F80EA58
:1005C00099E03AD481E080936606E0EAF9E081811F
:1005D00085FFFDCF86EA8093A009E0EAF9E08181FA
:1005E00086FFFDCFE0EAF9E080E481838081BE01EF
:1005F0006F5F7F4F80EA99E035D48BE28983BE013B
:100600006F5F7F4F80EA99E017D481E080936606A0
:10061000E0EAF9E0818185FFFDCF88EC8093A009B5
:10062000E0EAF9E0818186FFFDCFE0EAF9E080E4CD
:1006300081838081BE016F5F7F4F80EA99E012D491
:100640008BE28983BE016F5F7F4F80EA99E0F4D32C
:1006500081E080936606E0EAF9E0818185FFFDCFC5
:1006600082EA8093A009E0EAF9E0818186FFFDCF6C
:10067000E0EAF9E080E481838081BE016F5F7F4F13
:1006800080EA99E0EFD38BE28983BE016F5F7F4FF1
:1006900080EA99E0D1D381E080936606E0EAF9E050
:1006A000818185FFFDCF8FE28093A009E0EAF9E028
:1006B000818186FFFDCFE0EAF9E080E481838081DB
:1006C000BE016F5F7F4F80EA99E0CCD38BE28983D4
:1006D000BE016F5F7F4F80EA99E0AED381E08093E7
:1006E0006606E0EAF9E0818185FFFDCF88EF80931F
:1006F000A009E0EAF9E0818186FFFDCFE0EAF9E0B8
:1007000080E481838081BE016F5F7F4F80EA99E042
:10071000A9D38BE28983BE016F5F7F4F80EA99E0A6
:100720008BD381E080936606E0EAF9E0818185FF62
:10073000FDCF1092A009E0EAF9E0818186FFFDCFAC
:10074000E0EAF9E080E481838081BE016F5F7F4F42
:1007500080EA99E087D38BE28983BE016F5F7F4F88
:1007600080EA99E069D381E080936606E0EAF9E0E7
:10077000818185FFFDCF81E28093A009E0EAF9E065
:10078000818186FFFDCFE0EAF9E080E4818380810A
:10079000BE016F5F7F4F80EA99E064D38BE289836B
:1007A000BE016F5F7F4F80EA99E046D381E080937E
:1007B0006606E0EAF9E0818185FFFDCF81E880935C
:1007C000A009E0EAF9E0818186FFFDCFE0EAF9E0E7
:1007D00080E481838081BE016F5F7F4F80EA99E072
:1007E00041D38BE28983BE016F5F7F4F80EA99E03E
:1007F00023D381E080936606E0EAF9E0818185FFFA
:10080000FDCF81E28093A009E0EAF9E0818186FFD3
:10081000FDCFE0EAF9E080E481838081BE016F5F73
:100820007F4F80EA99E01ED38BE28983BE016F5F20
:100830007F4F80EA99E000D381E080936606E0EA8A
:10084000F9E0818185FFFDCF8FEA8093A009E0EA7E
:10085000F9E0818186FFFDCFE0EAF9E080E4818361
:100860008081BE016F5F7F4F80EA99E0FBD20F90DD
:10087000DF91CF911F910F91FF90EF90DF90CF907C
:10088000BF9008958FEF80937000809371008093E4
:10089000720080937300809374008093750080933E
:1008A00076000895CF93DF931F92CDB7DEB79FB741
:1008B0009983F8949981E82FF0E0E059FF4F609513
:1008C0008081682360839FBF0F90DF91CF9108954F
:1008D000FF920F931F93CF93DF931F92CDB7DEB795
:1008E000082FF62E142F1AD10F70006B8BE289831C
:1008F000BE016F5F7F4F80EA99E09ED281E08093D6
:100900006606E0EAF9E0918195FFFDCF0093A0092A
:10091000E0EAF9E0818186FFFDCFE0EAF9E080E4DA
:1009200081838081BE016F5F7F4F80EA99E09AD218
:100930000F2D0F7702950F7000618BE28983BE0146
:100940006F5F7F4F80EA99E077D281E080936606FF
:10095000E0EAF9E0818185FFFDCF0093A009E0EA9C
:10096000F9E0818186FFFDCFE0EAF9E080E4818350
:100970008081BE016F5F7F4F80EA99E073D20F2DB7
:100980000F708BE28983BE016F5F7F4F80EA99E031
:1009900053D281E080936606E0EAF9E0818185FF29
:1009A000FDCF0093A009E0EAF9E0818186FFFDCF49
:1009B000E0EAF9E080E481838081BE016F5F7F4FD0
:1009C00080EA99E04FD28BE28983BE016F5F7F4F4F
:1009D00080EA99E031D281E080936506E0EAF9E0AF
:1009E000818185FFFDCF1093A009E0EAF9E08181C4
:1009F00086FFFDCFE0EAF9E080E48183808181E039
:100A000080936606BE016F5F7F4F80EA99E02AD22D
:100A10000F90DF91CF911F910F91FF9008950F9349
:100A20001F93CF93DF931F92CDB7DEB780E092E2A2
:100A300070D064DD8BE28983BE016F5F7F4F80EAF7
:100A400099E0FAD181E080936606E0EAF9E08181DD
:100A500085FFFDCF80E48093A009E0EAF9E0818181
:100A600086FFFDCFE0EAF9E080E481838081BE016A
:100A70006F5F7F4F80EA99E0F5D100E00AC040E067
:100A8000612F802F25DF1F5F1038C9F70F5F0430FB
:100A900011F010E0F4CF0F90DF91CF911F910F91E3
:100AA0000895FF920F931F93CF93DF9388234CF108
:100AB000603238F5D42FC82FF62EF694F694F694BB
:100AC00070E088E0F89E60197109112481E090E0DF
:100AD0008C0102C0000F111F6A95E2F76C2F8F2D59
:100AE0002BD0D13021F028F0D23031F006C0802B4D
:100AF00004C00095802301C08027482F6C2F8F2DC4
:100B0000E7DEDF91CF911F910F91FF90089514C000
:100B10000895809300249093012408952091002447
:100B20003091012490E8899F200D311D1124F90195
:100B3000E60FF11D40830895209100243091012497
:100B400090E8899F200D311D1124F901E60FF11D58
:100B500080810895FF920F931F93CF93DF93E42F2B
:100B6000F0E0E80FF11DE138F1051CF0C0E84C2F72
:100B7000481B442309F44AC0D62FD695D695D6955E
:100B800070E098E0D99F601971091124E1E0F0E06C
:100B9000DF0102C0AA0FBB1F6A95E2F7FA2E2130CF
:100BA00021F098F0223019F131C0C42F1FEF180F37
:100BB000012F0C0F602F8D2FAADF4F2D482B602F98
:100BC0008D2F86DEC150A1F721C0C42F1FEF180F53
:100BD000FA2EF094012F0C0F602F8D2F98DF4F2DE0
:100BE0004823602F8D2F74DEC150A1F70FC0C42F92
:100BF0001FEF180F012F0C0F602F8D2F88DF4F2D47
:100C00004827602F8D2F64DEC150A1F7DF91CF916F
:100C10001F910F91FF900895FF920F931F93CF9311
:100C2000DF93222369F0F42E182FC22FDFEFD60FA7
:100C30006D2F6C0F202F4F2D812F8CDFC150C1F7EE
:100C4000DF91CF911F910F91FF900895AF92BF92C6
:100C5000CF92DF92EF92FF920F931F93CF93DF9388
:100C6000C82FE62EB42E690100E0F90124814381EA
:100C70006B2D8E2DD1DFF6018081811139C08381EA
:100C8000282F269526952695877009F02F5FF60167
:100C9000A4808C2F90E03581831B91092A9D9001BF
:100CA0001124829FA001839F500D929F500D11240B
:100CB00001811281040F151FF601F380FF20A1F0BE
:100CC000D0E0C0E08E2D8C0F9C2F977021F4F8019E
:100CD000D4910F5F1F4FDD231CF441E06B2DE1DE4B
:100CE000DD0FCF5FFC12EECFB394AA94A110E4CF36
:100CF000DF91CF911F910F91FF90EF90DF90CF90F8
:100D0000BF90AF900895DF92EF92FF920F931F93E1
:100D1000CF93DF93D62E042F7901EC01162F899102
:100D20008A3031F4F70184818F5F080F1D2D09C0CF
:100D30008D3039F09701402F612F88DFF7018381D3
:100D4000180F88818111EBCFDF91CF911F910F9107
:100D5000FF90EF90DF900895CF93DF93FC0120E0A8
:100D600030E0C62FD0E0DE01022E02C0B595A79577
:100D70000A94E2F7A0FD508B2F5F3F4F3196283049
:100D8000310589F740FF0AC041FF03C0FC016583BC
:100D900002C0FC016683FC01618302C0FC01628326
:100DA000DF91CF910895803A28E0920721F460E125
:100DB00083E078CD0895803B28E0920721F460E23B
:100DC00083E070CD0895803A29E0920721F460E134
:100DD00084E068CD0895803B29E0920721F460E229
:100DE00084E060CD0895803A2AE0920721F460E122
:100DF00085E058CD0895803A9B4019F460E186E083
:100E000051CD08950F931F93CF93DF9300D000D05F
:100E1000CDB7DEB709831A832B833C834D831E82B3
:100E2000BE016F5F7F4F27D32696CDBFDEBFDF9118
:100E3000CF911F910F910895FB018081E82FE695D6
:100E4000E695E69540E2E49FF0011124FA5F877091
:100E500021E030E0A90102C0440F551F8A95E2F756
:100E600046830895FB018081E82FE695E695E69597
:100E700040E2E49FF0011124FA5F877021E030E046
:100E8000A90102C0440F551F8A95E2F745830895D2
:100E900043E050E061E080EE97E05EDF43E050E049
:100EA00062E080EE97E058DF43E050E060E180E6EA
:100EB00096E052DF41E050E460E280E696E04CDFED
:100EC00040E05BE160E280E896E046DF40E05BE125
:100ED00062E080EA96E040DF40E05BE164E080EAC7
:100EE00096E03ADF43E050E062E080E696E034DFEF
:100EF00043E050E068E080E696E02EDF43E050E01B
:100F000068E080EA96E028DF43E050E061E080E6B8
:100F100096E022DF43E050E068E080E096E01CDFEE
:100F200041E050E060E180E896E016DF43E050E009
:100F300062E080E696E010DF43E050E068E080E6A3
:100F400096E00ADF40E050E064E080E696E004DFEF
:100F500043E050E060E180EA96E0FEDE40E050E0F1
:100F600061E080E096E0F8DE40E050E064E080E0A0
:100F700096E0F2DE40E050E062E080E296E0ECDEF7
:100F800043E050E068E080E496E0E6DE40E050E0D8
:100F900064E080E496E0E0DE43E050E068E080E674
:100FA00096E0DADE40E050E064E080E696E0D4DEF1
:100FB00043E050E068E080E896E0CEDE40E050E0BC
:100FC00064E080E896E0C8CE08954F925F926F92F9
:100FD0007F928F929F92AF92BF92EF92FF920F9368
:100FE0001F93CF937C014A015B0128013901FC0169
:100FF000848182FF16C0D901C801689412F8B695A1
:10100000A795979587951694D1F7B901A801032E56
:1010100036E176956795579547953A95D1F7302DF6
:1010200015C0D901C801689413F8B695A79597958E
:1010300087951694D1F7B901A801032E37E176956B
:101040006795579547953A95D1F7302D88159905AD
:10105000AA05BB0508F4A6C084169506A606B70621
:1010600008F4A2C0F701848182FD04C0880C991C99
:10107000AA1CBB1CC301B201A50194010E94251E3C
:101080002F3F31054105510508F490C08FEF90E0E6
:10109000A0E0B0E0C9EF05C0281739074A075B0791
:1010A00058F0880F991FAA1FBB1FCD3F0CF4816019
:1010B000CF5FC73089F74FC0CC230CF04CC0D501AF
:1010C000C401880F991FAA1FBB1F880F991FAA1F51
:1010D000BB1F880F991FAA1FBB1F481A590A6A0A0B
:1010E0007B0ACE3FF4F48DEF9FEF8C1B9109C7FD77
:1010F000939504C0440C551C661C771C8A95D2F746
:10110000D501C401B695A79597958795BC01CD01EA
:10111000640D751D861D971DA50194010E94251E55
:1011200037C083E08C0FA501940104C0220F331F48
:10113000441F551F8A95D2F7DA01C901B695A795C4
:1011400097958795BC01CD01640D751D861D971D72
:101150000E94251E1DC083E08C0FA501940104C0D0
:10116000220F331F441F551F8A95D2F7DA01C90198
:10117000B695A79597958795BC01CD01640D751D12
:10118000861D971D0E94251E2150310941095109D4
:10119000832F8F70C295C07FC82BF701C78326832A
:1011A00081E018C080E016C080E014C0D501C40101
:1011B000880F991FAA1FBB1F880F991FAA1FBB1F4B
:1011C000880F991FAA1FBB1F481A590A6A0A7B0A6F
:1011D000C9EF89CFCF911F910F91FF90EF90BF90F2
:1011E000AF909F908F907F906F905F904F900895F9
:1011F0000F931F93CF93DF93EC018B01009709F4BA
:10120000E6C0803C910521F460E180E04BDBDFC06B
:10121000C03881E0D80721F462E080E043DBD7C02A
:10122000C115E1E0DE0721F461E080E03BDBCFC0E7
:10123000C038F3E0DF0721F461E081E033DBC7C0B1
:10124000C03983E0D80721F461E082E02BDBBFC026
:10125000C115E2E0DE0721F462E081E023DBB7C0E4
:10126000C034F2E0DF0721F462E082E01BDBAFC0B4
:10127000C03283E0D80721F464E082E013DBA7C02A
:10128000C115E8E0DE0721F461E083E00BDB9FC0DD
:10129000C115F9E0DF0721F461E084E003DB97C0CA
:1012A000C1158AE0D80721F461E085E0FBDA8FC040
:1012B000C115EBE0DE0721F461E086E0F3DA87C0D8
:1012C000C034F8E0DF0721F462E083E0EBDA7FC0AE
:1012D000C03489E0D80721F462E084E0E3DA77C023
:1012E000C034EAE0DE0721F462E085E0DBDA6FC0BB
:1012F000C039F8E0DF0721F464E083E0D3DA67C0A7
:10130000C03989E0D80721F464E084E0CBDA5FC01B
:10131000C039EAE0DE0721F464E085E0C3DA57C0B3
:10132000C039FBE0DF0721F464E086E0BBDA4FC0A0
:10133000C03C88E0D80721F468E083E0B3DA47C016
:10134000C03CE9E0DE0721F468E084E0ABDA3FC0AE
:10135000C03AF8E0DF0721F460E183E0A3DA37C0A8
:10136000C03A89E0D80721F460E184E09BDA2FC01D
:10137000C03AEAE0DE0721F460E185E093DA27C0B5
:10138000C03AFBE0DF0721F460E186E08BDA1FC0A2
:10139000C03B88E0D80721F460E283E083DA17C01D
:1013A000C03BE9E0DE0721F460E284E07BDA0FC0B5
:1013B000C038F4E0DF0721F460E483E073DA07C0AB
:1013C000C03A84E0D80719F460E485E06BDA8D81D7
:1013D0008F738D83F80195818481892B968191117A
:1013E00098E0892B8D83F80140815181628173815E
:1013F00000E814E82EE130E0CE01E7DD9C81986042
:101400009C839C8190619C83DF91CF911F910F9170
:101410000895CF92DF92EF92FF920F931F93CF9395
:10142000DF93EC01D901C801B695A79597958795EB
:10143000481759076A077B0778F46A017B01CC0CCF
:10144000DD1CEE1CFF1CC901B801A70196010E941A
:10145000251E2150310902C020E030E0832F8F701B
:101460008F832E83DF91CF911F910F91FF90EF908B
:10147000DF90CF900895DF92EF92FF920F931F932A
:10148000CF93DF931F92CDB7DEB77C018B0100971E
:1014900009F4B2C1803C910521F460E180E002DAF8
:1014A000ABC180E8E81681E0F80621F462E080E054
:1014B000F9D9A2C1E114E1E0FE0621F461E080E087
:1014C000F1D99AC1F0E8EF16F3E0FF0621F461E0EC
:1014D00081E0E8D991C130E9E31633E0F30621F465
:1014E00061E082E0DFD988C1E11482E0F80621F4EE
:1014F00062E081E0D7D980C1E0E4EE16E2E0FE06CA
:1015000021F462E082E0CED977C1F0E2EF16F3E099
:10151000FF0621F464E082E0C5D96EC1E11438E031
:10152000F30621F461E083E0BDD966C1E11489E0EE
:10153000F80621F461E084E0B5D95EC1E114EAE087
:10154000FE0621F461E085E0ADD956C1E114FBE06F
:10155000FF0621F461E086E0A5D94EC130E4E31630
:1015600038E0F30621F462E083E09CD945C180E4D1
:10157000E81689E0F80621F462E084E093D93CC1E2
:10158000E0E4EE16EAE0FE0621F462E085E08AD9A6
:1015900033C1F0E9EF16F8E0FF0621F464E083E0E0
:1015A00081D92AC130E9E31639E0F30621F464E079
:1015B00084E078D921C180E9E8168AE0F80621F4B0
:1015C00064E085E06FD918C1E0E9EE16EBE0FE06B5
:1015D00021F464E086E066D90FC1F0ECEF16F8E084
:1015E000FF0621F468E083E05DD906C130ECE31624
:1015F00039E0F30621F468E084E054D9FDC080EAC4
:10160000E81688E0F80661F460E183E04BD9E0EA8F
:10161000F8E084818F7E8483F801248122504CC0BD
:10162000F0EAEF16F9E0FF0621F460E184E03AD930
:10163000E3C030EAE3163AE0F30621F460E185E026
:1016400031D9DAC080EAE8168BE0F80621F460E1CF
:1016500086E028D9D1C0E0EBEE16E8E0FE0621F4E2
:1016600060E283E01FD9C8C0F0EBEF16F9E0FF0697
:1016700021F460E284E016D9BFC030E8E31634E01C
:10168000F30621F460E483E00DD9B6C080EAE816E1
:1016900084E0F80621F460E485E004D9ADC0F701E8
:1016A00084818F7E8483FB0124812250C701F0EA6C
:1016B000EF16F8E0FF0649F480914E0684FDA5C0C0
:1016C0000F2EF1E1DF2EF02DA4C0803B38E0930710
:1016D00091F0803AE9E09E0749F430916E0634FDBE
:1016E0009BC00F2EF9E1DF2EF02D16C0803BF9E0F4
:1016F0009F07F1F004C00F2EF5E1DF2EF02D803AA8
:101700003AE0930749F480918E0684FD8AC00F2E3B
:10171000F1E2DF2EF02D15C0803A9B4091F48091CC
:10172000AE0684FD0AC00F2EF9E2DF2EF02D09C0AF
:101730000F2EFDE1DF2EF02D04C00F2EFDE2DF2E77
:10174000F02DED2DE695E695E69530E2E39FF0016C
:101750001124FA5F3D2D377081E090E0032E02C026
:10176000880F991F0A94E2F78183223010F040E03D
:1017700001C040E4DF015096A30FB11D9FB79983CC
:10178000F89439812C9127702C939C91942B9C93E5
:101790003FBF8583F7018581806C8583F801848153
:1017A0008D7F813029F4F70185818260858304C0B3
:1017B000F70185818D7F8583F8018581882329F054
:1017C000F70185818460858304C0F70185818B7F63
:1017D0008583F801408151816281738100E814E8BA
:1017E0002EE130E0C70115DEF70184818860848333
:1017F0008481806184831AC0F70184818F7E848311
:10180000F80124812250C70160CF0F2EF5E1DF2EB1
:10181000F02D80EA98E06ACF0F2EFDE1DF2EF02D4B
:101820007BCF0F2EF5E2DF2EF02D8BCF0F90DF91C7
:10183000CF911F910F91FF90EF90DF900895FC01E1
:101840000396818392832FEF3FEF23833483858335
:1018500096838783908710820895FC0110861186F5
:101860000895CF93DF939C01FB01DC011196CD918C
:10187000DC911297C283D3838C819D81848395836D
:101880008C819D81DC0112966D937C9313976C8300
:101890007D8320873187F90180818F5F8083DF918D
:1018A000CF910895CF93DF93EB01488159814F3F4A
:1018B0002FEF520721F4FC01A781B0850DC0DC0198
:1018C000139601C0DF011296ED91FC9113972081D0
:1018D000318142175307B0F71296ED91FC9113979F
:1018E000EA83FB83C483D583AC83BD831296CD93F7
:1018F000DC93139788879987FC0120812F5F2083D1
:10190000DF91CF910895CF93DF93FC01A085B1853E
:10191000C281D381848195818C839D83C481D5814B
:10192000828193818A839B8311968D919C911297DA
:10193000E817F90731F48481958111968D939C9372
:101940001297108611868C9181508C93DF91CF91E4
:1019500008950F931F938B0171E1FC017083319700
:1019600062E26083319723E32083012E000C220B77
:10197000330B319700833197108331972083319750
:101980001082319720E8208331971082319722E02E
:101990002083319723E02083319724E020833197FF
:1019A00025E02083319726E02083319727E02083AC
:1019B000319728E02083319729E02083319720E177
:1019C000208331977083319722E12083319723E17F
:1019D0002083319724E12083319725E120833197BB
:1019E00026E12083319727E12083319728E1208366
:1019F000319729E12083319720E22083319721E23A
:101A0000208331976083319723E22083319740838D
:101A100031975083319726E22083319727E2208344
:101A2000319728E22083319729E22083319720E300
:101A30002083319721E3208387971F910F91089589
:101A4000F894E0E7F0E083818A7F8383E0E0F8E0C8
:101A500080E09AEF86A397A391E09683A0EAB0E096
:101A600012968C911297816012968C939083789441
:101A7000A0915824B09159240D900DBE0D900EBE2A
:101A8000FF91EF91DF91CF91BF91AF919F918F9196
:101A90007F916F915F914F913F912F911F910F9186
:101AA000FF90EF90DF90CF90BF90AF909F908F907E
:101AB0007F906F905F904F903F902F901F900F906E
:101AC0000FBE0F90089581E008950F920FB6F8941D
:101AD0000F921F9211242F923F924F925F926F921A
:101AE0007F928F929F92AF92BF92CF92DF92EF92AE
:101AF000FF920F931F932F933F934F935F936F9397
:101B00007F938F939F93AF93BF93CF93DF93EF9385
:101B1000FF93A0915824B09159240DB60D920EB6A2
:101B20000D925AD6A0915824B09159240D900DBE13
:101B30000D900EBEFF91EF91DF91CF91BF91AF91CC
:101B40009F918F917F916F915F914F913F912F91D5
:101B50001F910F91FF90EF90DF90CF90BF90AF90CB
:101B60009F908F907F906F905F904F903F902F90BD
:101B70001F900F900FBE0F9008950F920FB6F8941C
:101B80000F921F9211242F923F924F925F926F9269
:101B90007F928F929F92AF92BF92CF92DF92EF92FD
:101BA000FF920F931F932F933F934F935F936F93E6
:101BB0007F938F939F93AF93BF93CF93DF93EF93D5
:101BC000FF93A0915824B09159240DB60D920EB6F2
:101BD0000D9297D4811100D6A0915824B091592428
:101BE0000D900DBE0D900EBEFF91EF91DF91CF9144
:101BF000BF91AF919F918F917F916F915F914F9125
:101C00003F912F911F910F91FF90EF90DF90CF9018
:101C1000BF90AF909F908F907F906F905F904F900C
:101C20003F902F901F900F900FBE0F901895CF935D
:101C3000DF93EC0156D4CE010E944F1EEC0134D547
:101C4000CE01DF91CF910895CF93DF93009731F0CC
:101C5000EC0147D4CE010E94E71E26D5DF91CF913B
:101C600008951F93CF93DF93EC01142F4C8D4111F6
:101C70000BC088819981892B09F044C08A819B819E
:101C800047D71A821B8245C0111117C050E08C81C2
:101C90009D810E94701F2C8D8C819D81820F911DD2
:101CA0008C839D832A813B818217930768F1888109
:101CB00099818C839D8380E02CC050E08E819F8130
:101CC0000E94701F8C8D90E09195819591092E81D5
:101CD0003F81280F391F2E833F8348815981241764
:101CE000350730F42A813B81820F931F8E839F83B7
:101CF000123061F48A8D882359F08A8D81508A8F41
:101D000080E007C080E005C080E003C080E001C043
:101D100080E09A8D9F5F9A8FDF91CF911F910895F8
:101D2000FC01448D4423A9F050E026813781240F23
:101D3000351F26833783828193812817390720F046
:101D40008081918186839783CB01668177810C9412
:101D5000701F08950F931F93CF93DF93EC010FB67D
:101D6000F8940F928E8D1816ACF48989811105C0F4
:101D700011C08989811104C00DC08E010F5E1F4FF3
:101D8000C801CED5811150D68E8D81508E8F8E8D0B
:101D900018167CF38FEF8E8F0F900FBE0FB6F8944E
:101DA0000F928D8D1816ACF48885811105C011C075
:101DB0008885811104C00DC08E01085F1F4FC801C6
:101DC000AFD5811131D68D8D81508D8F8D8D1816A7
:101DD0007CF38FEF8D8F0F900FBEDF91CF911F910E
:101DE0000F910895CF93DF93EC010FB6F8940F9203
:101DF000488159812C8D30E07B8D729FC001739F8B
:101E0000900D1124FA01E80FF91FEA83FB831A8E63
:101E10004C835D83821B930B840F951F8E839F835E
:101E20008FEF8D8F8E8F61110AC08885882369F0AE
:101E3000CE01089675D5813041F447DE06C0CE014B
:101E40000896FDDCCE014196FADC0F900FBE81E0D2
:101E5000DF91CF9108950F931F93CF93DF93082FB6
:101E6000162F6623A9F0869FC00111248096DFDE1D
:101E7000EC01009721F412C0C883D98303C04F96A8
:101E8000888399830B8F1C8F61E0CE01ABDF06C086
:101E90008FE190E0CCDEEC01892B71F7CE01DF9170
:101EA000CF911F910F910895AF92BF92CF92DF9281
:101EB000EF92FF920F931F93CF93DF93CDB7DEB7CF
:101EC0002597CDBFDEBF8C016B014C835D83A22EB5
:101ED000B12C7C0188E0E80EF11C0FB6F8940F924B
:101EE000F801928D838D981718F0F2E0AF1215C0AB
:101EF0004A2DB601C801B5DEF8019189992339F060
:101F0000C80141960DD5813021F4DFDD02C0811179
:101F1000DCDD0F900FBE81E046C08C819D81892B56
:101F200021F40F900FBE80E03EC0B11005C0CE017D
:101F300001963ED5BB24B3940F900FBED2D20FB6FC
:101F4000F8940F92F801858D8F3F09F4158EF801F2
:101F5000868D8F3F09F4168E0F900FBEBE016C5F09
:101F60007F4FCE0101962FD5811119C00FB6F8947D
:101F70000F92F801928D0F900FBE838D98130BC0B6
:101F80006C817D81C70195D4C801E4DE8DD38111B8
:101F9000A4CF9BDDA2CFC801DDDE86D39ECFC801D2
:101FA000D9DE82D380E02596CDBFDEBFDF91CF9111
:101FB0001F910F91FF90EF90DF90CF90BF90AF9067
:101FC0000895CF93DF938FE190E031DEEC01892B10
:101FD000E1F01A821B82188219821C821D821E82E5
:101FE0001F821A8E81E08B8F1C8E8FEF8D8F8E8FCC
:101FF000CE01089624DCCE01419621DC20E040E0B1
:1020000050E060E070E0CE014FDFCE01DF91CF9174
:1020100008950F931F93CF93DF93FA01DC015A9633
:102020005C915A975B963C91531710F02230D9F48B
:10203000422F8F01EC0115DE8E8D8F3F79F4898957
:10204000882399F0CE0141966BD4882381F0011545
:10205000110579F081E0F80180830CC08E8D8F5FCF
:102060008E8F81E007C080E005C081E003C081E081
:1020700001C081E0DF91CF911F910F910895AF9240
:10208000BF92CF92DF92EF92FF920F931F93CF9365
:10209000DF93CDB7DEB72597CDBFDEBF8C016B01D7
:1020A0004C835D83A22EB12C7C0181E1E80EF11CF2
:1020B0000FB6F8940F92F801828D882369F1E680BB
:1020C000F780B601C8012CDEA11017C0F801828D7F
:1020D0008150828F80819181892B21F459D5F8011B
:1020E00082839383F8018085882391F0C801089644
:1020F00017D4813069F4E9DC0BC0F801E682F7827D
:102100008189882329F0C80141960AD48111DDDC38
:102110000F900FBE81E051C08C819D81892B21F4ED
:102120000F900FBE80E049C0B11005C0CE010196EE
:102130003FD4BB24B3940F900FBED3D10FB6F89405
:102140000F92F801858D8F3F09F4158EF801868D69
:102150008F3F09F4168E0F900FBEBE016C5F7F4F4C
:10216000CE01019630D4811124C00FB6F8940F929D
:10217000F801828D0F900FBE811117C0808191816F
:10218000892B41F40FB6F8940F92828193815ED42B
:102190000F900FBE6C817D81C7018BD3C801DADD42
:1021A00083D2811185CF91DC83CFC801D3DD7CD26E
:1021B0007FCFC801CFDD78D280E02596CDBFDEBFCE
:1021C000DF91CF911F910F91FF90EF90DF90CF9013
:1021D000BF90AF900895CF93DF93EC010FB6F894C2
:1021E0000F928D8D8F3F09F41D8E8E8D8F3F09F4D8
:1021F0001E8E0F900FBE8A8D811103C0CE014196B5
:1022000073D3CE01A7DDDF91CF910895CBE2D4E265
:1022100088818230F0F359DCFBCFCF93DF93EC0160
:10222000E0915824F091592482839383809109246A
:1022300090910A24C817D90760F4609158247091CE
:10224000592480911524909116246E5F7F4F2ADBCC
:1022500016C0609158247091592480911724909150
:1022600018246E5F7F4F1EDB80910D2090910E2011
:10227000C817D90720F4C0930D20D0930E20DF910A
:10228000CF9108954F925F926F927F928F929F921B
:10229000AF92BF92CF92DF92EF92FF920F931F9374
:1022A000CF93DF934C01EB015A012901C114D104F2
:1022B00031F4CA01BCDC6C01892B09F4D4C088E27A
:1022C00090E0B5DC3C01009779F0FC01C78AD08E24
:1022D000F1E0AF1AB108CA0CDB1C8881F301818FD1
:1022E0008881811104C013C0C601AEDCBCC0D3011B
:1022F0005A96FE0131969E01285F3F4FEF01819172
:102300008D938881882319F02E173F07B9F7F301C1
:1023100010A2102F053008F014E0F301168B11A362
:1023200012A2E3012296CE0198DAC3010C9695DA47
:10233000F3016086718685E090E0811B91098487B6
:102340009587628A738A13A214A215A216A217A2F5
:10235000A201B401C601FDDAF30180839183E11487
:10236000F10419F0F701608271820FB6F8940F92B0
:1023700080910B248F5F80930B248091582490913F
:102380005924892B91F56092582470925924809198
:102390000B248130C9F50F2EFBE2EF2EF4E2FF2E65
:1023A000F02D0F2EF8E5CF2EF4E2DF2EF02DC70131
:1023B00046DAF9E0EF0EF11CEC14FD04C1F782E2FD
:1023C00094E23DDA89E194E23ADA8CE094E237DA99
:1023D00082E294E2809317249093182489E194E296
:1023E00080931524909316240FC0809107248111A7
:1023F0000BC0E0915824F09159248689081720F0E9
:102400006092582470925924809103248F5F8093A6
:102410000324F301868990910824981710F480937F
:10242000082490E09C01220F331F220F331F220F3C
:10243000331F820F931FBE01855D9B4D12DA0F90F3
:102440000FBE80910724882351F0E0915824F09129
:1024500059248689801728F438DB81E005C081E0A3
:1024600003C081E001C08FEFDF91CF911F910F91E9
:10247000FF90EF90DF90CF90BF90AF909F908F90A4
:102480007F906F905F904F900895AF92BF92CF92E0
:10249000DF92EF92FF920F93A12CB12CC12CD12C83
:1024A000E12CF12C00E020E030E045E550E066E171
:1024B00070E286E091E1E6DE813059F4D2D38130DA
:1024C00041F4F894809307241092092410920A246E
:1024D000B7DA0F91FF90EF90DF90CF90BF90AF9061
:1024E0000895809102248F5F8093022408950FB68F
:1024F000F8940F928091092490910A240F900FBEB6
:102500000895DF92EF92FF920F931F93CF93DF9383
:10251000809102248111B3C08091092490910A24F2
:1025200001968093092490930A24E0900924F09066
:102530000A24E114F10499F580911724909118244C
:1025400020911524309116242093172430931824B9
:102550008093152490931624809104248F5F809398
:102560000424E0911724F09118248081811107C080
:102570008FEF9FEF80930D2090930E2010C0E0917D
:102580001724F09118240580F681E02D0680F7814C
:10259000E02D8281938180930D2090930E20809175
:1025A0000D2090910E20E816F90610F4D12C4FC0A2
:1025B000D12CE0911724F09118248081811107C05B
:1025C0008FEF9FEF80930D2090930E2040C0E091FD
:1025D0001724F09118240580F681E02DC681D7815B
:1025E0008A819B81E816F90628F480930D20909348
:1025F0000E202DC08E010E5F1F4FC80184D98C891B
:102600009D89892B19F0CE010C967DD98E899091E8
:102610000824981710F48093082490E09C01220F5E
:10262000331F220F331F220F331F820F931FB80156
:10263000855D9B4D16D9E0915824F09159249E89CF
:102640008689981708F4B5CFDD24D394B2CFE091F2
:102650005824F0915924868990E0FC01EE0FFF1F69
:10266000EE0FFF1FEE0FFF1F8E0F9F1FFC01E55D9A
:10267000FB4D8081823048F0DD24D39406C08091E8
:1026800006248F5F80930624D12C80910524882313
:1026900011F0DD24D3948D2DDF91CF911F910F91F7
:1026A000FF90EF90DF900895DF92EF92FF920F93EB
:1026B0001F93CF93DF930FB6F8940F92809102246B
:1026C0008150809302248091022481115DC0809109
:1026D0000B24811130C05BC0D7011596ED91FC91A0
:1026E0001697C681D781CE010C960DD98E010E5F4B
:1026F0001F4FC80108D98E8990910824981710F4AB
:102700008093082490E09C01220F331F220F331F77
:10271000220F331F820F931FB801855D9B4DA1D8F7
:10272000E0915824F09159249E898689981758F091
:10273000D092052408C00F2EFCE0EF2EF4E2FF2E0D
:10274000F02DDD24D394F70180818111C5CF8091D4
:102750000624882391F080910624882371F0C1E03B
:10276000D0DE8111C093052480910624815080938E
:102770000624809106248111F3CF809105248130B5
:1027800029F4A3D981E003C080E001C080E00F906C
:102790000FBEDF91CF911F910F91FF90EF90DF90CF
:1027A0000895CF93DF93EC01892B91F09ADE80910D
:1027B000092490910A24C80FD91F80915824909120
:1027C00059240296A0D8CE0128DD6EDF811101C008
:1027D0007CD9DF91CF91089580910224882321F044
:1027E00081E08093052408951092052480910824A7
:1027F00090E0FC01EE0FFF1FEE0FFF1FEE0FFF1F1B
:102800008E0F9F1FFC01E55DFB4D8081811117C07C
:10281000809108248150809308248091082490E0BE
:10282000FC01EE0FFF1FEE0FFF1FEE0FFF1F8E0FBD
:102830009F1FFC01E55DFB4D8081882349F380915A
:10284000082490E09C01220F331F220F331F220F18
:10285000331F280F391FD901A55DBB4D1196ED918E
:10286000FC9112970280F381E02D1196ED93FC9379
:102870001297225D3B4DE217F30729F42281338141
:10288000FD0121833283FC01EE0FFF1FEE0FFF1FBE
:10289000EE0FFF1F8E0F9F1FFC01E55DFB4D0180BA
:1028A000F281E02D8681978180935824909359245A
:1028B0000895CF93DF93EB016091582470915924D0
:1028C000645F7F4F0E94520C80915824909159244C
:1028D000029619D88091092490910A248C0F9D1F8B
:1028E0009CDCDF91CF910895CF93DF93EB01609152
:1028F000582470915924645F7F4F0E94310C80915D
:1029000058249091592402960E94830C80910924A6
:1029100090910A248C0F9D1F80DCDF91CF91089548
:102920000F931F93CF93DF93DC011596ED91FC91EC
:102930001697C681D7818E01045F1F4FC8010E9480
:10294000830C8091022481111CC00A501109C80116
:102950000E94830C8E8990910824981710F480931C
:10296000082490E09C01220F331F220F331F220FF7
:10297000331F820F931FB801855D9B4D0E94310C60
:1029800005C0B8018CE094E20E94310CE09158241B
:10299000F09159249E898689891720F481E08093DB
:1029A000052401C080E0DF91CF911F910F91089520
:1029B00020910424FC0120832091092430910A24D1
:1029C000218332830895CF93DF93FC010FB6F894EF
:1029D0000F922091092430910A248091042490813F
:1029E000981729F08181928128173907A8F4A181CD
:1029F000B281EB0148815981C9018A1B9B0B841765
:102A0000950760F4CF01A21BB30B4A0F5B1F4883ED
:102A10005983CEDF80E003C081E001C081E00F90E8
:102A20000FBEDF91CF91089581E080930524089532
:102A300080910724882331F080910224882321F09B
:102A400080E0089581E0089582E008950F931F9338
:102A5000CF93DF93FC01892B09F455C02689A091FF
:102A60005824B091592456968C91281708F04BC0E1
:102A700084859585992364F0A0915824B0915924B8
:102A800056963C9185E090E0831B91098487958759
:102A900030E0C901880F991F880F991F880F991F6F
:102AA000280F391F255D3B4D82859385821793073B
:102AB00019F58F01EF012296CE010E94830CE0915F
:102AC0005824F09159248689F801868B9091082426
:102AD000981710F48093082490E09C01220F331F74
:102AE000220F331F220F331F820F931FBE01855DFC
:102AF0009B4D0E94310C07C0A0915824B0915924DD
:102B000056968C91868BDF91CF911F910F910895EE
:102B10000F931F93CF93DF93FC01892B79F182A14F
:102B2000815082A3268991A1291751F181112AC0D0
:102B3000EF018F010E5F1F4FC8010E94830C89A116
:102B40008E8B25E030E0281B31092C873D87909142
:102B50000824981710F48093082490E09C01220F19
:102B6000331F220F331F220F331F820F931FB80111
:102B7000855D9B4D0E94310C81E005C080E003C063
:102B800080E001C080E0DF91CF911F910F91089507
:102B90008091582490915924892B39F0E091582440
:102BA000F091592482A18F5F82A380915824909143
:102BB00059240895FC0162837383808791874617A7
:102BC000570790F0421B530B84859585481759078A
:102BD000E0F4BF016E5F7F4F80915E2490915F248F
:102BE0000E94520C80E008954217530718F46217B0
:102BF000730768F4BF016E5F7F4F809160249091EE
:102C000061240E94520C80E0089581E0089581E0E3
:102C100008950FB6F8940F9280915C2490915D24F2
:102C2000892BE1F48BE694E20E941F0C82E694E289
:102C30000E941F0C8BE694E28093602490936124A1
:102C400082E694E280935E2490935F2440E065E006
:102C50008AE001D980935C2490935D240F900FBE8D
:102C60000895AF92BF92CF92DF92EF92FF920F93AF
:102C7000D0DF80915C2490915D24892B89F0A12C78
:102C8000B12CC12CD12CE12CF12C03E020E030E060
:102C900045E550E06BE170E289E097E1F3DA01C0CD
:102CA00080E00F91FF90EF90DF90CF90BF90AF90BA
:102CB00008950F931F93CF93DF93CDB7DEB725977A
:102CC000CDBFDEBFE0915C24F0915D24309751F1DF
:102CD000D90169834A835B838C839D836630D4F4F6
:102CE000A7DE823059F420E0A801BE016F5F7F4F5C
:102CF00080915C2490915D24D7D815C020E040E0FD
:102D000050E0BE016F5F7F4F80915C2490915D2405
:102D1000CBD809C020E0AD01BE016F5F7F4FCF016E
:102D200078D901C080E02596CDBFDEBFDF91CF917D
:102D30001F910F910895AF92BF92CF92DF92EF92C1
:102D4000FF920F931F93CF93DF936C01D0DB7C0135
:102D500080915A2490915B24E816F90608F047C048
:102D60002FC00580F681E02DA080B180C681D7817B
:102D70008E010E5F1F4FC8010E94830CE989FA89FA
:102D8000CE0119958E858130D9F48C859D858A0D6B
:102D90009B1DA816B90660F48A839B83C887D987D0
:102DA000B80180916024909161240E94520C08C067
:102DB00000E010E020E030E0A50160E0CE0179DF26
:102DC000E0916024F091612480818111CACF8091CB
:102DD0005E2490915F248093602490936124E0931B
:102DE0005E24F0935F2481E0F601808302C0F60147
:102DF0001082E0925A24F0925B24C701DF91CF91B8
:102E00001F910F91FF90EF90DF90CF90BF90AF9008
:102E10000895CF93DF9300D000D0CDB7DEB7CE01B9
:102E200001965C01E82EFB2CE0916024F091612476
:102E30008081882309F4B7C00580F681E02DC08029
:102E4000D1804FDBC50177DF8C018981811143C0BF
:102E50000C151D0590F128DCE0916024F0916124AF
:102E60000580F681E02D86809780C40102960E943D
:102E7000830CD4011E968C911E978130A1F41C9670
:102E80006D917C911D976C0D7D1D9601A801C4016B
:102E900091DE813041F400E010E020E030E0A60156
:102EA00060E0C40106DFD4015196ED91FC91529788
:102EB000C40119956BC0C12CD12CB601601B710BDC
:102EC00080915C2490915D2486D9EEDB81115EC0F7
:102ED0000E94650D5BC0E8DB59C0898188230CF432
:102EE00055C0CC80DD80F60182859385892B21F049
:102EF000C60102960E94830CCE0106961CDFAC012F
:102F00008981082E000C990BAA0BBB0B8A30910506
:102F100008F03CC0FC018827E250FF4F8F4FB7C636
:102F20002A813B81D6011C966D917C911D97620F81
:102F3000731FC6013FDE813049F5D6015196ED91F0
:102F4000FC915297C6011995F60186858130F1F4FE
:102F50004A815B8184859585480F591F00E010E008
:102F600020E030E060E0C601A4DE10C06A817B8111
:102F7000D6011C966D937C931D97640F751F9A0163
:102F8000C60118DE03C0C6010E94240E20E040E006
:102F900050E06E2D7F2D80915C2490915D246FD840
:102FA00081119BCF41CF9DDAC501C5DE8C0189819E
:102FB000882309F480CF8FCF04C061507109810943
:102FC00091096115710581059105B9F70895CF93B0
:102FD000DF93CDB7DEB72A97CDBFDEBF11E020E08B
:102FE00042E350E0BE016F5F7F4F809100259091DA
:102FF000012545D8813009F07DC020E04BE350E049
:1030000060E070E0809102259091032538D88130EE
:1030100009F070C080917924882309F460C063E2CC
:1030200070E2CE01019665D7892B19F526E030E2D2
:1030300048E160E088E290E20E94830620E04BE3F2
:1030400050E060E070E08091FA249091FB2417D862
:10305000813009F044C01093762420E040E050E035
:1030600060E070E08091FA249091FB240E94540F5C
:1030700036C06AE370E2CE0101963BD7892B79F521
:1030800026E030E248E160E080E490E20E948306BE
:1030900020E04BE350E060E070E08091FA249091F2
:1030A000FB240E943F108130D1F41092762420E05E
:1030B00040E050E060E070E08091FA249091FB24C1
:1030C0000E94540F6BE674E081E090E075DF26E02B
:1030D00030E248E160E082E590E20E94830620E071
:1030E00040E050E060E070E080910225909103257F
:1030F0000E94540F82E390E054DB71CFCF93DF93B3
:103100001F92CDB7DEB7E0E8F6E081E0828388E188
:10311000808B26E030E240E160E08BE790E20E94A5
:103120008306312C00E816E00F2EFDE8AF2EF0E20A
:10313000BF2EF02D6894222427F80F2EFAE7CF2E09
:10314000F4E2DF2EF02D0F2EF7E68F2EF0E29F2E09
:10315000F02D0F2EF1E76F2EF0E27F2EF02DF8010B
:10316000508420E04BE350E060E070E08091022565
:10317000909103250E943F10813009F09CC08091FE
:103180007924882309F48CC020E04BE350E060E010
:1031900070E08091FE249091FF240E943F108130C6
:1031A00009F07EC04424439450FAEE24E0F8F12C58
:1031B00050FE412C341005C080917724882309F4F7
:1031C00062C020E04BE350E060E070E08091FA24C0
:1031D0009091FB240E943F108130F1F4809176247D
:1031E000882379F0332069F0E114F10451F410924E
:1031F000762426E030E248E160E082E590E20E9439
:10320000830620E040E050E060E070E08091FA2426
:103210009091FB240E94540F10927724EF2819F408
:10322000862D972D02C0882D992D9F938F93BF9245
:10323000AF921F922F92DF92CF927ED626E030E29D
:1032400040E160E0C6010E948306498220E042E33B
:1032500050E0BE016F5F7F4F8091FC249091FD2470
:103260000E94540FCDBFDEBF813071F489811F925F
:103270008F9387E990E29F938F934BD60F900F9097
:103280000F900F9001C0432C20E040E050E060E040
:1032900070E08091FE249091FF240E94540F342C02
:1032A00020E040E050E060E070E0809102259091E5
:1032B00003250E94540F82E390E073DA50CF1092FE
:1032C000A7088CE08093A6081092A30883E080935F
:1032D000A50888E18093A4080895E1EAF8E08081D8
:1032E0008823ECF78091A0080895CF92DF92EF92A7
:1032F000FF920F931F93CF93DF936C01161617065F
:103300003CF4FC01860F971F1192E817F907E1F7CB
:103310007B0181E0E81AF1081E141F0484F4860181
:10332000C0E0D0E0DADF8A3061F08D3051F02196D4
:10333000F80181938F01CE15DF05A4F302C0C0E030
:10334000D0E0F601EC0FFD1F1082CE01DF91CF918E
:103350001F910F91FF90EF90DF90CF900895CF9342
:10336000DF93CDB7DEB76497CDBFDEBF88E0809333
:1033700045068093410684E080934606809342068A
:103380009EDF6FE070E280EA98E00E94F8080DEAA4
:1033900010E26AE070E0CE010196A7DF63E270E21E
:1033A000CE010196A6D5892B39F06AE370E2CE01F1
:1033B00001969FD5892BC9F4BE016F5F7F4FCE0167
:1033C0000B96A0D520E042E350E0BE01655F7F4F41
:1033D00080910025909101250E94540F813029F49D
:1033E0001F930F9396D50F900F9082E390E0D9D959
:1033F000D0CF88E0809385068093810684E0809317
:103400008606809382061092A70A8CE08093A60A13
:1034100083E08093A50A88E18093A40A0895CF935E
:10342000C82FE1EAFAE0808185FFFDCF66E07DE00C
:1034300080E090E0C1DDC093A00ACF910895CF93C2
:10344000DF93CDB7DEB7A097CDBFDEBFD2DF712C43
:1034500010E00F2EF0EAEF2EFAE0FF2EF02D0F2EE7
:10346000F0E88F2EF6E09F2EF02D0F2EF1ECCF2EF0
:10347000F0E2DF2EF02D6894662465F89E012F5F40
:103480003F4F590120E042E350E060E070E080915E
:103490000225909103250E943F10813009F052C00F
:1034A000F701818185FF3BC08AE0B9DFF7018181A7
:1034B00086FD07C07394F2E0F71598F11123B9F176
:1034C00001C0712CF401808580FD03C040E350E011
:1034D00002C041E350E080917824811103C020E3D1
:1034E00030E002C021E330E080917924811133C0C3
:1034F00080E390E032C0F701918195FF15C08E0105
:103500000E5F1F4F04C0F701918195FF0FC087DF49
:10351000F80181918F018111F6CF11E008C010E010
:1035200006C0712C10E003C010E001C010E020E0E4
:1035300040E050E060E070E080910225909103252A
:103540000E94540F111103C080E190E002C089E293
:1035500090E027D997CF81E390E05F934F933F931B
:103560002F939F938F93DF92CF921F926F92BF9270
:10357000AF92E2D48981CDBFDEBF8111BCCF11E013
:10358000D6CFE1EAFAE080818823ECF78091A00AA7
:103590000895CF92DF92EF92FF920F931F93CF93F4
:1035A000DF936C01161617063CF4FC01860F971F7B
:1035B0001192E817F907E1F77B0181E0E81AF108B9
:1035C0001E141F0484F48601C0E0D0E0DADF8A30E4
:1035D00061F08D3051F02196F80181938F01CE1565
:1035E000DF05A4F302C0C0E0D0E0F601EC0FFD1F40
:1035F0001082CE01DF91CF911F910F91FF90EF903C
:10360000DF90CF900895E0E4F6E0808181608083D0
:10361000E0E0F8E082E0808386E1818388EE93E059
:1036200086A397A310A611A60895CF93DF931F92A8
:10363000CDB7DEB726E030E248E160E082E590E217
:103640000E948306E0DF442443940F2EF1EFEF2E17
:10365000F0E2FF2EF02D6894552457F80AE714E2A3
:10366000A12C6894BB24B3F80F2EF0E28F2EF3E068
:103670009F2EF02D0F2EF0EECF2EF7E0DF2EF02D47
:103680006894332431F80F2EF4EF6F2E772473945F
:10369000F02D20E042E350E0BE016F5F7F4F80914C
:1036A000FC249091FD240E943F10813009F05EC0FF
:1036B00020E04BE350E060E070E0809102259091C3
:1036C00003250E943F10813009F050C020E04BE3F9
:1036D00050E060E070E08091FA249091FB240E9419
:1036E0003F108130C1F580917924882391F0898140
:1036F000882379F08091762481110BC026E030E296
:1037000040E060E081ED90E20E94830640927824E0
:1037100017C080917824882349F026E030E240E009
:1037200060E081ED90E20E9483060AC026E030E26C
:1037300040E060E081EE90E20E94830610927824DF
:1037400020E040E050E060E070E08091FA24909149
:10375000FB240E94540F20E040E050E060E070E065
:1037600080910225909103250E94540F20E04BE3A5
:1037700050E060E070E080910225909103250E9466
:103780003F10813009F05AC020E04BE350E060E088
:1037900070E08091FA249091FB240E943F108130C8
:1037A00009F041C080917824882391F1809176249A
:1037B00081112EC080917424909175240A973CF455
:1037C000F50160A671A6F6014682368206C0F501B3
:1037D00080A691A6F6014782378280917424909149
:1037E0007524019680937424909375249F938F93EE
:1037F000FF92EF921F925F921F930F939DD326E04B
:1038000030E248E160E0C8010E948306CDBFDEBF20
:1038100020E040E050E060E070E08091FA24909178
:10382000FB240E94540F20E040E050E060E070E094
:1038300080910225909103250E94540F82E390E02D
:103840000E94D11326CF1092280810922908E0EE8A
:10385000F7E081E0858382E08583109274241092E2
:103860007524089526E030E240E060E088E091E2CF
:103870000E94830626E030E248E060E08AE191E2BF
:103880000E94830626E030E240E160E08BE790E2B0
:103890000E94830626E030E248E160E08CE291E29B
:1038A0000C9483060895CF93DF93CDB7DEB72A97A4
:1038B000CDBFDEBF9EDD00EA1AE0FF24F394F801DD
:1038C000818188230CF05BC06AE070E0CE01019634
:1038D00060DE181619060CF052C020E042E350E0FA
:1038E00060E070E080910225909103250E943F10D6
:1038F000813009F044C06EE371E2CE010196F9D245
:10390000892B59F4F092792426E030E248E060E017
:1039100082E491E20E94830627C064E571E2CE0151
:103920000196E7D2892B01F520E042E350E060E008
:1039300070E08091FE249091FF240E943F1081301E
:1039400099F410927924F0927724109278247BDFF6
:1039500089DF20E040E050E060E070E08091FE24EC
:103960009091FF240E94540F20E040E050E060E07E
:1039700070E080910225909103250E94540F82E30C
:1039800090E00E94D1139BCFE0EAF6E086E08283CC
:1039900082E0818B828B26E030E248E060E08EE6B8
:1039A00091E20E948306C0EAD6E0DD24D3940F2E74
:1039B000F2E4EF2EF1E2FF2EF02D08E511E288850A
:1039C00081FD5BC020E04FEF5FEF60E070E0809131
:1039D0000225909103250E943F10813009F048C0D4
:1039E00020E04BE350E060E070E08091FE24909195
:1039F000FF240E943F10813081F5809179248D252C
:103A000080937924D0927724811103C0802F912F45
:103A100002C08E2D9F2D26E030E248E060E00E943B
:103A2000830680917924811105C00DDF1BDF109280
:103A3000782408C026E030E240E060E081EE90E2C9
:103A40000E94830620E040E050E060E070E080915A
:103A5000FE249091FF240E94540F20E040E050E0AB
:103A600060E070E080910225909103250E94540F40
:103A700082E390E00E94D11344C0888582FD41C05A
:103A800020E04FEF5FEF60E070E0809102259091C1
:103A900003250E943F108130A1F520E04FEF5FEF3A
:103AA00060E070E08091FE249091FF240E943F101E
:103AB0008130E1F480917924882369F0D0927724D1
:103AC00010927824C0DE26E030E248E160E08CE22B
:103AD00091E20E94830620E040E050E060E070E068
:103AE0008091FE249091FF240E94540F20E040E03A
:103AF00050E060E070E080910225909103250E94E3
:103B0000540F82E390E00E94D11359CFAF92BF923D
:103B1000CF92DF92EF92FF920F930E9448070E948C
:103B2000420487E08093A2000E940F0580E1809309
:103B3000850626E030E240E060E08FE791E20E94F7
:103B4000830681E00E94E10F809302259093032574
:103B500081E00E94E10F8093FE249093FF2481E096
:103B60000E94E10F8093FA249093FB2440E061E0EF
:103B70008AE00E942B0F8093FC249093FD2440E068
:103B80006AE08AE00E942B0F809300259093012524
:103B9000A12CB12CC12CD12CE12CF12C03E020E084
:103BA00030E048EE53E067E871E284EC9CE10E946B
:103BB000421102E020E030E048EE53E062E971E2B9
:103BC0008EE798E10E94421101E020E030E048EEEB
:103BD00053E06CE971E285E19BE10E94421120E033
:103BE00030E048EE53E069EA71E28FEA99E10E9421
:103BF000421102E020E030E048EE53E06FEB71E26A
:103C000087EE97E10E94421120E030E048EE53E059
:103C100065ED71E283E59CE10E94421101E020E044
:103C200030E048EE53E06CEE71E28FE19AE10E94E1
:103C300042110E94451280E090E00F91FF90EF90BA
:103C4000DF90CF90BF90AF900895A1E21A2EAA1BEB
:103C5000BB1BFD010DC0AA1FBB1FEE1FFF1FA2173C
:103C6000B307E407F50720F0A21BB30BE40BF50B39
:103C7000661F771F881F991F1A9469F760957095C2
:103C8000809590959B01AC01BD01CF010895EE0F89
:103C9000FF1F881F8BBF0790F691E02D19940F939B
:103CA0001F93CF93DF938230910510F482E090E070
:103CB000E0910625F091072520E030E0A0E0B0E09B
:103CC000309719F1408151810281138148175907BA
:103CD000C8F08417950769F4109731F012960C9389
:103CE000129713961C9327C000930625109307255F
:103CF00022C02115310519F04217530718F49A0113
:103D0000BD01EF01DF01F801DBCF21153105F9F02D
:103D1000281B390B2430310580F48A819B81611581
:103D2000710521F0FB018283938304C080930625F3
:103D300090930725FE01329644C0FE01E20FF31F67
:103D40008193919322503109288339833AC020917D
:103D5000042530910525232B41F420910220309138
:103D600003202093042530930525209100203091D5
:103D700001202115310541F42DB73EB740910420B3
:103D800050910520241B350BE0910425F091052569
:103D9000E217F307A0F42E1B3F0B2817390778F022
:103DA000AC014E5F5F4F2417350748F04E0F5F1F81
:103DB00040930425509305258193919302C0E0E040
:103DC000F0E0CF01DF91CF911F910F910895CF9334
:103DD000DF93009709F481C0FC01329712821382AD
:103DE000A0910625B0910725109781F4208131819B
:103DF000820F931F2091042530910525281739073C
:103E000051F5E0930425F093052567C0ED0120E00E
:103E100030E0CE17DF0740F44A815B819E014115F7
:103E20005105F1F0EA01F5CFC283D383408151817E
:103E3000840F951FC817D90759F488819981840F79
:103E4000951F0296808391838A819B8182839383CD
:103E50002115310529F4E0930625F09307253DC08F
:103E6000E901EA83FB8349915991C40FD51FEC17EF
:103E7000FD0761F480819181840F951F0296E9010D
:103E800088839983828193818A839B83E0E0F0E039
:103E900012968D919C911397009719F0FD01DC010A
:103EA000F7CF8D919C9111979D012E5F3F4F820F0F
:103EB000931F20910425309105252817390769F4AF
:103EC000309729F4109206251092072502C012821D
:103ED0001382A0930425B0930525DF91CF91089517
:103EE000FB01DC0102C001900D9241505040D8F717
:103EF0000895FB01DC018D91019080190110D9F327
:103F0000990B0895FB01DC0101900D920020E1F76F
:103F10000895CF93DF93CDB7DEB7AE014A5F5F4F11
:103F2000FA0161917191AF0180910A2590910B2561
:103F300039D0DF91CF9108950F931F93CF93DF93E3
:103F4000CDB7DEB72E97CDBFDEBF0E891F89888D16
:103F5000998D26E02C8309831A8397FF02C080E0A5
:103F600090E801978D839E83AE01445E5F4F6A8D1A
:103F70007B8DCE01019616D04D815E8157FD0AC022
:103F80002F813885421753070CF49A01F801E20F8C
:103F9000F31F10822E96CDBFDEBFDF91CF911F9110
:103FA0000F9108952F923F924F925F926F927F925E
:103FB0008F929F92AF92BF92CF92DF92EF92FF9239
:103FC0000F931F93CF93DF93CDB7DEB72B97CDBF62
:103FD000DEBF6C017B018A01FC011682178283819E
:103FE00081FFBFC1CE0101963C01F6019381F7012B
:103FF00093FD859193FF81917F01882309F4ADC1E1
:10400000853239F493FD859193FF81917F0185324B
:1040100021F4B60190E0D3D1E8CF912C212C312CA2
:10402000FFE1F315D8F08B3279F038F4803279F073
:104030008332A1F4232D20611DC08D3261F08033C5
:1040400069F4232D216016C0832D8260382EE32D64
:10405000E4603E2E2AC0F32DF8601DC037FC2DC051
:1040600020ED280F2A3040F08E32B9F436FC75C1AD
:10407000232D2064322E19C036FE06C08AE0989E99
:10408000200D1124922E11C0EAE02E9E200D112445
:10409000222EF32DF0623F2E08C08C3621F4832DA2
:1040A0008068382E02C0883641F4F70193FD85916F
:1040B00093FF81917F018111B3CF982F9F7D9554FC
:1040C000933028F40C5F1F4F9FE399830DC0833614
:1040D00031F0833771F0833509F055C020C0F80105
:1040E000808189830E5F1F4F88248394912C530114
:1040F00012C02801F2E04F0E511CF801A080B180DF
:1041000036FE03C0692D70E002C06FEF7FEFC5017E
:104110004BD14C018201F32DFF773F2E15C02801B2
:1041200022E0420E511CF801A080B18036FE03C08F
:10413000692D70E002C06FEF7FEFC5012AD14C01FD
:10414000F32DF0683F2E820133FC19C0822D90E0E0
:1041500088169906A0F4B60180E290E030D12A9446
:10416000F5CFF50137FC859137FE81915F01B601EE
:1041700090E025D121102A9421E0821A910881141F
:10418000910479F7E1C0843611F0893639F5F801E8
:1041900037FE07C060817181828193810C5F1F4F60
:1041A00008C060817181072E000C880B990B0E5F8F
:1041B0001F4FF32DFF763F2E97FF09C090958095F6
:1041C000709561957F4F8F4F9F4FF0683F2E2AE08B
:1041D00030E0A30130D1882E861844C0853731F4F1
:1041E000232D2F7EB22E2AE030E025C0932D997F1B
:1041F000B92E8F36C1F018F4883579F0AEC080370B
:1042000019F0883721F0A9C0E92FE061BE2EB4FE75
:104210000DC0FB2DF460BF2E09C034FE0AC0292F4B
:104220002660B22E06C028E030E005C020E130E074
:1042300002C020E132E0F801B7FE07C06081718161
:10424000828193810C5F1F4F06C06081718180E085
:1042500090E00E5F1F4FA301EED0882E8618FB2D35
:10426000FF773F2E36FE0DC0232D2E7FA22E891400
:1042700058F434FE0BC032FC09C0832D8E7EA82E6C
:1042800005C0B82CA32C03C0B82C01C0B92CA4FEC7
:104290000FC0FE01E80DF11D8081803321F49A2DBD
:1042A000997EA92E09C0A2FE06C0B394B39404C09F
:1042B0008A2D867809F0B394A3FC10C0A0FE06C036
:1042C000B21480F4280C922C9B180DC0B21458F430
:1042D000B60180E290E073D0B394F8CFB21418F432
:1042E0002B1802C0982C212CA4FE0FC0B60180E32D
:1042F00090E065D0A2FE16C0A1FC03C088E790E064
:1043000002C088E590E0B6010CC08A2D867851F095
:10431000A1FE02C08BE201C080E2A7FC8DE2B601E3
:1043200090E04DD0891430F4B60180E390E047D09E
:104330009A94F8CF8A94F301E80DF11D8081B601BB
:1043400090E03DD08110F6CF222009F44ECEB60188
:1043500080E290E034D02A94F7CFF60186819781ED
:1043600002C08FEF9FEF2B96CDBFDEBFDF91CF91C5
:104370001F910F91FF90EF90DF90CF90BF90AF9083
:104380009F908F907F906F905F904F903F902F9075
:104390000895FC010590615070400110D8F7809598
:1043A00090958E0F9F1F0895FC0161507040019001
:1043B0000110D8F7809590958E0F9F1F08950F9349
:1043C0001F93CF93DF93FB01238121FD03C08FEF68
:1043D0009FEF2CC022FF16C0468157812481358172
:1043E0004217530744F4A081B1819D012F5F3F4FD5
:1043F000208331838C93268137812F5F3F4F268323
:10440000378314C08B01EC01FB010084F185E02DA2
:104410001995892BE1F6D80116968D919C911797E5
:10442000019616968D939C931797CE01DF91CF91AD
:104430001F910F910895FA01AA27283051F12031D8
:1044400081F1E8946F936E7F6E5F7F4F8F4F9F4F28
:10445000AF4FB1E03ED0B4E03CD0670F781F891F6A
:104460009A1FA11D680F791F8A1F911DA11D6A0F38
:10447000711D811D911DA11D20D009F468943F91EB
:104480002AE0269F11243019305D3193DEF6CF01EA
:104490000895462F4770405D4193B3E00FD0C9F7B0
:1044A000F6CF462F4F70405D4A3318F0495D31FD1D
:1044B0004052419302D0A9F7EACFB4E0A695979570
:1044C000879577956795BA95C9F700976105710546
:1044D00008959B01AC010A2E069457954795379590
:1044E0002795BA95C9F7620F731F841F951FA01DEA
:0644F0000895F894FFCFCF
:1044F60000000E2520000010020607207DFFFF8029
:1045060025000003000049444C4500546D722053B9
:104516007663005452554500416B7365733A2044E7
:1045260069626572696B616E200046414C534500B5
:10453600416B7365733A204469746F6C616B20201C
:10454600200057616B74753A202D202020202020F2
:104556002020202020200054657262756B61202087
:10456600005465727475747570200050696E7475A8
:104576003A202D2020202020202020200050696E67
:1045860074753A2025730053656E743A20446F6F34
:1045960072207374617475733D25640A0053656EE9
:1045A600743A204163636573732053746174757341
:1045B60000533A25637C413A25637C503A25630AC9
:1045C60000416C61726D3A20416B7469662020204F
:1045D60000416C61726D3A204E6F6E616B74696654
:1045E6000057616B74753A202530326420202020F4
:1045F60020202020202020005369736E616D2B201F
:104606002020202020202020200053697374656D0F
:104616003A204E6F6E616B746966200057616B7449
:10462600753A202D20202020202020202000533ADB
:10463600310053697374656D3A20416B7469662065
:1046460020202000533A300053697374656D3A2078
:104656004E6F6E616B7469662020202020005369BE
:104666007374656D3A204E6F6E616B7469660053A4
:1046760069736E616D2B0050757368427574746F43
:104686006E00436865636B446F6F7200416C6172C4
:104696006D436F6E74726F6C005265636569766503
:1046A60020416363657373205374617475730043AB
:1046B6006F6E74726F6C20416363657373205374FD
:1046C6006174757300526563656976652053797305
:1046D60074656D20436F6D6D616E640053656E6425
:1046E6002053797374656D2053746174757300007B
:00000001FF
