:1000000050C200006FC200006DC200006BC2000051
:1000100069C2000067C2000065C2000063C2000040
:1000200061C200005FC200005DC200005BC2000050
:1000300059C2000057C200000C94990B53C2000033
:1000400051C200004FC200004DC200004BC2000070
:1000500049C2000047C2000045C2000043C2000080
:1000600041C200003FC200003DC200003BC2000090
:1000700039C2000037C2000035C2000033C20000A0
:1000800031C200002FC200002DC200002BC20000B0
:1000900029C2000027C2000025C2000023C20000C0
:1000A00021C200001FC200001DC200001BC20000D0
:1000B00019C2000017C2000015C2000013C20000E0
:1000C00011C200000FC200000DC200000BC20000F0
:1000D00009C2000007C2000005C2000003C2000000
:1000E00001C20000FFC10000FDC10000FBC1000013
:1000F000F9C10000F7C10000F5C10000F3C1000024
:10010000F1C10000EFC10000EDC10000EBC1000033
:10011000E9C10000E7C10000E5C10000E3C1000043
:10012000E1C10000DFC10000DDC10000DBC1000053
:10013000D9C10000D7C10000D5C10000D3C1000063
:10014000D1C10000CFC10000CDC10000CBC1000073
:10015000C9C10000C7C10000C5C10000C3C1000083
:10016000C1C10000BFC10000BDC10000BBC1000093
:10017000B9C10000B7C10000B5C10000B3C10000A3
:10018000B1C10000AFC10000ADC10000ABC10000B3
:10019000A9C10000A7C10000A5C10000A3C10000C3
:1001A000A1C100009FC100009DC100009BC10000D3
:1001B00099C1000097C1000095C1000093C10000E3
:1001C00091C100008FC100008DC100008BC10000F3
:1001D00089C1000087C1000085C1000083C1000003
:1001E00081C100007FC100007DC100007BC1000013
:1001F00079C1000077C1000075C100006C156C1555
:100200006C15A21592159F156C156C15A2159215FB
:10021000000000000000002020202020002050507E
:1002200050000000005050F850F850502078A07056
:1002300028F020C0C810204098186090A040A890D6
:100240006860204000000000102040404020104026
:10025000201010102040005020F8205000002020D6
:10026000F820200000000000602040000000F8009E
:1002700000000000000000606000081020408000C6
:10028000708898A8C888702060202020207070880E
:1002900008102040F8F81020100888701030509096
:1002A000F81010F880F008088870304080F08888D6
:1002B00070F80810204040407088887088887070FE
:1002C00088887808106000606000606000006060EE
:1002D00000602040081020402010080000F800F8BE
:1002E00000008040201020408070880810200020EE
:1002F00070880868A8A87070888888F88888F0884E
:1003000088F08888F070888080808870E090888885
:100310008890E0F88080F08080F8F88080E080802D
:100320008070888080988870888888F8888888702D
:10033000202020202070381010101090608890A08D
:10034000C0A09088808080808080F888D8A8888825
:1003500088888888C8A898888870888888888870DD
:10036000F08888F080808070888888A89068F088FD
:1003700088F0A09088788080700808F0F82020200D
:100380002020208888888888887088888888885075
:1003900020888888A8A8D88888885020508888888D
:1003A000885020202020F80810204080F838202095
:1003B0002020203800804020100800E0202020204D
:1003C00020E020508800000000000000000000F83D
:1003D00040201000000000000070087888788080BD
:1003E000B0C88888F000007080808870080868981D
:1003F00088887800007088F88070304840E040407D
:1004000040000078887808308080B0C888888820CC
:100410000060202020701000301010906040404894
:1004200050605048602020202020700000D0A8A8F4
:1004300088880000B0C88888880000708888887024
:100440000000F088F08080000068987808080000BC
:10045000B0C8808080000070807008F04040E040AC
:100460004048300000888888986800008888885054
:100470002000008888A8A8500000885020508800DC
:100480000088887808700000F8102040F8102020BC
:10049000402020102020202020202040202010203C
:1004A000204011241FBECFEFCDBFDFE5DEBF00E04F
:1004B0000CBF10E2A0E0B0E2E6E8F0E300E00BBF22
:1004C00002C007900D92AE3AB107D9F723E2AEEA27
:1004D000B0E201C01D92AF32B207E1F70E94781678
:1004E0000C9441188DCD04C06150710981099109A6
:1004F0006115710581059105B9F70895BF92CF92F5
:10050000DF92EF92FF920F931F93CF93DF931F928F
:10051000CDB7DEB700E016E06894FF24F3F8F801E9
:10052000F68264E070E080E090E0DDDFF801F582C3
:1005300064E070E080E090E0D6DF0F2EFBE2BF2E9B
:10054000F02DB98280EA99E02ED4C12CD12C76010D
:1005500000E412E42FE030E043E0BE016F5F7F4F24
:1005600080EA99E04FD400E616E0FF24F394F80106
:10057000F682B982BE016F5F7F4F80EA99E05CD45A
:10058000F801F682E0EAF9E0818185FFFDCF80EA9B
:100590008093A009E0EAF9E0818186FFFDCFE0EADF
:1005A000F9E080E481838081BE016F5F7F4F80EA44
:1005B00099E058D48BE28983BE016F5F7F4F80EA58
:1005C00099E03AD481E080936606E0EAF9E081811F
:1005D00085FFFDCF86EA8093A009E0EAF9E08181FA
:1005E00086FFFDCFE0EAF9E080E481838081BE01EF
:1005F0006F5F7F4F80EA99E035D48BE28983BE013B
:100600006F5F7F4F80EA99E017D481E080936606A0
:10061000E0EAF9E0818185FFFDCF88EC8093A009B5
:10062000E0EAF9E0818186FFFDCFE0EAF9E080E4CD
:1006300081838081BE016F5F7F4F80EA99E012D491
:100640008BE28983BE016F5F7F4F80EA99E0F4D32C
:1006500081E080936606E0EAF9E0818185FFFDCFC5
:1006600082EA8093A009E0EAF9E0818186FFFDCF6C
:10067000E0EAF9E080E481838081BE016F5F7F4F13
:1006800080EA99E0EFD38BE28983BE016F5F7F4FF1
:1006900080EA99E0D1D381E080936606E0EAF9E050
:1006A000818185FFFDCF8FE28093A009E0EAF9E028
:1006B000818186FFFDCFE0EAF9E080E481838081DB
:1006C000BE016F5F7F4F80EA99E0CCD38BE28983D4
:1006D000BE016F5F7F4F80EA99E0AED381E08093E7
:1006E0006606E0EAF9E0818185FFFDCF88EF80931F
:1006F000A009E0EAF9E0818186FFFDCFE0EAF9E0B8
:1007000080E481838081BE016F5F7F4F80EA99E042
:10071000A9D38BE28983BE016F5F7F4F80EA99E0A6
:100720008BD381E080936606E0EAF9E0818185FF62
:10073000FDCF1092A009E0EAF9E0818186FFFDCFAC
:10074000E0EAF9E080E481838081BE016F5F7F4F42
:1007500080EA99E087D38BE28983BE016F5F7F4F88
:1007600080EA99E069D381E080936606E0EAF9E0E7
:10077000818185FFFDCF81E28093A009E0EAF9E065
:10078000818186FFFDCFE0EAF9E080E4818380810A
:10079000BE016F5F7F4F80EA99E064D38BE289836B
:1007A000BE016F5F7F4F80EA99E046D381E080937E
:1007B0006606E0EAF9E0818185FFFDCF81E880935C
:1007C000A009E0EAF9E0818186FFFDCFE0EAF9E0E7
:1007D00080E481838081BE016F5F7F4F80EA99E072
:1007E00041D38BE28983BE016F5F7F4F80EA99E03E
:1007F00023D381E080936606E0EAF9E0818185FFFA
:10080000FDCF81E28093A009E0EAF9E0818186FFD3
:10081000FDCFE0EAF9E080E481838081BE016F5F73
:100820007F4F80EA99E01ED38BE28983BE016F5F20
:100830007F4F80EA99E000D381E080936606E0EA8A
:10084000F9E0818185FFFDCF8FEA8093A009E0EA7E
:10085000F9E0818186FFFDCFE0EAF9E080E4818361
:100860008081BE016F5F7F4F80EA99E0FBD20F90DD
:10087000DF91CF911F910F91FF90EF90DF90CF907C
:10088000BF9008958FEF80937000809371008093E4
:10089000720080937300809374008093750080933E
:1008A00076000895CF93DF931F92CDB7DEB79FB741
:1008B0009983F8949981E82FF0E0E059FF4F609513
:1008C0008081682360839FBF0F90DF91CF9108954F
:1008D000FF920F931F93CF93DF931F92CDB7DEB795
:1008E000082FF62E142F1AD10F70006B8BE289831C
:1008F000BE016F5F7F4F80EA99E09ED281E08093D6
:100900006606E0EAF9E0918195FFFDCF0093A0092A
:10091000E0EAF9E0818186FFFDCFE0EAF9E080E4DA
:1009200081838081BE016F5F7F4F80EA99E09AD218
:100930000F2D0F7702950F7000618BE28983BE0146
:100940006F5F7F4F80EA99E077D281E080936606FF
:10095000E0EAF9E0818185FFFDCF0093A009E0EA9C
:10096000F9E0818186FFFDCFE0EAF9E080E4818350
:100970008081BE016F5F7F4F80EA99E073D20F2DB7
:100980000F708BE28983BE016F5F7F4F80EA99E031
:1009900053D281E080936606E0EAF9E0818185FF29
:1009A000FDCF0093A009E0EAF9E0818186FFFDCF49
:1009B000E0EAF9E080E481838081BE016F5F7F4FD0
:1009C00080EA99E04FD28BE28983BE016F5F7F4F4F
:1009D00080EA99E031D281E080936506E0EAF9E0AF
:1009E000818185FFFDCF1093A009E0EAF9E08181C4
:1009F00086FFFDCFE0EAF9E080E48183808181E039
:100A000080936606BE016F5F7F4F80EA99E02AD22D
:100A10000F90DF91CF911F910F91FF9008950F9349
:100A20001F93CF93DF931F92CDB7DEB78EEA90E28C
:100A300070D064DD8BE28983BE016F5F7F4F80EAF7
:100A400099E0FAD181E080936606E0EAF9E08181DD
:100A500085FFFDCF80E48093A009E0EAF9E0818181
:100A600086FFFDCFE0EAF9E080E481838081BE016A
:100A70006F5F7F4F80EA99E0F5D100E00AC040E067
:100A8000612F802F25DF1F5F1038C9F70F5F0430FB
:100A900011F010E0F4CF0F90DF91CF911F910F91E3
:100AA0000895FF920F931F93CF93DF9388234CF108
:100AB000603238F5D42FC82FF62EF694F694F694BB
:100AC00070E088E0F89E60197109112481E090E0DF
:100AD0008C0102C0000F111F6A95E2F76C2F8F2D59
:100AE0002BD0D13021F028F0D23031F006C0802B4D
:100AF00004C00095802301C08027482F6C2F8F2DC4
:100B0000E7DEDF91CF911F910F91FF90089514C000
:100B100008958093AE229093AF2208952091AE2243
:100B20003091AF2290E8899F200D311D1124F901E9
:100B3000E60FF11D408308952091AE223091AF223F
:100B400090E8899F200D311D1124F901E60FF11D58
:100B500080810895FF920F931F93CF93DF93E42F2B
:100B6000F0E0E80FF11DE138F1051CF0C0E84C2F72
:100B7000481B442309F44AC0D62FD695D695D6955E
:100B800070E098E0D99F601971091124E1E0F0E06C
:100B9000DF0102C0AA0FBB1F6A95E2F7FA2E2130CF
:100BA00021F098F0223019F131C0C42F1FEF180F37
:100BB000012F0C0F602F8D2FAADF4F2D482B602F98
:100BC0008D2F86DEC150A1F721C0C42F1FEF180F53
:100BD000FA2EF094012F0C0F602F8D2F98DF4F2DE0
:100BE0004823602F8D2F74DEC150A1F70FC0C42F92
:100BF0001FEF180F012F0C0F602F8D2F88DF4F2D47
:100C00004827602F8D2F64DEC150A1F7DF91CF916F
:100C10001F910F91FF900895FF920F931F93CF9311
:100C2000DF93222369F0F42E182FC22FDFEFD60FA7
:100C30006D2F6C0F202F4F2D812F8CDFC150C1F7EE
:100C4000DF91CF911F910F91FF900895AF92BF92C6
:100C5000CF92DF92EF92FF920F931F93CF93DF9388
:100C6000C82FE62EB42E690100E0F90124814381EA
:100C70006B2D8E2DD1DFF6018081811139C08381EA
:100C8000282F269526952695877009F02F5FF60167
:100C9000A4808C2F90E03581831B91092A9D9001BF
:100CA0001124829FA001839F500D929F500D11240B
:100CB00001811281040F151FF601F380FF20A1F0BE
:100CC000D0E0C0E08E2D8C0F9C2F977021F4F8019E
:100CD000D4910F5F1F4FDD231CF441E06B2DE1DE4B
:100CE000DD0FCF5FFC12EECFB394AA94A110E4CF36
:100CF000DF91CF911F910F91FF90EF90DF90CF90F8
:100D0000BF90AF900895DF92EF92FF920F931F93E1
:100D1000CF93DF93D62E042F7901EC01162F899102
:100D20008A3031F4F70184818F5F080F1D2D09C0CF
:100D30008D3039F09701402F612F88DFF7018381D3
:100D4000180F88818111EBCFDF91CF911F910F9107
:100D5000FF90EF90DF900895CF93DF93FC0120E0A8
:100D600030E0C62FD0E0DE01022E02C0B595A79577
:100D70000A94E2F7A0FD508B2F5F3F4F3196283049
:100D8000310589F740FF0AC041FF03C0FC016583BC
:100D900002C0FC016683FC01618302C0FC01628326
:100DA000DF91CF910895803A28E0920721F460E125
:100DB00083E078CD0895803B28E0920721F460E23B
:100DC00083E070CD0895803A29E0920721F460E134
:100DD00084E068CD0895803B29E0920721F460E229
:100DE00084E060CD0895803A2AE0920721F460E122
:100DF00085E058CD0895803A9B4019F460E186E083
:100E000051CD08950F931F93CF93DF9300D000D05F
:100E1000CDB7DEB709831A832B833C834D831E82B3
:100E2000BE016F5F7F4F03D12696CDBFDEBFDF913E
:100E3000CF911F910F910895FB018081E82FE695D6
:100E4000E695E69540E2E49FF0011124FA5F877091
:100E500021E030E0A90102C0440F551F8A95E2F756
:100E600046830895FB018081E82FE695E695E69597
:100E700040E2E49FF0011124FA5F877021E030E046
:100E8000A90102C0440F551F8A95E2F745830895D2
:100E900043E050E061E080EE97E05EDF43E050E049
:100EA00062E080EE97E058DF43E050E060E180E6EA
:100EB00096E052DF41E050E460E280E696E04CDFED
:100EC00040E05BE160E280E896E046DF40E05BE125
:100ED00062E080EA96E040DF40E05BE164E080EAC7
:100EE00096E03ADF43E050E062E080E696E034DFEF
:100EF00043E050E068E080E696E02EDF43E050E01B
:100F000068E080EA96E028DF43E050E061E080E6B8
:100F100096E022DF43E050E068E080E096E01CDFEE
:100F200041E050E060E180E896E016DF43E050E009
:100F300062E080E696E010DF43E050E068E080E6A3
:100F400096E00ADF40E050E064E080E696E004DFEF
:100F500043E050E060E180EA96E0FEDE40E050E0F1
:100F600061E080E096E0F8DE40E050E064E080E0A0
:100F700096E0F2DE40E050E062E080E296E0ECDEF7
:100F800043E050E068E080E496E0E6DE40E050E0D8
:100F900064E080E496E0E0DE43E050E068E080E674
:100FA00096E0DADE40E050E064E080E696E0D4DEF1
:100FB00043E050E068E080E896E0CEDE40E050E0BC
:100FC00064E080E896E0C8CE0895CF92DF92EF9279
:100FD000FF920F931F93CF93DF93EC01D901C801C8
:100FE000B695A79597958795481759076A077B0780
:100FF00078F46A017B01CC0CDD1CEE1CFF1CC901DE
:10100000B801A70196010E94ED162150310902C0D6
:1010100020E030E0832F8F708F832E83DF91CF917C
:101020001F910F91FF90EF90DF90CF900895DF9286
:10103000EF92FF920F931F93CF93DF931F92CDB741
:10104000DEB77C018B01009709F4B2C1803C9105A9
:1010500021F460E180E026DCABC180E8E81681E0A5
:10106000F80621F462E080E01DDCA2C1E114E1E0B9
:10107000FE0621F461E080E015DC9AC1F0E8EF168D
:10108000F3E0FF0621F461E081E00CDC91C130E97E
:10109000E31633E0F30621F461E082E003DC88C16B
:1010A000E11482E0F80621F462E081E0FBDB80C11C
:1010B000E0E4EE16E2E0FE0621F462E082E0F2DB1C
:1010C00077C1F0E2EF16F3E0FF0621F464E082E07E
:1010D000E9DB6EC1E11438E0F30621F461E083E05E
:1010E000E1DB66C1E11489E0F80621F461E084E007
:1010F000D9DB5EC1E114EAE0FE0621F461E085E09F
:10110000D1DB56C1E114FBE0FF0621F461E086E08B
:10111000C9DB4EC130E4E31638E0F30621F462E0A7
:1011200083E0C0DB45C180E4E81689E0F80621F4DD
:1011300062E084E0B7DB3CC1E0E4EE16EAE0FE06E4
:1011400021F462E085E0AEDB33C1F0E9EF16F8E0B0
:10115000FF0621F464E083E0A5DB2AC130E9E31651
:1011600039E0F30621F464E084E09CDB21C180E9EE
:10117000E8168AE0F80621F464E085E093DB18C104
:10118000E0E9EE16EBE0FE0621F464E086E08ADB9F
:101190000FC1F0ECEF16F8E0FF0621F468E083E001
:1011A00081DB06C130ECE31639E0F30621F468E098
:1011B00084E078DBFDC080EAE81688E0F80661F498
:1011C00060E183E06FDBE0EAF8E084818F7E848376
:1011D000F801248122504CC0F0EAEF16F9E0FF0636
:1011E00021F460E184E05EDBE3C030EAE3163AE03C
:1011F000F30621F460E185E055DBDAC080EAE81609
:101200008BE0F80621F460E186E04CDBD1C0E0EB36
:10121000EE16E8E0FE0621F460E283E043DBC8C09E
:10122000F0EBEF16F9E0FF0621F460E284E03ADB30
:10123000BFC030E8E31634E0F30621F460E483E055
:1012400031DBB6C080EAE81684E0F80621F460E4F9
:1012500085E028DBADC0F70184818F7E8483FB01AC
:1012600024812250C701F0EAEF16F8E0FF0649F4A6
:1012700080914E0684FDA5C00F2EF1E1DF2EF02DEA
:10128000A4C0803B38E0930791F0803AE9E09E07E4
:1012900049F430916E0634FD9BC00F2EF9E1DF2E2C
:1012A000F02D16C0803BF9E09F07F1F004C00F2E2F
:1012B000F5E1DF2EF02D803A3AE0930749F4809172
:1012C0008E0684FD8AC00F2EF1E2DF2EF02D15C0B0
:1012D000803A9B4091F48091AE0684FD0AC00F2EA7
:1012E000F9E2DF2EF02D09C00F2EFDE1DF2EF02DEB
:1012F00004C00F2EFDE2DF2EF02DED2DE695E695D4
:10130000E69530E2E39FF0011124FA5F3D2D37703E
:1013100081E090E0032E02C0880F991F0A94E2F743
:101320008183223010F040E001C040E4DF0150969C
:10133000A30FB11D9FB79983F89439812C91277021
:101340002C939C91942B9C933FBF8583F7018581BF
:10135000806C8583F80184818D7F813029F4F701C9
:1013600085818260858304C0F70185818D7F8583B7
:10137000F8018581882329F0F701858184608583C0
:1013800004C0F70185818B7F8583F80140815181FD
:101390006281738100E814E82EE130E0C70115DEB8
:1013A000F7018481886084838481806184831AC08A
:1013B000F70184818F7E8483F80124812250C70144
:1013C00060CF0F2EF5E1DF2EF02D80EA98E06ACF96
:1013D0000F2EFDE1DF2EF02D7BCF0F2EF5E2DF2E5D
:1013E000F02D8BCF0F90DF91CF911F910F91FF9038
:1013F000EF90DF900895FC010396818392832FEF95
:101400003FEF23833483858396838783908710827D
:101410000895FC01108611860895CF93DF939C01F7
:10142000FB01DC011196CD91DC911297C283D3832D
:101430008C819D81848395838C819D81DC011296B2
:101440006D937C9313976C837D8320873187F9019B
:1014500080818F5F8083DF91CF910895CF93DF9359
:10146000EB01488159814F3F2FEF520721F4FC01D6
:10147000A781B0850DC0DC01139601C0DF01129673
:10148000ED91FC9113972081318142175307B0F7FA
:101490001296ED91FC911397EA83FB83C483D58365
:1014A000AC83BD831296CD93DC931397888799877D
:1014B000FC0120812F5F2083DF91CF910895CF938E
:1014C000DF93FC01A085B185C281D38184819581A0
:1014D0008C839D83C481D581828193818A839B8300
:1014E00011968D919C911297E817F90731F4848138
:1014F000958111968D939C931297108611868C91ED
:1015000081508C93DF91CF9108950F931F938B019E
:1015100071E1FC017083319762E26083319723E3CC
:101520002083012E000C220B330B3197008331975F
:1015300010833197208331971082319720E82083E0
:1015400031971082319722E02083319723E0208366
:10155000319724E02083319725E02083319726E0DE
:101560002083319727E02083319728E0208331972B
:1015700029E02083319720E12083319770833197D0
:1015800022E12083319723E12083319724E12083D6
:10159000319725E12083319726E12083319727E198
:1015A0002083319728E12083319729E120833197E7
:1015B00020E22083319721E22083319760833197A5
:1015C00023E220833197408331975083319726E27D
:1015D0002083319727E22083319728E220833197B7
:1015E00029E22083319720E32083319721E3208370
:1015F00087971F910F910895F894E0E7F0E08381B9
:101600008A7F8383E0E0F8E080E09AEF86A397A3E7
:1016100091E09683A0EAB0E012968C9112978160D7
:1016200012968C9390837894A0910623B09107230F
:101630000D900DBE0D900EBEFF91EF91DF91CF91F9
:10164000BF91AF919F918F917F916F915F914F91DA
:101650003F912F911F910F91FF90EF90DF90CF90CE
:10166000BF90AF909F908F907F906F905F904F90C2
:101670003F902F901F900F900FBE0F90089581E024
:1016800008950F920FB6F8940F921F9211242F9283
:101690003F924F925F926F927F928F929F92AF9202
:1016A000BF92CF92DF92EF92FF920F931F932F93EF
:1016B0003F934F935F936F937F938F939F93AF93DA
:1016C000BF93CF93DF93EF93FF93A0910623B09145
:1016D00007230DB60D920EB60D925AD6A091062391
:1016E000B09107230D900DBE0D900EBEFF91EF91AE
:1016F000DF91CF91BF91AF919F918F917F916F912A
:101700005F914F913F912F911F910F91FF90EF901B
:10171000DF90CF90BF90AF909F908F907F906F9011
:101720005F904F903F902F901F900F900FBE0F90A3
:1017300008950F920FB6F8940F921F9211242F92D2
:101740003F924F925F926F927F928F929F92AF9251
:10175000BF92CF92DF92EF92FF920F931F932F933E
:101760003F934F935F936F937F938F939F93AF9329
:10177000BF93CF93DF93EF93FF93A0910623B09194
:1017800007230DB60D920EB60D9297D4811100D697
:10179000A0910623B09107230D900DBE0D900EBEB3
:1017A000FF91EF91DF91CF91BF91AF919F918F9179
:1017B0007F916F915F914F913F912F911F910F9169
:1017C000FF90EF90DF90CF90BF90AF909F908F9061
:1017D0007F906F905F904F903F902F901F900F9051
:1017E0000FBE0F901895CF93DF93EC0156D4CE0126
:1017F0000E941717EC0134D5CE01DF91CF910895E7
:10180000CF93DF93009731F0EC0147D4CE010E94D3
:10181000AF1726D5DF91CF9108951F93CF93DF9314
:10182000EC01142F4C8D41110BC088819981892BBB
:1018300009F044C08A819B8147D71A821B8245C028
:10184000111117C050E08C819D810E9438182C8D99
:101850008C819D81820F911D8C839D832A813B8188
:101860008217930768F1888199818C839D8380E03A
:101870002CC050E08E819F810E9438188C8D90E0A2
:101880009195819591092E813F81280F391F2E83D3
:101890003F83488159812417350730F42A813B81E1
:1018A000820F931F8E839F83123061F48A8D882369
:1018B00059F08A8D81508A8F80E007C080E005C092
:1018C00080E003C080E001C080E09A8D9F5F9A8F26
:1018D000DF91CF911F910895FC01448D4423A9F01D
:1018E00050E026813781240F351F2683378382817C
:1018F00093812817390720F080819181868397830F
:10190000CB01668177810C94381808950F931F934B
:10191000CF93DF93EC010FB6F8940F928E8D1816CB
:10192000ACF48989811105C011C08989811104C075
:101930000DC08E010F5E1F4FC801CED5811150D64C
:101940008E8D81508E8F8E8D18167CF38FEF8E8F3B
:101950000F900FBE0FB6F8940F928D8D1816ACF441
:101960008885811105C011C08885811104C00DC012
:101970008E01085F1F4FC801AFD5811131D68D8D03
:1019800081508D8F8D8D18167CF38FEF8D8F0F907A
:101990000FBEDF91CF911F910F910895CF93DF93E9
:1019A000EC010FB6F8940F92488159812C8D30E0EC
:1019B0007B8D729FC001739F900D1124FA01E80F77
:1019C000F91FEA83FB831A8E4C835D83821B930B82
:1019D000840F951F8E839F838FEF8D8F8E8F611164
:1019E0000AC08885882369F0CE01089675D58130B4
:1019F00041F447DE06C0CE010896FDDCCE014196DB
:101A0000FADC0F900FBE81E0DF91CF9108950F9324
:101A10001F93CF93DF93082F162F6623A9F0869F7D
:101A2000C00111248096DFDEEC01009721F412C082
:101A3000C883D98303C04F96888399830B8F1C8FEB
:101A400061E0CE01ABDF06C08FE190E0CCDEEC01BF
:101A5000892B71F7CE01DF91CF911F910F910895DE
:101A6000AF92BF92CF92DF92EF92FF920F931F93AC
:101A7000CF93DF93CDB7DEB72597CDBFDEBF8C0107
:101A80006B014C835D83A22EB12C7C0188E0E80EB3
:101A9000F11C0FB6F8940F92F801928D838D981770
:101AA00018F0F2E0AF1215C04A2DB601C801B5DE3C
:101AB000F8019189992339F0C80141960DD58130FB
:101AC00021F4DFDD02C08111DCDD0F900FBE81E06B
:101AD00046C08C819D81892B21F40F900FBE80E040
:101AE0003EC0B11005C0CE0101963ED5BB24B394D3
:101AF0000F900FBED2D20FB6F8940F92F801858DD9
:101B00008F3F09F4158EF801868D8F3F09F4168EEC
:101B10000F900FBEBE016C5F7F4FCE0101962FD597
:101B2000811119C00FB6F8940F92F801928D0F90A1
:101B30000FBE838D98130BC06C817D81C70195D436
:101B4000C801E4DE8DD38111A4CF9BDDA2CFC801F3
:101B5000DDDE86D39ECFC801D9DE82D380E0259614
:101B6000CDBFDEBFDF91CF911F910F91FF90EF901E
:101B7000DF90CF90BF90AF900895CF93DF938FE128
:101B800090E031DEEC01892BE1F01A821B82188291
:101B900019821C821D821E821F821A8E81E08B8F09
:101BA0001C8E8FEF8D8F8E8FCE01089624DCCE0198
:101BB000419621DC20E040E050E060E070E0CE01A2
:101BC0004FDFCE01DF91CF9108950F931F93CF93F5
:101BD000DF93FA01DC015A965C915A975B963C912F
:101BE000531710F02230D9F4422F8F01EC0115DE8B
:101BF0008E8D8F3F79F48989882399F0CE014196A3
:101C00006BD4882381F00115110579F081E0F8018A
:101C100080830CC08E8D8F5F8E8F81E007C080E047
:101C200005C081E003C081E001C081E0DF91CF9178
:101C30001F910F910895AF92BF92CF92DF92EF92D2
:101C4000FF920F931F93CF93DF93CDB7DEB7259706
:101C5000CDBFDEBF8C016B014C835D83A22EB12C06
:101C60007C0181E1E80EF11C0FB6F8940F92F801A7
:101C7000828D882369F1E680F780B601C8012CDEE9
:101C8000A11017C0F801828D8150828F80819181CF
:101C9000892B21F459D5F80182839383F80180853B
:101CA000882391F0C801089617D4813069F4E9DCE3
:101CB0000BC0F801E682F7828189882329F0C801E8
:101CC00041960AD48111DDDC0F900FBE81E051C036
:101CD0008C819D81892B21F40F900FBE80E049C03B
:101CE000B11005C0CE0101963FD4BB24B3940F9030
:101CF0000FBED3D10FB6F8940F92F801858D8F3FA8
:101D000009F4158EF801868D8F3F09F4168E0F9019
:101D10000FBEBE016C5F7F4FCE01019630D48111A2
:101D200024C00FB6F8940F92F801828D0F900FBE69
:101D3000811117C080819181892B41F40FB6F894ED
:101D40000F92828193815ED40F900FBE6C817D8152
:101D5000C7018BD3C801DADD83D2811185CF91DC35
:101D600083CFC801D3DD7CD27FCFC801CFDD78D24D
:101D700080E02596CDBFDEBFDF91CF911F910F91FF
:101D8000FF90EF90DF90CF90BF90AF900895CF93EA
:101D9000DF93EC010FB6F8940F928D8D8F3F09F40D
:101DA0001D8E8E8D8F3F09F41E8E0F900FBE8A8D73
:101DB000811103C0CE01419673D3CE01A7DDDF911F
:101DC000CF910895C9EDD2E288818230F0F359DCD9
:101DD000FBCFCF93DF93EC01E0910623F091072333
:101DE000828393838091B7229091B822C817D90734
:101DF00060F460910623709107238091C322909133
:101E0000C4226E5F7F4F2ADB16C06091062370915B
:101E100007238091C5229091C6226E5F7F4F1EDB03
:101E200080910D2090910E20C817D90720F4C093FF
:101E30000D20D0930E20DF91CF9108954F925F92A5
:101E40006F927F928F929F92AF92BF92CF92DF92CA
:101E5000EF92FF920F931F93CF93DF934C01EB010F
:101E60005A012901C114D10431F4CA01BCDC6C014E
:101E7000892B09F4D4C088E290E0B5DC3C010097DE
:101E800079F0FC01C78AD08EF1E0AF1AB108CA0C14
:101E9000DB1C8881F301818F8881811104C013C00C
:101EA000C601AEDCBCC0D3015A96FE0131969E013C
:101EB000285F3F4FEF0181918D938881882319F02E
:101EC0002E173F07B9F7F30110A2102F053008F0C5
:101ED00014E0F301168B11A312A2E3012296CE01A6
:101EE00098DAC3010C9695DAF3016086718685E075
:101EF00090E0811B910984879587628A738A13A277
:101F000014A215A216A217A2A201B401C601FDDAFD
:101F1000F30180839183E114F10419F0F7016082E9
:101F200071820FB6F8940F928091B9228F5F8093DF
:101F3000B9228091062390910723892B91F5609215
:101F40000623709207238091B9228130C9F50F2EA4
:101F5000F9EDEF2EF2E2FF2EF02D0F2EF6E0CF2E50
:101F6000F3E2DF2EF02DC70146DAF9E0EF0EF11CA7
:101F7000EC14FD04C1F780ED92E23DDA87EC92E2C9
:101F80003ADA8AEB92E237DA80ED92E28093C52268
:101F90009093C62287EC92E28093C3229093C4224E
:101FA0000FC08091B52281110BC0E0910623F09102
:101FB00007238689081720F0609206237092072372
:101FC0008091B1228F5F8093B122F3018689909135
:101FD000B622981710F48093B62290E09C01220F4D
:101FE000331F220F331F220F331F820F931FBE0197
:101FF00087529D4D12DA0F900FBE8091B522882333
:1020000051F0E0910623F09107238689801728F488
:1020100038DB81E005C081E003C081E001C08FEFC3
:10202000DF91CF911F910F91FF90EF90DF90CF90B4
:10203000BF90AF909F908F907F906F905F904F90E8
:102040000895AF92BF92CF92DF92EF92FF920F93DB
:10205000A12CB12CC12CD12CE12CF12C00E020E0E2
:1020600030E045E550E06FE070E282EE9EE0E6DEB3
:10207000813059F4D2D3813041F4F8948093B52261
:102080001092B7221092B822B7DA0F91FF90EF901A
:10209000DF90CF90BF90AF9008958091B0228F5F76
:1020A0008093B02208950FB6F8940F928091B722D2
:1020B0009091B8220F900FBE0895DF92EF92FF9299
:1020C0000F931F93CF93DF938091B0228111B3C000
:1020D0008091B7229091B82201968093B722909375
:1020E000B822E090B722F090B822E114F10499F5FB
:1020F0008091C5229091C6222091C3223091C422A2
:102100002093C5223093C6228093C3229093C42289
:102110008091B2228F5F8093B222E091C522F0912C
:10212000C6228081811107C08FEF9FEF80930D2021
:1021300090930E2010C0E091C522F091C622058038
:10214000F681E02D0680F781E02D828193818093D6
:102150000D2090930E2080910D2090910E20E81676
:10216000F90610F4D12C4FC0D12CE091C522F0918A
:10217000C6228081811107C08FEF9FEF80930D20D1
:1021800090930E2040C0E091C522F091C6220580B8
:10219000F681E02DC681D7818A819B81E816F906F8
:1021A00028F480930D2090930E202DC08E010E5F99
:1021B0001F4FC80184D98C899D89892B19F0CE01C4
:1021C0000C967DD98E899091B622981710F4809341
:1021D000B62290E09C01220F331F220F331F220FE3
:1021E000331F820F931FB80187529D4D16D9E0917E
:1021F0000623F09107239E898689981708F4B5CFA6
:10220000DD24D394B2CFE0910623F0910723868991
:1022100090E0FC01EE0FFF1FEE0FFF1FEE0FFF1F00
:102220008E0F9F1FFC01E752FD4D8081823048F0E8
:10223000DD24D39406C08091B4228F5F8093B422B2
:10224000D12C8091B322882311F0DD24D3948D2DDD
:10225000DF91CF911F910F91FF90EF90DF90089544
:10226000DF92EF92FF920F931F93CF93DF930FB6FE
:10227000F8940F928091B02281508093B022809187
:10228000B02281115DC08091B922811130C05BC044
:10229000D7011596ED91FC911697C681D781CE0195
:1022A0000C960DD98E010E5F1F4FC80108D98E897B
:1022B0009091B622981710F48093B62290E09C017A
:1022C000220F331F220F331F220F331F820F931F42
:1022D000B80187529D4DA1D8E0910623F0910723C4
:1022E0009E898689981758F0D092B32208C00F2E85
:1022F000FAEBEF2EF2E2FF2EF02DDD24D394F7015E
:1023000080818111C5CF8091B422882391F0809182
:10231000B422882371F0C1E0D0DE8111C093B322D2
:102320008091B42281508093B4228091B422811193
:10233000F3CF8091B322813029F4A3D981E003C087
:1023400080E001C080E00F900FBEDF91CF911F9120
:102350000F91FF90EF90DF900895CF93DF93EC0102
:10236000892B91F09ADE8091B7229091B822C80F04
:10237000D91F80910623909107230296A0D8CE0101
:1023800028DD6EDF811101C07CD9DF91CF910895E6
:102390008091B022882321F081E08093B3220895B8
:1023A0001092B3228091B62290E0FC01EE0FFF1F45
:1023B000EE0FFF1FEE0FFF1F8E0F9F1FFC01E75256
:1023C000FD4D8081811117C08091B622815080938C
:1023D000B6228091B62290E0FC01EE0FFF1FEE0FB7
:1023E000FF1FEE0FFF1F8E0F9F1FFC01E752FD4DD9
:1023F0008081882349F38091B62290E09C01220FCE
:10240000331F220F331F220F331F280F391FD9010B
:10241000A752BD4D1196ED91FC9112970280F38168
:10242000E02D1196ED93FC93129724523D4DE21747
:10243000F30729F422813381FD0121833283FC01DA
:10244000EE0FFF1FEE0FFF1FEE0FFF1F8E0F9F1FE0
:10245000FC01E752FD4D0180F281E02D86819781DC
:1024600080930623909307230895CF93DF93EB0186
:102470006091062370910723645F7F4F0E942E0AAC
:102480008091062390910723029619D88091B72254
:102490009091B8228C0F9D1F9CDCDF91CF91089505
:1024A000CF93DF93EB016091062370910723645F64
:1024B0007F4F0E940D0A8091062390910723029678
:1024C0000E945F0A8091B7229091B8228C0F9D1FC5
:1024D00080DCDF91CF9108950F931F93CF93DF930B
:1024E000DC011596ED91FC911697C681D7818E017E
:1024F000045F1F4FC8010E945F0A8091B0228111C2
:102500001CC00A501109C8010E945F0A8E8990916F
:10251000B622981710F48093B62290E09C01220F07
:10252000331F220F331F220F331F820F931FB80157
:1025300087529D4D0E940D0A05C0B8018AEB92E2B8
:102540000E940D0AE0910623F09107239E89868957
:10255000891720F481E08093B32201C080E0DF91ED
:10256000CF911F910F9108952091B222FC012083F9
:102570002091B7223091B822218332830895CF93DE
:10258000DF93FC010FB6F8940F922091B72230919F
:10259000B8228091B2229081981729F0818192818E
:1025A00028173907A8F4A181B281EB01488159812C
:1025B000C9018A1B9B0B8417950760F4CF01A21BEE
:1025C000B30B4A0F5B1F48835983CEDF80E003C003
:1025D00081E001C081E00F900FBEDF91CF9108959F
:1025E00081E08093B32208958091B522882331F051
:1025F0008091B022882321F080E0089581E0089541
:1026000082E008950F931F93CF93DF93FC01892BF2
:1026100009F455C02689A0910623B0910723569648
:102620008C91281708F04BC084859585992364F018
:10263000A0910623B091072356963C9185E090E047
:10264000831B91098487958730E0C901880F991F02
:10265000880F991F880F991F280F391F27523D4D4A
:10266000828593858217930719F58F01EF012296D2
:10267000CE010E945F0AE0910623F091072386892C
:10268000F801868B9091B622981710F48093B622A9
:1026900090E09C01220F331F220F331F220F331FA4
:1026A000820F931FBE0187529D4D0E940D0A07C0E5
:1026B000A0910623B091072356968C91868BDF91CB
:1026C000CF911F910F9108950F931F93CF93DF9395
:1026D000FC01892B79F182A1815082A3268991A1E5
:1026E000291751F181112AC0EF018F010E5F1F4F91
:1026F000C8010E945F0A89A18E8B25E030E0281B6B
:1027000031092C873D879091B622981710F4809359
:10271000B62290E09C01220F331F220F331F220F9D
:10272000331F820F931FB80187529D4D0E940D0ADF
:1027300081E005C080E003C080E001C080E0DF915F
:10274000CF911F910F9108958091062390910723B7
:10275000892B39F0E0910623F091072382A18F5F46
:1027600082A380910623909107230895FC01628340
:102770007383808791874617570790F0421B530B4E
:102780008485958548175907E0F4BF016E5F7F4F38
:1027900080910C2390910D230E942E0A80E00895D1
:1027A0004217530718F46217730768F4BF016E5F8E
:1027B0007F4F80910E2390910F230E942E0A80E07C
:1027C000089581E0089581E008950FB6F8940F927E
:1027D00080910A2390910B23892BE1F489E193E204
:1027E0000E94FB0980E193E20E94FB0989E193E2E8
:1027F00080930E2390930F2380E193E280930C2328
:1028000090930D2340E065E08AE001D980930A238C
:1028100090930B230F900FBE0895AF92BF92CF926B
:10282000DF92EF92FF920F93D0DF80910A23909175
:102830000B23892B89F0A12CB12CC12CD12CE12C9C
:10284000F12C03E020E030E045E550E064E170E287
:1028500085EE94E1F3DA01C080E00F91FF90EF90F4
:10286000DF90CF90BF90AF9008950F931F93CF93B9
:10287000DF93CDB7DEB72597CDBFDEBFE0910A234A
:10288000F0910B23309751F1D90169834A835B831F
:102890008C839D836630D4F4A7DE823059F420E027
:1028A000A801BE016F5F7F4F80910A2390910B2397
:1028B000D7D815C020E040E050E0BE016F5F7F4FE9
:1028C00080910A2390910B23CBD809C020E0AD0161
:1028D000BE016F5F7F4FCF0178D901C080E02596A0
:1028E000CDBFDEBFDF91CF911F910F910895AF92C1
:1028F000BF92CF92DF92EF92FF920F931F93CF93ED
:10290000DF936C01D0DB7C01809108239091092337
:10291000E816F90608F047C02FC00580F681E02DC3
:10292000A080B180C681D7818E010E5F1F4FC80184
:102930000E945F0AE989FA89CE0119958E85813056
:10294000D9F48C859D858A0D9B1DA816B90660F467
:102950008A839B83C887D987B80180910E23909181
:102960000F230E942E0A08C000E010E020E030E0B3
:10297000A50160E0CE0179DFE0910E23F0910F23F5
:1029800080818111CACF80910C2390910D23809377
:102990000E2390930F23E0930C23F0930D2381E0FB
:1029A000F601808302C0F6011082E0920823F092C3
:1029B0000923C701DF91CF911F910F91FF90EF90F5
:1029C000DF90CF90BF90AF900895CF93DF9300D06A
:1029D00000D0CDB7DEB7CE0101965C01E82EFB2C0E
:1029E000E0910E23F0910F238081882309F4B7C072
:1029F0000580F681E02DC080D1804FDBC50177DFF7
:102A00008C018981811143C00C151D0590F128DCD2
:102A1000E0910E23F0910F230580F681E02D868052
:102A20009780C40102960E945F0AD4011E968C9181
:102A30001E978130A1F41C966D917C911D976C0DB1
:102A40007D1D9601A801C40191DE813041F400E0B2
:102A500010E020E030E0A60160E0C40106DFD40110
:102A60005196ED91FC915297C40119956BC0C12C00
:102A7000D12CB601601B710B80910A2390910B231E
:102A800086D9EEDB81115EC00E94410B5BC0E8DBA2
:102A900059C0898188230CF455C0CC80DD80F601B3
:102AA00082859385892B21F0C60102960E945F0AD8
:102AB000CE0106961CDFAC018981082E000C990B13
:102AC000AA0BBB0B8A30910508F03CC0FC0188279B
:102AD000E250FF4F8F4FA3C12A813B81D6011C9644
:102AE0006D917C911D97620F731FC6013FDE81308F
:102AF00049F5D6015196ED91FC915297C601199571
:102B0000F60186858130F1F44A815B818485958563
:102B1000480F591F00E010E020E030E060E0C601FF
:102B2000A4DE10C06A817B81D6011C966D937C93D4
:102B30001D97640F751F9A01C60118DE03C0C601F8
:102B40000E94000C20E040E050E06E2D7F2D80912F
:102B50000A2390910B236FD881119BCF41CF9DDA2F
:102B6000C501C5DE8C018981882309F480CF8FCF10
:102B7000E0E8F6E081E0828388E1808BC0E8D6E07F
:102B800020E04FEF5FEF60E070E0809125239091AF
:102B9000262351D8813021F58885817080932223A6
:102BA00020E040E050E060E070E0809125239091CB
:102BB00026230E94300D80912223882349F026E0AD
:102BC00030E240E160E08CE190E20E94830608C0C0
:102BD00026E030E240E160E08CE290E20E94830671
:102BE00082E390E0BADBCCCF10922808109229083B
:102BF000E0EEF7E081E0858382E085830895E0EAF6
:102C0000F6E084E0828382E0828BC0EAD6E08885A9
:102C100082FD25C020E04FEF5FEF60E070E0809123
:102C200027239091282307D88130B1F410922323D1
:102C3000DBDF26E030E240E160E08CE390E20E94DE
:102C4000830620E040E050E060E070E080912723C0
:102C5000909128230E94300D82E390E07EDB89E191
:102C600090E07BDBD4CFE0EAF6E082E08283818BE8
:102C7000C0EAD6E011E0888581FD36C020E04FEF44
:102C80005FEF60E070E08091292390912A230E94F9
:102C90001B0E813031F580912423812780932423DA
:102CA0008091242381110AC09FDF26E030E248E0B2
:102CB00060E08DE490E20E94830608C026E030E2E6
:102CC00048E060E08DE590E20E94830620E040E06D
:102CD00050E060E070E08091292390912A230E94C7
:102CE000300D82E390E039DB89E190E036DBC3CF41
:102CF000AF92BF92CF92DF92EF92FF920F930E941A
:102D000048070E94420487E08093A2000E940F05BA
:102D100080E18093850626E030E240E060E08DE6C9
:102D200090E20E94830681E00E94BD0D80932923DA
:102D300090932A2381E00E94BD0D809327239093D6
:102D4000282381E00E94BD0D8093252390932623A4
:102D50002091292330912A23232B41F020912723EE
:102D600030912823232B11F0892B49F426E030E2FF
:102D700040E060E085E790E20E948306FFCFA12C4F
:102D8000B12CC12CD12CE12CF12C03E020E030E05F
:102D900048EE53E066E870E283E396E14FD820E026
:102DA00030E048EE53E064E970E28FEF95E146D8F9
:102DB00002E020E030E048EE53E062EA70E288EBA7
:102DC00095E13CD83ED980E090E00F91FF90EF90E4
:102DD000DF90CF90BF90AF900895A1E21A2EAA1B6A
:102DE000BB1BFD010DC0AA1FBB1FEE1FFF1FA217BB
:102DF000B307E407F50720F0A21BB30BE40BF50BB8
:102E0000661F771F881F991F1A9469F76095709540
:102E1000809590959B01AC01BD01CF010895EE0F07
:102E2000FF1F881F8BBF0790F691E02D19940F9319
:102E30001F93CF93DF938230910510F482E090E0EE
:102E4000E0912D23F0912E2320E030E0A0E0B0E0CF
:102E5000309719F140815181028113814817590738
:102E6000C8F08417950769F4109731F012960C9307
:102E7000129713961C9327C000932D2310932E2393
:102E800022C02115310519F04217530718F49A0191
:102E9000BD01EF01DF01F801DBCF21153105F9F0AC
:102EA000281B390B2430310580F48A819B81611500
:102EB000710521F0FB018283938304C080932D234D
:102EC00090932E23FE01329644C0FE01E20FF31FC1
:102ED0008193919322503109288339833AC02091FC
:102EE0002B2330912C23232B41F42091022030916D
:102EF000032020932B2330932C232091002030910A
:102F000001202115310541F42DB73EB74091042031
:102F100050910520241B350BE0912B23F0912C239D
:102F2000E217F307A0F42E1B3F0B2817390778F0A0
:102F3000AC014E5F5F4F2417350748F04E0F5F1FFF
:102F400040932B2350932C238193919302C0E0E074
:102F5000F0E0CF01DF91CF911F910F910895CF93B2
:102F6000DF93009709F481C0FC013297128213822B
:102F7000A0912D23B0912E23109781F420813181CF
:102F8000820F931F20912B2330912C232817390770
:102F900051F5E0932B23F0932C2367C0ED0120E043
:102FA00030E0CE17DF0740F44A815B819E01411576
:102FB0005105F1F0EA01F5CFC283D38340815181FD
:102FC000840F951FC817D90759F488819981840FF8
:102FD000951F0296808391838A819B81828393834C
:102FE0002115310529F4E0932D23F0932E233DC0C4
:102FF000E901EA83FB8349915991C40FD51FEC176E
:10300000FD0761F480819181840F951F0296E9018B
:1030100088839983828193818A839B83E0E0F0E0B7
:1030200012968D919C911397009719F0FD01DC0188
:10303000F7CF8D919C9111979D012E5F3F4F820F8D
:10304000931F20912B2330912C232817390769F4E3
:10305000309729F410922D2310922E2302C0128251
:103060001382A0932B23B0932C23DF91CF9108954B
:10307000FB01DC0102C001900D9241505040D8F795
:063080000895F894FFCF53
:1030860000002F2320000010020607207DFFFF49C5
:10309600444C4500546D72205376630050696E743B
:1030A600752054657262756B6120200050696E74DC
:1030B600752054657274757475702000416C617268
:1030C6006D20446968656E74696B616E005369733F
:1030D60074656D204E6F6E616B746966005369731B
:1030E60074656D20416B74696620202000536973F6
:1030F6006E616D2B0053656D6170686F7265204659
:1031060061696C65640050757368427574746F6E9E
:103116005357310050757368427574746F6E535708
:0E3126003200446F6F7253656E736F7200005B
:00000001FF
